:020000040800F2
:10000000B8090020819A0008119A0008139A000884
:10001000159A0008179A0008199A000800000000B5
:100020000000000000000000000000001B9A000813
:100030001D9A0008000000001F9A0008219A00087D
:100040009D9A0008A19A0008A59A0008A99A00089C
:10005000AD9A0008B19A0008B59A0008B99A00084C
:10006000BD9A0008C19A0008C59A0008C99A0008FC
:10007000CD9A0008D19A0008D59A0008D99A0008AC
:10008000DD9A0008E19A0008E59A0008E99A00085C
:10009000ED9A0008F19A0008F59A0008F99A00080C
:1000A000FD9A0008019B0008059B0008099B0008B9
:1000B0000D9B0008119B0008159B0008199B000868
:1000C0001D9B0008219B0008259B0008299B000818
:1000D0002D9B0008319B0008359B0008399B0008C8
:1000E000259A00083D9B0008419B0008459B00089D
:1000F000499B00084D9B0008519B00080000000030
:10010000559B0008599B00085D9B0008619B0008F7
:10011000659B0008699B00086D9B0008719B0008A7
:10012000759B0008799B00087D9B0008819B000857
:10013000859B0008899B00088D9B0008919B000807
:10014000959B0008999B00089D9B0008A19B0008B7
:10015000A59B0008A99B0008AD9B0008B19B000867
:10016000B59B0008B99B0008BD9B0008C19B000817
:10017000C59B0008C99B00080000000000000000AB
:10018000CD9B0008D19B0008D59B0008D99B000897
:10019000DD9B0008E59B0008000000000000000057
:1001A0000000000000000000E19B0008E99B00083F
:1001B000ED9B0008F19B0008F59B00080000000083
:1001C000000000000000000000000000000000002F
:1001D000000000000000000000000000000000001F
:1001E000000000000000000000000000000000000F
:1001F00000000000000000000000000000000000FF
:1002000000000000000000000000038000038000E8
:10021000038000038000038000038000038000034C
:1002200080000380000100000100000000000000C9
:1002300000038000038000000000000000000000B8
:1002400000000000000000000000000000000000AE
:1002500000000000000E70000E70000E7000042000
:100260000004200004200004200000000000000022
:10027000000000000000000000000000000000007E
:10028000000000000000000000000000000000006E
:100290000000000000000000000006600006600092
:1002A0000660000660000660003FF8003FF80006A8
:1002B00060000CC0003FF8003FF8000CC0000CC00C
:1002C000000CC0000CC0000CC000000000000000CA
:1002D000000000000000000000000000000000011D
:1002E000800001800007B0000FF000187000187047
:1002F000001C00000F800007E00000F00018300034
:100300001C30001C70001FE0001BC00001800001B9
:10031000800001800001800000000000000000005B
:10032000000000000000000000000780000FC00077
:100330001CE0001860001860001CE0000FF80007C7
:10034000E0001FF000073800061800061800073804
:100350000003F00001E000000000000000000000C9
:10036000000000000000000000000000000000008D
:10037000000000000000000003F00007F0000C6027
:10038000000C00000C00000600000700000F9C009D
:100390001DFC0018F0001870000FFC0007DC0000C6
:1003A000000000000000000000000000000000004D
:1003B00000000000000000000000000000038000BA
:1003C0000380000380000100000100000100000123
:1003D000000000000000000000000000000000001D
:1003E000000000000000000000000000000000000D
:1003F00000000000000000000000000000000000FD
:10040000000000180000380000700000F00000E05C
:100410000000E00001C00001C00001C00001C000F8
:1004200001C00001C00000E00000E000007000001A
:1004300070000038000018000000000000000000FC
:10044000000000000000000000001800001C000078
:100450000E00000E000007000007000003800003EC
:1004600080000380000380000380000380000700F9
:10047000000700000F00000E00001C000018000024
:10048000000000000000000000000000000000006C
:1004900000000180000180000180001DB8001FF8ED
:1004A0000007E00003C00003C00006600006600013
:1004B000000000000000000000000000000000003C
:1004C000000000000000000000000000000000002C
:1004D000000000000000000000000000000000001C
:1004E0000180000180000180000180000180003F48
:1004F000FC003FFC000180000180000180000180C1
:10050000000180000000000000000000000000006A
:1005100000000000000000000000000000000000DB
:1005200000000000000000000000000000000000CB
:1005300000000000000000000000000000000000BB
:1005400000000000000000E00000C00001C0000149
:100550008000018000030000030000000000000094
:10056000000000000000000000000000000000008B
:100570000000000000000000000000000000001F5C
:10058000F8001FF80000000000000000000000005C
:10059000000000000000000000000000000000005B
:1005A000000000000000000000000000000000004B
:1005B000000000000000000000000000000000003B
:1005C000000000000000000000000000000000002B
:1005D00000000000000003C00003C00003C00000D2
:1005E000000000000000000000000000000000000B
:1005F0000000000000180000180000380000300063
:1006000000700000600000600000C00000C0000139
:1006100080000180000300000300000600000600C7
:10062000000E00000C00001C000018000018000064
:1006300000000000000000000000000000000000BA
:10064000000003C00007E0000C30000C3000181858
:1006500000181800181800181800181800181800AA
:100660001818000C30000C300007E00003C0000038
:10067000000000000000000000000000000000007A
:100680000000000000000000000000800007800063
:100690001F80001D8000018000018000018000019A
:1006A0008000018000018000018000018000018045
:1006B000001FF8001FF8000000000000000000000C
:1006C000000000000000000000000000000000002A
:1006D000000007C0001FF00038300030180030184C
:1006E0000000180000300000600001C0000380001E
:1006F0000600000C00001800003FF8003FF8000062
:1007000000000000000000000000000000000000E9
:100710000000000000000000000003C0000FE00027
:100720000C700000300000300000600003C00003C7
:10073000E0000070000018000018000018001838D1
:10074000001FF0000FC000000000000000000000CB
:100750000000000000000000000000000000000099
:10076000000000E00001E00001E00003600006601E
:10077000000660000C60000C600018600030600033
:100780003FF8003FF80000600003F80003F80000A5
:100790000000000000000000000000000000000059
:1007A000000000000000000000001FF0001FF0002B
:1007B0001800001800001800001BC0001FF0001CEB
:1007C0003000001800001800001800001800303039
:1007D000003FF0000FC0000000000000000000001B
:1007E0000000000000000000000000000000000009
:1007F000000000F80003F8000700000E00000C00E5
:10080000001800001BC0001FF0001C30001818006A
:100810001818001818000C38000FF00003E0000052
:1008200000000000000000000000000000000000C8
:10083000000000000000000000001FF8001FF8008A
:100840001818001838000030000030000070000058
:10085000600000600000E00000C00000C00001C0B7
:100860000001800001800000000000000000000086
:100870000000000000000000000000000000000078
:10088000000007E0000FF0001C38001818001818CE
:10089000000C300007E00007E0000C3000181800E2
:1008A0001818001818001C38000FF00007E00000AE
:1008B0000000000000000000000000000000000038
:1008C0000000000000000000000007C0000FF00062
:1008D0001C30001818001818001818000C38000FE9
:1008E000F80003D80000180000300000700000E09D
:1008F000001FC0001F0000000000000000000000FA
:1009000000000000000000000000000000000000E7
:10091000000000000000000000000000000003C014
:100920000003C00003C00000000000000000000041
:1009300000000000000003C00003C00003C000006E
:1009400000000000000000000000000000000000A7
:100950000000000000000000000000000000000097
:1009600000000000000000F00000F00000F00000B7
:10097000000000000000000000000000E00001C0D6
:100980000001800001800003000002000000000060
:100990000000000000000000000000000000000057
:1009A0000000000000000000001C00003C0000F0FF
:1009B0000003C0000F00003C0000F000003C0000FD
:1009C0000F000003C00000F000003C00001C00000D
:1009D0000000000000000000000000000000000017
:1009E0000000000000000000000000000000000007
:1009F0000000000000000000007FFC007FFC000001
:100A000000000000007FFC007FFC000000000000F0
:100A100000000000000000000000000000000000D6
:100A200000000000000000000000000000000000C6
:100A300000000000000000007000007800001E00B0
:100A40000007800001E000007800001E0000780030
:100A500001E0000780001E00007800007000000028
:100A60000000000000000000000000000000000086
:100A70000000000000000000000000000007C000AF
:100A80000FE00018700018300018300000700000EF
:100A9000E00003C00003800003000000000000002D
:100AA0000007000007000000000000000000000038
:100AB0000000000000000000000000000000000036
:100AC000000003E00007F0000E38000C1800187852
:100AD0000018F80019D80019980019980019980002
:100AE00018F8001878001800000C00000E18000715
:100AF000F80003E00000000000000000000000001B
:100B0000000000000000000000000000001F800046
:100B10001FC00001C0000360000360000630000633
:100B200030000C30000FF8001FF800180C00300CDB
:100B300000FC7F00FC7F00000000000000000000BF
:100B400000000000000000000000000000000000A5
:100B500000000000007FE0007FF000183800181847
:100B6000001818001838001FF0001FF800181C00AB
:100B7000180C00180C00180C007FF8007FF0000023
:100B80000000000000000000000000000000000065
:100B90000000000000000000000000000003EC0066
:100BA0000FFC001C1C00180C00300C003000003042
:100BB0000000300000300000300000180C001C1C49
:100BC000000FF80003F0000000000000000000002B
:100BD0000000000000000000000000000000000015
:100BE00000000000007FC0007FF0001838001818D7
:100BF00000180C00180C00180C00180C00180C0041
:100C0000180C001818001838007FF0007FE0000072
:100C100000000000000000000000000000000000D4
:100C2000000000000000000000000000007FF8004D
:100C30007FF8001818001818001998001980001F74
:100C400080001F80001980001998001818001818DB
:100C5000007FF8007FF800000000000000000000A6
:100C60000000000000000000000000000000000084
:100C700000000000003FFC003FFC000C0C000C0CCE
:100C8000000CCC000CC0000FC0000FC0000CC00056
:100C90000CC0000C00000C00003FC0003FC0000072
:100CA0000000000000000000000000000000000044
:100CB0000000000000000000000000000003EC0045
:100CC0000FFC001C1C00180C00300C003000003021
:100CD000000030FE0030FE00300C00380C001C1C00
:100CE000000FFC0003F00000000000000000000006
:100CF00000000000000000000000000000000000F4
:100D000000000000007E7E007E7E0018180018188B
:100D1000001818001818001FF8001FF80018180015
:100D20001818001818001818007E7E007E7E00003B
:100D300000000000000000000000000000000000B3
:100D4000000000000000000000000000001FF8008C
:100D50001FF8000180000180000180000180000177
:100D6000800001800001800001800001800001807E
:100D7000001FF8001FF80000000000000000000045
:100D80000000000000000000000000000000000063
:100D9000000000000007FE0007FE000030000030E9
:100DA00000003000003000003000303000303000F3
:100DB0003030003030003060003FE0000F80000035
:100DC0000000000000000000000000000000000023
:100DD000000000000000000000000000007F3E0056
:100DE0007F3E0018300018600018C0001980001BFA
:100DF00080001FC0001CE000187000183000183878
:100E0000007F1F007F1F00000000000000000000A6
:100E100000000000000000000000000000000000D2
:100E200000000000007F80007F80000C00000C00AC
:100E3000000C00000C00000C00000C00000C0C006A
:100E40000C0C000C0C000C0C007FFC007FFC000064
:100E50000000000000000000000000000000000092
:100E600000000000000000000000000000F00F0083
:100E7000F81F00381C003C3C003C3C00366C00363F
:100E80006C0033CC0033CC00318C00300C00300CC3
:100E900000FE7F00FE7F0000000000000000000058
:100EA0000000000000000000000000000000000042
:100EB000000000000078FE0078FE001C18001E18DC
:100EC000001F18001B18001B980019D80018D80024
:100ED00018F8001878001838007F18007F180000F4
:100EE0000000000000000000000000000000000002
:100EF0000000000000000000000000000003C0002F
:100F00000FF0001C3800181800381C00300C00309E
:100F10000C00300C00300C00381C001818001C3875
:100F2000000FF00003C000000000000000000000FF
:100F300000000000000000000000000000000000B1
:100F400000000000003FF0003FF8000C1C000C0CFB
:100F5000000C0C000C0C000C18000FF8000FE00047
:100F60000C00000C00000C00003FC0003FC000005F
:100F70000000000000000000000000000000000071
:100F80000000000000000000000000000003C0009E
:100F90000FF0001C3800181800381C00300C00300E
:100FA0000C00300C00300C00381C001818001C38E5
:100FB000000FF00007C00007CC000FFC000C380049
:100FC0000000000000000000000000000000000021
:100FD00000000000007FE0007FF0001838001818C3
:100FE000001818001838001FF0001FC00018E0009B
:100FF0001870001830001838007F1E007F0E0000A7
:1010000000000000000000000000000000000000E0
:101010000000000000000000000000000007D800F1
:101020000FF8001C38001818001818001E00000FD8
:10103000C00003F0000078001818001818001C38D1
:10104000001FF0001BE00000000000000000000096
:101050000000000000000000000000000000000090
:1010600000000000003FFC003FFC00318C00318C90
:1010700000318C00318C0001800001800001800073
:101080000180000180000180000FF0000FF00000DF
:101090000000000000000000000000000000000050
:1010A000000000000000000000000000007E7E0044
:1010B0007E7E00181800181800181800181800185C
:1010C00018001818001818001818001818000C300C
:1010D000000FF00003C0000000000000000000004E
:1010E0000000000000000000000000000000000000
:1010F00000000000007F7F007F7F00180C000C18AC
:10110000000C18000C1800063000063000036000C8
:1011100003600003600001C00001C0000080000007
:1011200000000000000000000000000000000000BF
:1011300000000000000000000000000000FE3F80F2
:10114000FE3F8030060030060030860019CC0019C2
:10115000CC001B6C001B6C001E7C000E38000E388F
:10116000000C18000C180000000000000000000037
:10117000000000000000000000000000000000006F
:1011800000000000007E7E007E7E001818000C30FB
:101190000006600003C00001800001800003C00061
:1011A0000660000C30001818007E7E007E7E000075
:1011B000000000000000000000000000000000002F
:1011C000000000000000000000000000007C7E0025
:1011D0007C7E001818000C300006600006600003DA
:1011E000C0000180000180000180000180000180BA
:1011F000000FF0000FF000000000000000000000F1
:1012000000000000000000000000000000000000DE
:1012100000000000001FF8001FF800181800183028
:101220000018600018C000018000030000061800CC
:101230000C18001818003018003FF8003FF80000A4
:10124000000000000000000000000000000000009E
:101250000000000000000000000001F00001F000AC
:1012600001800001800001800001800001800001F8
:101270008000018000018000018000018000018069
:101280000001800001800001800001F00001F000F9
:10129000000000000000000000000000180000181E
:1012A00000001C00000C00000E00000600000600FC
:1012B0000003000003000001800001800000C00066
:1012C00000C00000600000600000700000300000FE
:1012D00038000018000018000000000000000000A6
:1012E000000000000000000000000F80000F8000E0
:1012F0000180000180000180000180000180000168
:1013000080000180000180000180000180000180D8
:10131000000180000180000180000F80000F80002C
:1013200000000000000000000000000000000000BD
:10133000800001C00003E0000770000630000C18B8
:1013400000180C0010040000000000000000000065
:10135000000000000000000000000000000000008D
:10136000000000000000000000000000000000007D
:10137000000000000000000000000000000000006D
:10138000000000000000000000000000000000005D
:10139000000000000000000000000000000000004D
:1013A000000000000000000000000000000000003D
:1013B000000000000000FFFF00FFFF00000000032E
:1013C000000003800000E00000600000000000005A
:1013D000000000000000000000000000000000000D
:1013E00000000000000000000000000000000000FD
:1013F00000000000000000000000000000000000ED
:1014000000000000000000000000000000000000DC
:101410000000000000000FC0001FE00000300000CE
:10142000300007F0001FF00038300030300030701E
:10143000001FFC000FBC00000000000000000000C6
:10144000000000000000000000000000000000009C
:1014500000007800007800001800001800001BE071
:10146000001FF8001C1800180C00180C00180C00C5
:10147000180C00180C001C18007FF8007BE000001E
:10148000000000000000000000000000000000005C
:10149000000000000000000000000000000000004C
:1014A00000000000000003EC000FFC001C1C0038D2
:1014B0000C00300C00300000300000380C001C1C08
:1014C000000FF80003F00000000000000000000022
:1014D000000000000000000000000000000000000C
:1014E000000000780000780000180000180007D8FD
:1014F000001FF800183800301800301800301800AD
:101500003018003018001838001FFE0007DE0000F9
:1015100000000000000000000000000000000000CB
:1015200000000000000000000000000000000000BB
:1015300000000000000007E0001FF800181800304D
:101540000C003FFC003FFC00300000300000180C95
:10155000001FFC0007F00000000000000000000079
:10156000000000000000000000000000000000007B
:10157000000001FC0003FC000600000600003FF82C
:10158000003FF8000600000600000600000600000C
:101590000600000600000600003FF0003FF00000DB
:1015A000000000000000000000000000000000003B
:1015B000000000000000000000000000000000002B
:1015C00000000000000007DE001FFE001838003099
:1015D0001800301800301800301800301800183883
:1015E000001FF80007D8000018000018000038009D
:1015F0000FF0000FC000000000000000000000001D
:1016000000007800007800001800001800001BE0BF
:10161000001FF0001C3800181800181800181800D7
:101620001818001818001818007E7E007E7E000032
:1016300000000000000000000000000000000000AA
:101640000000000000000000000001800001800098
:101650000000000000001F80001F800001800001CA
:101660008000018000018000018000018000018075
:10167000003FFC003FFC00000000000000000000F4
:10168000000000000000000000000000000000005A
:10169000000000C00000C0000000000000001FF0BB
:1016A000001FF0000030000030000030000030006B
:1016B000003000003000003000003000003000003A
:1016C00030000030000070001FE0001F80000000AC
:1016D000000000000000000000003C00003C000092
:1016E0000C00000C00000CF8000CF8000CC0000D01
:1016F00080000F80000F00000F80000DC0000CE084
:10170000003C7C003C7C0000000000000000000069
:1017100000000000000000000000000000000000C9
:1017200000001F80001F80000180000180000180F8
:101730000001800001800001800001800001800024
:101740000180000180000180003FFC003FFC0000A0
:101750000000000000000000000000000000000089
:101760000000000000000000000000000000000079
:10177000000000000000F77800FFFC0039CC0031C9
:101780008C00318C00318C00318C00318C00318C1C
:1017900000FDEF00FDEF0000000000000000000071
:1017A0000000000000000000000000000000000039
:1017B00000000000000000000000000000007BE0CE
:1017C000007FF0001C3800181800181800181800C6
:1017D0001818001818001818007E7E007E7E000081
:1017E00000000000000000000000000000000000F9
:1017F00000000000000000000000000000000000E9
:1018000000000000000003C0000FF0001C3800388A
:101810001C00300C00300C00300C00381C001C3850
:10182000000FF00003C000000000000000000000F6
:1018300000000000000000000000000000000000A8
:1018400000000000000000000000000000007BE03D
:10185000007FF8001C1800180C00180C00180C0071
:10186000180C00180C001C18001FF8001BE00018D2
:1018700000001800001800007F00007F000000003A
:101880000000000000000000000000000000000058
:1018900000000000000007DE001FFE0018380030C6
:1018A00018003018003018003018003018001838B0
:1018B000001FF80007D800001800001800001800EA
:1018C00000FE0000FE00000000000000000000001C
:1018D00000000000000000000000000000003E7852
:1018E000003EFC0007CC00070000060000060000D8
:1018F0000600000600000600003FF0003FF0000078
:1019000000000000000000000000000000000000D7
:1019100000000000000000000000000000000000C7
:1019200000000000000007F8000FF8001818001869
:1019300018001F80000FF00000F800181800183879
:10194000001FF0001FE00000000000000000000089
:101950000000000000000000000000000000000087
:1019600000000C00000C00000C00000C00003FF018
:10197000003FF0000C00000C00000C00000C000008
:101980000C00000C00000C1C0007FC0003F0000021
:101990000000000000000000000000000000000047
:1019A0000000000000000000000000000000000037
:1019B00000000000000078780078780018180018FF
:1019C00018001818001818001818001818001838EF
:1019D000000FFE0007DE0000000000000000000015
:1019E00000000000000000000000000000000000F7
:1019F00000000000000000000000000000007C3E2D
:101A0000007C3E001818001818000C30000C300044
:101A100006600006600007E00003C00003C000008D
:101A200000000000000000000000000000000000B6
:101A300000000000000000000000000000000000A6
:101A4000000000000000783C00783C0031180033B2
:101A500098003398001AB0001EF0001EF0001C60C1
:101A6000000C60000C60000000000000000000009E
:101A70000000000000000000000000000000000066
:101A800000000000000000000000000000003E7C9C
:101A9000003E7C000C300006600003C000018000A6
:101AA00003C0000660000C30003E7C003E7C00005D
:101AB0000000000000000000000000000000000026
:101AC0000000000000000000000000000000000016
:101AD0000000000000007E1F007E1F00180C000C9C
:101AE00018000C180006300006300003600003E008
:101AF0000001C00000C00001800001800003000060
:101B00003FC0003FC00000000000000000000000D7
:101B100000000000000000000000000000001FF8AE
:101B2000001FF80018300018600000C0000180009D
:101B30000300000618000C18001FF8001FF8000032
:101B40000000000000000000000000000000000095
:101B50000000000000000000000000E00001E000C4
:101B600001800001800001800001800001800001EF
:101B700080000380000700000380000180000180D6
:101B80000001800001800001800001E00000E00011
:101B90000000000000000000000000000000000045
:101BA00000000180000180000180000180000180B0
:101BB00000018000018000018000018000018000A0
:101BC000018000018000018000018000018000018F
:101BD0008000018000018000000000000000000083
:101BE0000000000000000000000007000007800067
:101BF000018000018000018000018000018000015F
:101C0000800001C00000E00001C0000180000180F0
:101C100000018000018000018000078000070000B3
:101C200000000000000000000000000000000000B4
:101C300000000000000000000000000000000000A4
:101C4000000000000E00001F18003BB80031F0003B
:101C500000E00000000000000000000000000000A4
:101C60000000000000000000000000000000000074
:101C70000000000000000000000000000000000064
:101C8000001010101010000010000000006C4848F8
:101C90000000000000000000001414287C287C28AC
:101CA00050500000001038404038487010100000BC
:101CB000002050200C7008140800000000000018DC
:101CC00020205448340000000010101010000000C4
:101CD0000000000000080810101010101008080084
:101CE00000202010101010101020200000107C1078
:101CF00028280000000000000000101010FE101046
:101D0000100000000000000000000018103020004B
:101D100000000000007C0000000000000000000047
:101D200000000030300000000004040808101020FB
:101D3000204000000038444444444444380000003B
:101D400000301010101010107C0000000038440407
:101D5000081020447C0000000038440418040444A7
:101D600038000000000C141424447E040E0000000F
:101D7000003C20203804044438000000001C2040AF
:101D80007844444438000000007C440408080810EB
:101D90001000000000384444384444443800000037
:101DA00000384444443C0408700000000000003047
:101DB000300000303000000000000018180000184B
:101DC0003020000000000C10608060100C0000004B
:101DD000000000007C007C00000000000000C0202B
:101DE00018041820C0000000000018240408100087
:101DF000300000003844444C54544C4044380000F7
:101E00000030102828287C44EE00000000F84444EC
:101E100078444444F8000000003C444040404044C2
:101E20003800000000F0484444444448F0000000FA
:101E300000FC445070504044FC000000007E22280A
:101E40003828202070000000003C4440404E4444AC
:101E50003800000000EE44447C444444EE0000009E
:101E6000007C1010101010107C000000003C0808CE
:101E7000084848483000000000EE4448507048448C
:101E8000E600000000702020202024247C000000B8
:101E900000EE6C6C54544444EE00000000EE6464A8
:101EA0005454544CEC00000000384444444444442E
:101EB000380000000078242424382020700000001E
:101EC0000038444444444444381C000000F844446E
:101ED00044784844E200000000344C403804046474
:101EE0005800000000FE9210101010103800000082
:101EF00000EE4444444444443800000000EE4444AE
:101F0000282828101000000000EE44445454545473
:101F10002800000000C6442810102844C600000015
:101F200000EE44282810101038000000007C4408FF
:101F3000101020447C0000000038202020202020A9
:101F40002020380000402020201010080808000041
:101F50000038080808080808080838000010102889
:101F6000440000000000000000000000000000002D
:101F7000000000FE0010080000000000000000004B
:101F800000000038443C44443E00000000C040587B
:101F900064444444F80000000000003C44404044D5
:101FA00038000000000C04344C4444443E0000005F
:101FB00000000038447C40403C000000001C207CB5
:101FC000202020207C000000000000364C444444C7
:101FD0003C04380000C0405864444444EE00000013
:101FE00000100070101010107C000000001000782D
:101FF000080808080808700000C0405C4870504895
:10200000DC00000000301010101010107C000000E8
:10201000000000E854545454FE000000000000D8B2
:1020200064444444EE00000000000038444444444A
:1020300038000000000000D8644444447840E000C8
:10204000000000364C4444443C040E000000006C88
:10205000302020207C0000000000003C4438044474
:10206000780000000000207C202020221C000000BE
:10207000000000CC4444444C36000000000000EE58
:102080004444282810000000000000EE445454543A
:1020900028000000000000CC48303048CC00000090
:1020A000000000EE44242818101078000000007C86
:1020B000481020447C000000000810101010201070
:1020C0001010080000101010101010101010000058
:1020D0000020101010100810101020000000000048
:1020E0000024580000000000000000000000000074
:1020F00020202020002000005050000000000000A0
:102100002850F850F850A0002030603010602000B7
:102110002020186010100000003820605078000067
:10212000202020000000000010202020202010008F
:10213000402020202020400020702050000000007F
:10214000002020F8202000000000000010202000C7
:1021500000000070000000000000000000200000EF
:10216000102020204040800020505050502000007F
:102170006020202020F80000205020204070000027
:1021800020501020106000001030507810380000EF
:1021900070406010502000003040605050600000DF
:1021A00070501020202000002050205050200000AF
:1021B000305050301060000000002000002000006F
:1021C0000000100010200000001020C020100000AF
:1021D0000070007000000000004020182040000047
:1021E0002050102000200000304848584840380057
:1021F0006020507088D80000F048704848F0000017
:102200007050404040300000F048484848F000001E
:10221000F848604048F80000F848604040E000009E
:102220007040405850300000E848784848E80000C6
:102230007020202020700000381010505020000026
:10224000D850607050D80000E040404048F800008E
:10225000D8D8D8A888D80000D868685858E80000AE
:102260003048484848300000F048487040E00000DE
:102270003048484848301800F048487048E80000A6
:102280007050201050700000F8A82020207000002E
:10229000D848484848300000D8884850503000009E
:1022A000D888A8A8A8500000D850202050D80000F6
:1022B000D88850202070000078481020487800000E
:1022C000302020202020300080404020202010009E
:1022D000602020202020600020205000000000000E
:1022E00000000000000000F82010000000000000C6
:1022F0000000301070780000C040704848F00000C6
:10230000000070404070000018083848483800004D
:10231000000070704030000010207020207000001D
:102320000000384848380830C040704848E800008D
:10233000200060202070000020007010101010702D
:10234000C040587050D8000060202020207000004D
:102350000000D0A8A8A800000000F04848C800006D
:1023600000003048483000000000F048487040E06D
:102370000000384848380818000078202070000015
:1023800000003020106000000040F04048300000A5
:102390000000D848483800000000C848303000002D
:1023A0000000D8A8A85000000000483030480000C5
:1023B0000000D8505020206000007850287800009D
:1023C000102020602020100020202020202020002D
:1023D0004020203020204000000000285000000055
:1023E0004178007807E0C178827842EA012142789A
:1023F000007842EA012140EA012070470170090A91
:10240000417070470170090A4170090A8170090A18
:10241000C17070472AB111F8013B00F8013B521E10
:10242000F9D17047521E00F8011BFBD1704700E044
:10243000401C0278130018BF8A42F9D11046704739
:10244000F0B500220023824C04EB03152E685EB128
:102450000768BE4202BF6E688768BE4202BFAD68B1
:102460004669B54201D103E001225B1C0C2BEBD382
:102470000C2B04D162B902290AD01220F0BD29B96F
:1024800004EB03108089B0F5807F01D11020F0BDEE
:102490000020F0BDF0B5036887686D4C002204EBA6
:1024A00002152E689E4204BF6E68BE4202BFAD6830
:1024B0004669B54202D0521C0C2AF0D30C2A11D125
:1024C00000221501655915B1521C0C2AF9D30C2AAA
:1024D0000DD004EB02152B6083686B604069A86027
:1024E0000020A88104EB0210838929B10BB10020E0
:1024F000F0BD4FF4807100E0591C8181501CF0BD8B
:1025000010B5401E0C2813D2000151490A189389B6
:10251000B3F5807F01D01C0002D10023938103E03A
:102520005B1E93819BB20BB900220A50002010BDA4
:10253000022010BD10B50021454A0B01D458844239
:1025400004BF0024D450491C0C29F6D310BDF8B5A3
:1025500005460024E878A0B12E6B00F014F808B10D
:1025600001240EE0E870686AE969301A884208D2EE
:10257000AF7804E0E869861900F005F87F1E022FA5
:10258000F8D22046F2BD68780123324605F13401C5
:1025900001F02ABD70B504460D46206B0026854229
:1025A00010D02046FFF7D3FF06000BD1607801233F
:1025B0002A4604F1340101F011FD10B14FF0FF354E
:1025C00001262563304670BD38B50446FFF7BFFFCE
:1025D00005003BD12078032804BF207901282ED1A3
:1025E0004FF40072002104F13400FFF71BFF4AF69C
:1025F000552104F23220FFF701FF164904F134009F
:10260000FFF700FF4FF4067013492044FFF7FAFE6E
:1026100061694FF407702044FFF7F4FE21694FF41D
:1026200008702044FFF7EEFE206A421C226301235B
:10263000607804F1340101F0D7FC00202071002201
:102640006078002101F0DEFC00B10125284632BD92
:10265000EC21002052526141727241618269891EEF
:10266000921E914201D3002070474289C06A02FB4A
:10267000010070472DE9F0410C460568022C49D352
:10268000A869844246D2287801284FF0FF3604D04A
:1026900040D303282ED01ED33CE0686A04EB5407D5
:1026A00000F09BFC002836D1C7F3080028447F1CAB
:1026B00090F83480686A00F090FC60BBC7F30800B3
:1026C000284490F8340048EA0021E00754BFC1F3E1
:1026D0000B060E091FE0686A00EB142100F07FFC76
:1026E000C8B96000C0F3080028443430FFF778FE12
:1026F000064610E0686A00EBD41100F070FC50B997
:10270000A000C0F3080028443430FFF76CFE20F02E
:10271000704600E001263046BDE8F0812DE9F04129
:102720000F46022F044615464FF0020865D3A069F4
:10273000874262D22078012804D05ED3032841D09A
:102740002FD35AE0606A07EB570600F041FC5FEABE
:10275000000852D1C6F3080020443430761CF90733
:1027600043BF017801F00F0141EA051129460170CC
:102770000120E070606A00F02BFC5FEA00083CD1A9
:10278000C6F3080020443430F90748BF290906D4AD
:1027900001782A0A01F0F00102F00F0211430170E2
:1027A00029E0606A00EB172100F014FC5FEA0008E2
:1027B00023D17800C0F308002044A9B23430FFF7D9
:1027C0001DFE18E0606A00EBD71100F003FC5FEA21
:1027D000000812D1B800C0F30800271807F1340030
:1027E000FFF701FE25F0704100F07040014307F152
:1027F0003400FFF707FE0120E0704046BDE8F0819D
:10280000F8B504460F462568022F114611D3A86972
:1028100087420ED231B14FF0FF322846FFF77EFFDC
:10282000010023D1394601F080F906001DD0012EA8
:1028300001D10220F2BD16F1010F01D10120F2BD3C
:10284000002239462846FFF769FF01000ED1A8692A
:102850006969821E914205D2491C6961297941F05A
:102860000101297137468742DCD30020F2BD2DE9F2
:10287000F04180460D00D8F8004006D1276917B115
:10288000A06987420ED301270CE0FFF7F3FE022870
:1028900038BF01203DD310F1010F3AD0A169884221
:1028A00037D32F463E46A069761C864202D30226C5
:1028B000022F26D331464046FFF7DCFED0B94FF059
:1028C000FF3231462046FFF729FF28B92DB13246A5
:1028D00029462046FFF722FFA8B9A1696069266151
:1028E000891E814224BF401E6061207940F00100B2
:1028F00020710DE0012818BF10F1010F09D0BE4270
:10290000D1D1002005E001280CBF4FF0FF36012691
:102910003046BDE8F081C26A00684089490A121D4C
:10292000B1FBF0F001E0401A0832116809B900204B
:1029300070478842F7D25168081870472DE9F04176
:1029400004460D462668B5F5001F2ED215F01F0F60
:102950002BD1A76865611FB93078032801DBB76AFE
:102960002FB93189680988421FD2B06A19E070898D
:102970004FEA402801E0A5EB0805454539460DD34F
:1029800001F0D3F8074617F1010F01D1012017E03C
:10299000022F0AD3B0698742EDD306E03046FFF735
:1029A0005DFEE061A761E06908B9022008E000EB84
:1029B0005520E061C5F30800304434302062002027
:1029C000BDE8F0812DE9F04104460E4660692568B6
:1029D00000F12007E06908B3B7F5001F1ED2F90522
:1029E0005AD1401CA169E06121B92989780988423E
:1029F00052D311E06889401E10EA572F4CD101F0E4
:102A000094F88046B8F1020F16D318F1010F37D0B1
:102A1000A869804539D31EB90020E061042042E056
:102A2000A1692046FFF723FF5FEA000808BF0720DF
:102A300039D0B8F1010F01D1022034E018F1010FB3
:102A40001ED02846FFF783FDD0B94FF40072002155
:102A500005F13400FFF7E6FC41462846FFF7FEFD8E
:102A6000002602E0286B761C401C28636889864299
:102A700008D20120E8702846FFF769FD0028F1D050
:102A8000012010E0286B801B2863C4F818804146A1
:102A90002846FFF7E3FDE061C7F30800284434301F
:102AA000206267610020BDE8F08170B504460D46E4
:102AB00005F11A00FFF794FC06462078032805D19B
:102AC00005F11400FFF78CFC46EA0046304670BD65
:102AD00070B504460D461646B1B205F11A00FFF76F
:102AE0008DFC2078032805D1310C05F11400BDE8D8
:102AF000704083E470BD7CB5164604461D460B222B
:102B0000FFF788FC062D12D3308880B136F8020B0F
:102B1000102100F0010202EB45054008EA0344BF22
:102B200085F4883585F02105491EF2D1ECE70720B0
:102B300005F00F023032D2B23A2AA8BFD21D0DF8EA
:102B40000020401E2D09F3D17E220DF80020002226
:102B500000E0521C824202D2A35C202BF9D1134622
:102B60005A1C08283ABF1DF80050401C2025E55487
:102B7000082AF4D373BD00210B220B46C90101EBD7
:102B8000530110F8013B5918521EC9B2F5D108463D
:102B900070472DE9F24F054682B028680090FF2764
:102BA0000424BB46E969002965D001F0FCF9040062
:102BB00061D1286A017809B904245EE0C27AE52966
:102BC00002F03F0218BF2E29AA7159D022F020032B
:102BD000082B029E0CBF01230023B34250D10F2AC1
:102BE00050D14A0606D590F80DB06A692A6301F003
:102BF000BF010F46FAB2914204BF427B93453FD1D9
:102C000004460098D0F80C8004F11A00FFF7E8FBA6
:102C1000B0BB207820F04000401E0D2101FB00F9E0
:102C20004FF0010A00260FF29830805D2044FFF734
:102C3000D7FBBAF1000F09D0B9F1FF0F3EBF8246B2
:102C400028F819A009F1010904D319E04FF6FF7122
:102C5000884215D1761C0D2EE5D32078400605D587
:102C6000B9F1FF0F0CD2002028F819007F1E00F0E8
:102C7000BBF8040096D0200001D00020E861ADE050
:102C8000FF27F4E74FF0FF36FFB20FB12E63F6E7F0
:102C9000FFF771FF8345F2D0F8E72DE9F04F0546C5
:102CA00083B02868019000F09CF804000FD1FF2049
:102CB0000090FF264FF0FF302863E9690198FFF785
:102CC00069FC040003D1286A017809B9042485E06D
:102CD000C27A02F03F02E529AA7176D0130702D525
:102CE0000F2A72D101E00F2A56D195F82F205206F3
:102CF0006FD44A0606D5427B009201F0BF016A6993
:102D00002A630E46F2B2914202BF0099427B914281
:102D100040D104460198D0F80C9004F11A00FFF756
:102D20005FFBB8BB207800F03F00401E0D2101FB87
:102D300000F84FF0010B00270FF28420C05D204403
:102D4000FFF74EFBBBF1000F824610D0B8F1FF0F2A
:102D500020D201F085F9834639F8180001F080F996
:102D6000834508F1010808BFD34604D012E04FF6AE
:102D7000FF7082450ED17F1C0D2FDDD320784006D9
:102D800006D5BBF1000F1CBF39F81800002801D18F
:102D9000761E1EE0FF261CE0F6B226B9009EFFF765
:102DA000EAFE86421AD095F82F00C0070DD4286A93
:102DB00005F124010B2210F8013B11F8016B9B1B5C
:102DC000521E01D0002BF6D043B14FF0FF30FF264A
:102DD000286300F009F804003FF46FAF2046BDE817
:102DE000FE8F00212846A9E500212846EAE52DE9C5
:102DF000F04F054687B028680090A02195F82F0075
:102E0000084218BF062040F0D980002600E0761C5A
:102E10000098C06830F816000028F8D10C2205F19F
:102E2000240103A8FFF7F6FA03AFF87AC00720D50C
:102E3000402085F82F0001240098C268234603A98A
:102E400005F12400FFF757FE2846FFF726FF5FEA4B
:102E5000000802D1641C642CEED3642C08BF072048
:102E600000F0AC80B8F1040F40F0A780F87A85F844
:102E70002F00F87A800706D506F10C000D21B0FB73
:102E8000F1F0461C00E001262C68FFF7AAFF0100C4
:102E900015D10027E96900F09DF801000FD1296ADA
:102EA0000978E5291CBF0029002702D17F1CB74201
:102EB00008D001212846FFF785FD0100EAD004284B
:102EC00008BF07205FEA00085CD1761E5DD0686904
:102ED000A0EB4611FFF786FF5FEA000852D105F12B
:102EE0002400FFF748FE8DF808004FF6FF7701F049
:102EF00059F85FEA000845D100982C6AC068019033
:102F000000219DF8080060735FFA86F80F20E072D8
:102F10004FF0000A0020207304F11A00FFF76EFA48
:102F2000A8F101000D2101FB00F901E0BB4504D02F
:102F3000019830F819B009F101090FF2840010F876
:102F40000A0059462018FFF759FABBF1000F08BFD5
:102F5000BB460AF1010ABAF10D0FE7D3BB451DBF0D
:102F6000019830F81900002848F0400884F80080E3
:102F700001F014F8FFF738FF5FEA000802D1761E6F
:102F8000B5D102E05FEA080017D101F00BF85FEA63
:102F9000000812D1286A20220021FFF743FA286A8C
:102FA0000B2205F12401FFF735FA95F82F00296A65
:102FB00000F01800087300F0F1FF404600F0E3BF96
:102FC00001030507090E10121416181C1E0000003C
:102FD00000EB56212046FFF7DDBA00EB57212846CB
:102FE000FFF7D8BA2DE9F04105460C462E680020BF
:102FF000A075E869002861D0286B10F1010F17D087
:103000004FF00008002702E0E1197F1C8875F06886
:1030100030F81800010008F1010806D0002101F085
:1030200001F808B1FF2FEFD30027E11900208875C0
:103030000023A17D0022286A865C521C202E21D00C
:10304000052E08BFE526092A06D1E01809B92E2762
:1030500087752E2747725B1CE7187E7289B9A6F127
:1030600041001A280CD2286A007B092A2CBF4FF095
:10307000100C4FF0080C10EA0C0F1CBF2036F6B2F3
:10308000BE755B1C0B2AD6D331B9E11800208875B8
:10309000286A007B00B90023E11800204872286AE2
:1030A000C07A2072286A1C30FFF79DF92060286AD8
:1030B0001630FFF798F9E080000CA080BDE8F081A1
:1030C00001684A1C02600878A0F161011A293CBF1E
:1030D000203880B2802804DB0FF27821084410F8F1
:1030E000800C7047F2B582B0044616461D46304645
:1030F000461E28B102A8FFF7E3FF0028F7D12AE017
:10310000207800B9ADBB0298009401900098007837
:103110003F2818BF2A2820D1002300220098401CF5
:103120000090401E00783F28009800780CBF521C89
:1031300001233F2818BF2A28F0D001990098FFF7F3
:10314000D1FFB0B90198067802A8FFF7B9FF002DAA
:1031500018BF002ED7D10020FEBD6846FFF7B0FF94
:10316000074601A8FFF7ACFF0646B742ECD1002F97
:10317000CCD10120FEBD2DE9F14F0C4682B0006894
:10318000D4F80080D0F80CA00FF2BC19002500265E
:1031900011E0FF2D35D20121384600F043FF070032
:1031A0002FD0802F04DA39464846FFF740F940BB5C
:1031B0002AF815706D1C18F80670761C202F0ADB93
:1031C0002F2F18BF5C2FE4D118F806002F2814BF4A
:1031D0005C28761CF8D008EB06002060202FACBFDE
:1031E0000024042400E06D1E3DB10AEB450030F8D8
:1031F000027C202F18BF2E2FF5D000202AF81500B2
:103200000DB906205EE00298243000900B222021A8
:10321000FFF708F9002600E0761C3AF8160020288F
:1032200018BF2E28F8D00EB144F003040AEB450075
:1032300030F8020C2E2801D06D1EF7D14FF0000996
:10324000CB464FF0080800E004463AF81670761CAA
:103250007FB1202F44F00300F6D02E2F01D1AE42D3
:10326000F2D1C34501D2AE423CD1B8F10B0F2BD104
:10327000044600980078E52802D1009A05201070D5
:10328000B8F1080F08BF4FEA890909F00C000C28B3
:1032900019BF09F00300032844F00204E4B2A007B8
:1032A0000DD409F00300012804BF44F01004E4B277
:1032B00009F00C00042804BF44F00804E4B20098AC
:1032C000C4720020BDE8FE8FAE4218BF0446B5426E
:1032D00021BF2E464FF0080B4FF00B084FEA89092B
:1032E000B3D2C6E7802F0EDB0021384600F09AFEED
:1032F000070004D00FF25C00C01910F8807C44F085
:103300000204E4B22FB139460FF2C800FFF78FF87C
:1033100020B144F003045F27E4B20DE0A7F14100BF
:103320001A2838BF49F0020906D3A7F161001A280C
:103330003CBF49F00109203F029858440BF1010BB2
:1033400080F8247081E70000222A3A3C3E3F7C7FCF
:103350000000000043554541414141434545454931
:10336000494941414592924F4F4F5555594F554FFD
:103370009C4F9E9F41494F55A5A5A6A7A8A9AAABBA
:10338000ACADAEAFB0B1B2B3B4414141B8B9BABB64
:10339000BCBDBEBFC0C1C2C3C4C54141C8C9CACB00
:1033A000CCCDCECFD1D145454549494949D9DADBC4
:1033B000DCDD49DF4FE14F4F4F4FE6E8E85555550B
:1033C0005959EEEFF0F1F2F3F4F5F6F7F8F9FAFBEC
:1033D000FCFDFEFF2B2C3B3D5B5D000032B504463F
:1033E000256802E00098401C0090009800782F2883
:1033F00018BF5C28F6D00020A06000980078202834
:103400000FD2802084F82F0000F025F832BD6069CB
:10341000C0F30800284400F134012846FFF745FBBB
:10342000A06069462046FFF7A6FE010012D12046A3
:10343000FFF733FC94F82F10020001F0040104D0D0
:10344000042808BF002905D103E019B9A079C006F6
:10345000DDD4052032BD00212046FFF76FBA10B53C
:1034600002684FF0FF31BAB1134600E05B1C1C78D4
:10347000202C01D33A2CF9D13A2C0CD112F8014B63
:10348000303C0A2C08D29A4206D1022C04D25A1C93
:103490002146026000E00021084610BD38B5044610
:1034A0000020E07004F130054FF0FF302860FFF796
:1034B00091FD08B1042032BD04F23220FEF790FFE6
:1034C0004AF65521884201D0032032BD2879E928E7
:1034D00004D0EB2804BFA879902813D104F16A0026
:1034E000FEF781FF20F07F40DFF81415884207D0F7
:1034F00004F18600FEF777FFDFF80815884201D156
:10350000002032BD022032BD2DE9F0430D4685B0CA
:10351000002129601446FFF7A2FF070048BF0B20D7
:1035200006D4DFF8E48408EB870046680EB90C2067
:1035300013E12E6004F0FE04307848B1707800F09A
:1035400035FDC10704D4002C01D040070DD403E1A0
:10355000002030707770707800F031FDC10748BFEF
:10356000032003D41CB1400701D50A20F5E0002157
:103570003046FFF793FF00270446022C23D1002496
:1035800006EB04104FF4F9710844017919B10830C1
:10359000FEF729FF00E000204DF82400641C042CF5
:1035A000EED3B9465DF8297027B139463046FFF7AA
:1035B00075FF00E003200446022C04DB09F1010939
:1035C000B9F1040FEED3042C08BF0120CED0022C99
:1035D00080F27F8006F13F00FEF702FFB0F5007F2A
:1035E00077D106F14A00FEF7FBFE050004D106F193
:1035F0005800FEF7F8FE054606F14100F561C17876
:10360000B170012918BF022963D14D430078708140
:1036100001005ED0411E08425BD106F14500FEF775
:10362000DFFE0F210842308153D106F14700FEF73B
:10363000D7FE040004D106F15400FEF7D4FE044680
:1036400006F14200FEF7CCFE002842D031892A184C
:1036500002EB111294423CD3A31A7489B3FBF4F326
:10366000BBB303244FF6F67C634538BF022440F613
:10367000F67C634538BF0124C01970629B1CD019C9
:10368000032CB3613762F0620FD106F15E00FEF7E2
:10369000A7FE002804BF308900281AD106F1600077
:1036A000FEF7A1FEB16989000CE091B1706AB169C1
:1036B0002818022C0FBF490001EB410201F0010163
:1036C00001EB5201B06201F2FF11F069B0EB512F32
:1036D00001D20D2041E04FF0FF3070613061802059
:1036E000032C30712ED106F16400FEF779FE01281B
:1036F00028D1791C3046FEF74DFF18BB307106F219
:103700003220FEF76DFE4AF6552188421AD106F1A5
:103710003400FEF768FEBD49884213D14FF40670AD
:103720003044FEF760FEBA4988420BD14FF407706F
:103730003044FEF758FE70614FF408703044FEF7D5
:1037400052FE30613470B8F80000401CA8F8000048
:10375000F0803046FEF7EEFE002005B0BDE8F083B5
:1037600038B505001CBF286800280C460AD001782F
:1037700041B1C188AA88914204D1407800F016FC7A
:10378000C00703D500202060092032BD28682060D2
:10379000002032BD73B582B0144600916846FFF731
:1037A0005EFE002848BF0B201DD4974901EB800521
:1037B0006E6826B13046FEF7BDFE002030700298DC
:1037C00008B9686008E002990020087002986860F3
:1037D000029808B1012C01D0002004E0002202A9C7
:1037E00003A8FFF791FE04B070BD2DE9F243040079
:1037F00090B008BF092011D002F03F073A46694651
:1038000010A8FFF781FE060040F0F18000980190BB
:1038100000F0B5FB5FEA000808BF112000F0EC8063
:103820000098C0F80C8001A81099FFF7D7FD06009A
:103830000DD19DF83300000648BF062607D417F0C7
:10384000FE0118BF012101A8FEF7FAFD06461C2063
:10385000074200F09F80300000F09280042E4AD191
:1038600000206C4902018A5812B1401C0C28F9D37F
:103870000C2808BF122603D001A8FFF7B8FA0646A5
:10388000300047F0080735D1380739D500F0C8FBBC
:103890000546099829460E30FEF7B4FD09982946D9
:1038A0001630FEF7AFFD09992020C872DDF824908C
:1038B00000984946FFF7F9F8054600980022494666
:1038C000FFF706F9099800211C30FEF79BFD0099CF
:1038D0000120C87085B10098D0F8309000F056FBF8
:1038E000060007D100984946FEF754FE00990646A7
:1038F000681E0861300077D1380748BF47F040079D
:103900000098006B606217F0FE010998A06218BF72
:10391000012101A8FEF7BEFD206178B3099D009842
:103920002946FFF7C2F8A06005F11C00FEF75BFD19
:10393000E0604FF400720020E062002100982060F7
:103940000098C088A0802775002060752062A06163
:1039500004F13000FEF766FDB80645D5E768002F94
:1039600042D0A761009840894502A068BD421FD39C
:10397000E061F90538D000F045FA58BB022633E083
:103980009DF80A001121084210D178077FF57CAF1D
:10399000082629E03000ADD19DF80A00C10648BFD5
:1039A000042621D4B907A7D5C007A5D507261BE053
:1039B00000F0BAF8022801D2022609E010F1010F46
:1039C00003D101264FF0FF3002E07F1B3100CDD044
:1039D000E06109E000EB5722226201230098407861
:1039E00000F09EF800B10126404600F04FFD300087
:1039F0001CBF00202060304611B0BDE8F0830000FD
:103A000046415400464154335823002052526141EC
:103A100072724161EC2100202DE9F04704461D46F9
:103A200082B000F0ADF8010077D1607D010074D163
:103A3000207DC00758BF07206FD5E068A169401AF4
:103A4000B04213D8064611E0C4F820A000F088F870
:103A5000204488BF0F4600F130013A464046FEF749
:103A6000D9FCA0693818A06100F062F8002E53D08C
:103A7000A169C805EAD100F06DF811D109B9A068B3
:103A800008E0E06A18B12046FEF745FF02E0E16970
:103A900000F04BF8022807D310F1010F39D0E06194
:103AA000E16900F0B0F908B9022033E0770A09EBC8
:103AB000000A1BD000F048F838BFA0EB090700F05F
:103AC0003DF800F08BFA20BB207D00060CD5206A63
:103AD000A0EB0A00B84207D24FF4007204F13001A3
:103AE00008EB4020FEF796FC7F02BAE7226A5245B7
:103AF000AAD0207D000605D5009800F03BF840B91B
:103B000000F082F801230098407800F008F80028BF
:103B10009AD00120607500E00020BDE8F68752468B
:103B200004F1300100F05ABA01462046FEF7A2BD6A
:103B3000B844286838182860F61B70470098407809
:103B40003B465246414670470098408907EB0901C1
:103B50008842704700984089401E10EA51297047FA
:103B6000A069C0F30800C0F5007137468E42704767
:103B70000098226A4078012304F1300100F034BA41
:103B8000002028608846164669462046E8E570B55C
:103B900082B000F09DF9010035D1217D4A0632D571
:103BA000080606D5FFF7E4FF08B1012076BD00F056
:103BB0002BF800F035FA0546616A00F0F4F90100CF
:103BC00021D1A66AF07A40F02000F0723146A26856
:103BD0002068FEF77DFFE16806F11C00FEF712FC8D
:103BE000294606F11600FEF70DFC002106F1120031
:103BF000FEF704FC00990120C87000F0CCF9217D8B
:103C000001F0BF01217576BD207D00F07F00207599
:103C1000704710B582B00446FFF7B9FF01000CD120
:103C200069462046FFF79CFD010006D12069FEF79A
:103C300067FC010004BF0021216016BD2DE9F84F8B
:103C40000F4600F045F95FEA000808BF94F81580B8
:103C50005FEA080032D1E66A002E5CD017F1010F4E
:103C60002DD156F8047BA0684FF00209E8B1054653
:103C70004FF0000A09F102098346FFF755FF0228B9
:103C80000AF1010AC0F0998010F1010F6BD00BF11D
:103C900001018842F0D04F4503D3C6F800A07560FB
:103CA0000836009989698842E1D3E06AC0F800903B
:103CB0004F4532BF4FF01108002030609FE0E068B0
:103CC000B84298BF0746002FA761F7D07F1E39463C
:103CD0002046FEF720FEE06100F094F806006CD06C
:103CE00000984089401E00EA57208619A069C00547
:103CF0001CBF226A9642E1D0207D000606D50098BE
:103D0000FFF738FF002876D1FFF77EFF00F07EF83E
:103D1000002870D172E0E068B84203D2217D8907A3
:103D200058BF0746A0690021002FA16149D0009922
:103D300049894D0268B1401E7A1EB0FBF5F1B2FB15
:103D4000F5F28A4205D3691E8843E169A0613F1AF2
:103D50000CE0A16849B92046FEF789FD014601291A
:103D60002BD011F1010F46D0A160E16169B928E0C3
:103D7000FEF780FC014611F1010F3CD002291CD353
:103D800000988069814218D2E161BD420CD2A069DD
:103D90002818A0617F1B207D80072046E8D5FEF70C
:103DA00066FD0100E7D10027A0693818A061F80579
:103DB00007D000F028F8060001D102201CE000EB3B
:103DC0005726A069E168814204D2217DE06041F07C
:103DD00040012175C0051CBF226A96420FD0207D8C
:103DE000000605D50098FFF7C5FE20B9FFF70CFFC8
:103DF00000F00CF810B10120607501E02662404629
:103E0000BDE8F28F01460098FEF728BC0123009818
:103E10004078324604F1300100F0E0B873B5040098
:103E200001D1092076BD0022694601A8FFF76CFB8D
:103E3000060037D10098206000F0A1F8050001D1FC
:103E4000112076BD0098C56020460199FFF7C6FA9B
:103E5000060020D194F82F00000607D4A079C006F0
:103E600016D5216A0098FEF720FEA0600021009878
:103E7000C088A080FFF7F0FA06000CD1A06848B116
:103E800000212046FEF706FB206120B9122602E041
:103E9000052600E02061284600F0F8FA042E08BF4D
:103EA000052601D0300001D000202060304676BDCC
:103EB00010B582B000F00CF8010008D1216921B1E1
:103EC0000846FEF71DFB010001D10021216016BD4F
:103ED00004466946FFF744BCF8B50D46FFF7F8FF06
:103EE000060024D11DB9FFF7B6FA06461FE000F020
:103EF00046F8070001D11120F2BD0098C7600021EB
:103F00002046FEF746FE0646042E01D030000BD1B7
:103F100029462046FFF766F800212046FEF752FDAD
:103F20000646042E08BF0026384600F0AFFA304699
:103F3000F2BD70B504460D4629462046FFF7CCFF7A
:103F400006000BD155B1A87D40B1606B0023002263
:103F500005F11601FFF7C6F80028EDD0304670BD18
:103F600038B504460D4663631146FFF757FF01005D
:103F700004D129462046BDE83440DAE732BD4FF48B
:103F8000007000F081BA07B0BDE8F08F002229462A
:103F900001A8FEF735BC0098FEF716BB012000997A
:103FA000C8707047E9690098FEF7F4BA01461B4AE9
:103FB000501802EB81014968007B49680847174A9D
:103FC00001460020535C43B901205054501802EBC5
:103FD00081014968007B09680847704738B500F0DF
:103FE00009F8A468A04732BD38B500F003F8E468CA
:103FF000A04732BD0446094D281905EB84046468C6
:10400000007B704710B50346044CE01804EB8303B3
:104010005B68007B1B69BDE81040184748230020FF
:1040200000207047802800DA704710B50FF2A8030F
:1040300049B1FF2801DD002010BD03EB4000A0F5D1
:104040008070008810BD33F81140A04203D0491C95
:1040500089B28029F7DB01F1800000F0FF0010BD7C
:1040600070B5B0F5805FACBF0FF260320FF268122E
:1040700002E00BB902EB4402158855B3A84228DBD5
:104080005488230204F0FF04121D1B0C6619B04271
:10409000EFDA082B1DD8DFE803F005090E10121423
:1040A00016181A00401B32F8100012E0411B01F0F4
:1040B0000101401A0DE010380BE0203809E03038DB
:1040C00007E01A3805E0083003E0503801E0A0F5B9
:1040D000E35080B270BD0000C700FC00E900E200C0
:1040E000E400E000E500E700EA00EB00E800EF0094
:1040F000EE00EC00C400C500C900E600C600F400F4
:10410000F600F200FB00F900FF00D600DC00F8002A
:10411000A300D800D7009201E100ED00F300FA00FF
:10412000F100D100AA00BA00BF00AE00AC00BD0093
:10413000BC00A100AB00BB00912592259325022570
:104140002425C100C200C000A900632551255725C0
:104150005D25A200A5001025142534252C251C253D
:1041600000253C25E300C3005A2554256925662512
:10417000602550256C25A400F000D000CA00CB00BB
:10418000C8003101CD00CE00CF0018250C258825B0
:104190008425A600CC008025D300DF00D400D20007
:1041A000F500D500B500FE00DE00DA00DB00D90026
:1041B000FD00DD00AF00B400AD00B1001720BE006F
:1041C000B600A700F700B800B000A800B700B9001B
:1041D000B300B200A025A00061001A03E00017039D
:1041E000F8000703FF0001007801000130013201EF
:1041F0000601390110014A012E01790106018001F1
:104200004D00430281018201820184018401860103
:104210008701870189018A018B018B018D018E0144
:104220008F0190019101910193019401F601960192
:104230009701980198013D029B019C019D0120027C
:104240009F01A001A001A201A201A401A401A60155
:10425000A701A701A901AA01AB01AC01AC01AE0104
:10426000AF01AF01B101B201B301B301B501B501B5
:10427000B701B801B801BA01BB01BC01BC01BE0164
:10428000F701C001C101C201C301C401C501C401DC
:10429000C701C801C701CA01CB01CA01CD01100184
:1042A000DD0101008E01DE011201F3010300F101C5
:1042B000F401F401F8012801220212013A02090076
:1042C000652C3B023B023D02662C3F02400241024C
:1042D000410246020A015302400081018601550253
:1042E00089018A0158028F015A0290015C025D0225
:1042F0005E025F0293016102620294016402650240
:1043000066026702970196016A02622C6C026D02D6
:104310006E029C01700271029D01730274029F0182
:1043200076027702780279027A027B027C02642CA0
:104330007E027F02A60181028202A9018402850217
:1043400086028702AE014402B101B20145028D022C
:104350008E028F0290029102B7017B030300FD03DE
:10436000FE03FF03AC0304008603880389038A036A
:10437000B1031103C2030200A303A303C403080390
:10438000CC0303008C038E038F03D8031801F203C0
:104390000A00F903F303F403F503F603F703F70345
:1043A000F903FA03FA0330042003500410076004F1
:1043B00022018A043601C1040E01CF040100C004A9
:1043C000D004440161052604000000007D1D0100A9
:1043D000632C001E9601A01E5A01001F0806101F24
:1043E0000606201F0806301F0806401F0606511F3C
:1043F0000700591F521F5B1F541F5D1F561F5F1F71
:10440000601F0806701F0E00BA1FBB1FC81FC91F00
:10441000CA1FCB1FDA1FDB1FF81FF91FEA1FEB1F94
:10442000FA1FFB1F801F0806901F0806A01F080622
:10443000B01F0400B81FB91FB21FBC1FCC1F010062
:10444000C31FD01F0206E01F0206E51F0100EC1F7C
:10445000F21F0100FC1F4E210100322170211002C9
:10446000842101008321D0241A05302C2F04602CD4
:104470000201672C0601752C0201802C6401002DBD
:10448000260841FF1A03000000F090BE00F0E9BFCB
:104490004FF4E07210440268914203D343681A4417
:1044A000914202D380680028F5D17047DFF85C079D
:1044B000016891B94FF4803181604FF480514160BF
:1044C0004FF0FF31C16001610421DFF844274161F1
:1044D000C2F8BC11DFF83C1701600120704701F100
:1044E000080313F0070305D001F10803C3F1080323
:1044F00003F007031944D21A8161C26042F001033C
:104500004B60114428234B60DFF800170969C16133
:1045100070472DE9F84F064601F1080010F007003A
:1045200008BF884607D001F10800C0F1080000F07C
:10453000070001EB000802F1080010F0070006D0A8
:1045400002F10800C0F1080000F00700024415461F
:10455000A5EB0800A0EB030908EB030B43F00300F5
:10456000C8F80400AB4528BF01F00CFA2879C00751
:1045700058BF01F007FAB9F1100F38BF01F002FA85
:10458000B069854209D1F0684844F060C6F818B0B7
:1045900040F00100CBF8040070E1706985420BD156
:1045A000B0684844B060C6F814B040F00101CBF8E0
:1045B00004104BF8000061E1686800F00301012974
:1045C00040F0AF80C008C0000190C00820283BD256
:1045D000D5F808A0EF680090BD4208BF01F0D2F9FD
:1045E000554508BF01F0CEF968680099C008C000C1
:1045F000B0EBC10F18BF01F0C5F9009806EBC00081
:1046000000F128018A4508D031698A45C0F08480CC
:10461000DAF80C10A94240F07F80574506D1009A85
:104620003068012191408843306077E0283087422C
:1046300005D0306987426FD3B868A8426CD1CAF8F8
:104640000C70C7F808A069E0EF68D5F818A0AF4271
:104650000CD0A8683169884223D3C168A94204BF3D
:10466000B968A9421DD1C760B8601CE005F114000B
:10467000076837B905F110000768A7B101E00846DF
:10468000076807F114010A68002A02BF07F1100148
:104690000A68002AF3D13169884202D300210160FF
:1046A00001E001F06FF9BAF1000F37D0E86906EBCD
:1046B00080004FF49871084401688D4208D107606A
:1046C000A7B9EA697068012191408843706025E0CC
:1046D0003069824508D3DAF81000A84214BFCAF83E
:1046E0001470CAF8107001E001F04CF9B7B13069EC
:1046F000874211D3C7F818A0296929B1814226BF82
:1047000039618F6101F03EF9686938B131698842D9
:1047100002D37861876101E001F034F90198054422
:10472000814468684008400068604FEAD90549F054
:104730000100CBF804004BF80990202D23D206EBA2
:10474000C50000F12807BA46B9F1100F38BF01F0D3
:1047500019F9306820FA05F1C90704D40121A940EC
:104760000843306006E0B868316988422CBF824651
:1047700001F008F9C7F808B0CAF80CB0CBF808A0E7
:10478000CBF80C707AE05FEA192108BF002023D033
:10479000B1F5803F28BF1F201ED2A1F58070000C0C
:1047A00000F008008140A1F58052120C02F00402D2
:1047B0009140A1F580431B0CC0F10E0003F00203F1
:1047C000801AC01A994000EBD130C11D29FA01F2BC
:1047D00002F0010101EB400006EB80014FF49872FA
:1047E0001144CBF81C000022CBF81420CBF8102089
:1047F000726822FA00F3DB0707D4012303FA00F002
:1048000010437060C1F800B01DE009681F281DBF8B
:104810004008C0F1190009FA00F0484600E01146CE
:104820004A68D208D2004A4514D0C20F01EB820276
:1048300002F1100340001A68002AF0D13069834267
:104840001AD3C3F800B0CBF81810CBF80CB0CBF8E3
:1048500008B013E032698868914228BF90420BD3B8
:10486000C0F80CB0C1F808B0CBF80800CBF80C10B9
:104870000020CBF8180001E001F084F808F10800EE
:10488000BDE8E68F2DE9FA4D0546DFF880030068A4
:1048900082B008B9FFF70AFEDFF87003029980685A
:1048A00041182F31401E21EA00000299814280F018
:1048B000A9814FF4D8716E18B16839B13268801887
:1048C000824280F09F818142C0F09C8101F062F8B9
:1048D00000281EBF0446D0F8008014F1010F00F03C
:1048E00091813068716840448142306038BF014630
:1048F0007160A86980BB286908B1844200D22C612C
:104900000020F0613461C6F8148005F12801BF4829
:10491000006868624FF0FF3028620020C96089603B
:1049200001F108024A610A61801C10312028F5D388
:10493000B748854203D1A8F1280221462AE055F85C
:10494000040CC00805EBC000A0F1080104EB08004E
:10495000401AA0F128021DE04FF4E0702918084623
:1049600000E08068D0B1026843681A449442F8D1EC
:10497000027B120712D4AA6903689A420ED34768D1
:104980003B449A420AD208EB07014160E868A969F2
:1049900008EB00022846FFF7A2FD1DE128698442CA
:1049A000084638BF2C6104EB080100E0806880B144
:1049B00002688A42FAD1017B09070AD4046041687F
:1049C000414441602146029B284604B0BDE8F04DB9
:1049D0009FE5AF6939462846FFF75AFD4FF0000BB7
:1049E0000168406808440190273810F007010199D8
:1049F0000EBF0020C0F1080000F0070008442F3867
:104A000007F11001884234BF00970090009804F12C
:104A1000080100F1180A11F00701A8F1280005D0DB
:104A200004F10801C1F1080101F00701401A214415
:104A3000A961E86040F001024A600844282242600F
:104A400072480069E8610098083010F0070018BF4C
:104A500000F098FF00991B2048604FF4E071294452
:104A6000B1E80C5000980830A0E80C503461C6F84A
:104A70001480C6F81CB000980830B061019801E0BD
:104A80000AF1040A0721CAF804100BF1010B0AF11C
:104A900008018142F4D3BBF1020FB8BF00F072FFEE
:104AA0000098B84200F09880C01B3918C4084A68C2
:104AB000520852004A6040F0010179603850202CC1
:104AC00020D205EBC40101F12806B046102838BFFA
:104AD00000F058FF286820FA04F1C90704D4012126
:104AE000A1400843286006E0B068296988422CBFCD
:104AF000804600F047FFB760C8F80C70C7F8088020
:104B0000FE6069E0010A23D0B1F5803F28BF1F2174
:104B10001ED2A1F58072120C02F008029140A1F59C
:104B200080531B0C03F004039940A1F58044240C2E
:104B3000C2F10E0204F00204D21A121BA14002EBD1
:104B4000D131CA1D20FA02F303F0010202EB410148
:104B500005EB81024FF498731A44F96100237B61DD
:104B60003B616B6823FA01F4E40705D40120884017
:104B70001843686017601CE012681F291DBF4908B0
:104B8000C1F1190100FA01F1014600E01A4653682B
:104B9000DB08DB00834210D0CB0F02EB830303F171
:104BA000100449002368002BF0D12869844211D3F6
:104BB0002760BA61FF60BF600EE0296990688A4291
:104BC00028BF884206D3C7609760B860FA600020AB
:104BD000B86101E000F0D6FEE8680299814211D286
:104BE000401AE860A969029A0A44AA6140F00100EB
:104BF0005060029840F00300486004B001F10800E2
:104C0000BDE8F08D002004B0BDE8F08D3023002019
:104C1000C41E00206859883C2DE9F84F0446002640
:104C200089465FEA1920C9F1000B08BF002123D093
:104C3000B0F5803F28BF1F211ED2A0F58071090C5E
:104C400001F008018840A0F58052120C02F0040225
:104C50009040A0F580431B0CC1F10E0103F002034C
:104C6000891AC91A984001EBD030C11D29FA01F206
:104C700002F0010101EB400104EB8100D0F83001AA
:104C800018B31F290FBF4A464A08C2F1190209FA90
:104C900002F2002300E052004568ED08ED00A5EBAC
:104CA00009055D4503D25FEA050B06460BD0456951
:104CB000D70F00EB8700002D00691CBF85422B46F3
:104CC0000028E8D11846B8BBC6BB01208840400088
:104CD000414208436168084000F05D81414208405C
:104CE000401E010B01F01001C840420902F0080209
:104CF000D040830803F00403D840450805F00205BE
:104D00005118E8405918C0F3400729443944F84085
:104D1000401804EB8000D0F830010DE008464168EF
:104D2000C908C900A1EB090159453CBF8B4606469D
:104D300001690029F2D140690028F0D1002E00F06D
:104D40002A81A068A0EB0900834580F024812069B6
:104D50008642C0F01E817068C00809EB0B08C000D5
:104D6000404518BF00F00EFE06EB0905AE4280F08C
:104D70001081F768D6F818A0B7420CD0B068216946
:104D8000884223D3C168B14204BFB968B1421DD182
:104D9000C760B8601CE006F11400076837B906F177
:104DA00010000768A7B101E00846076807F1140181
:104DB0000A68002A02BF07F110010A68002AF3D12D
:104DC0002169884202D30021016001E000F0DAFD90
:104DD000BAF1000F39D0F06904EB80004FF49871FC
:104DE000084401688E4209D10760380014D1F26985
:104DF0006068012191408843606026E02069824517
:104E000008D3DAF81000B04214BFCAF81470CAF818
:104E1000107001E000F0B6FDBFB12069874212D3E7
:104E2000C7F818A0306930B12169884226BF3861BF
:104E3000876100F0A7FD706938B12169884202D30B
:104E40007861876101E000F09DFDBBF1100F09D290
:104E500048F00300706006EB0800416841F0010172
:104E6000416095E049F0030070604BF0010068601C
:104E70004FEADB0045F80BB020281DD204EBC0013F
:104E800001F12807216821FA00F2D207BB4605D4B8
:104E9000012202FA00F00843206006E0B8682169A8
:104EA00088422CBF834600F06DFDBD60CBF80C50EE
:104EB000C5F808B0EF606BE05FEA1B2023D0B0F5C7
:104EC000803F28BF1F201ED2A0F58071090C01F081
:104ED00008018840A0F58052120C02F004029040B4
:104EE000A0F580431B0CC1F10E0103F00203891AE7
:104EF000C91A984001EBD030C11D2BFA01F202F023
:104F0000010101EB400004EB80014FF49872114461
:104F1000E86100226A612A61626822FA00F3DB0715
:104F200006D4012303FA00F0104360600D601CE01A
:104F300009681F281DBF4008C0F119000BFA00F0D6
:104F4000584600E011464A68D208D2005A4510D0AF
:104F5000C20F01EB820202F1100340001A68002A1E
:104F6000F0D12069834211D31D60A961ED60AD606D
:104F70000EE022698868914228BF904206D3C5603E
:104F80008D60A860E9600020A86101E000F0FAFCF3
:104F900008E100F0F7FC02E12DE9F84F04468846ED
:104FA000606841420840401E010B01F01001C840FA
:104FB000420902F00802D040830803F00403D840FD
:104FC000450805F002055118E8405918C0F340069D
:104FD00029447118F040401804EB8000D0F83001EB
:104FE0004168C908C9000646A1EB080A09E008465D
:104FF0004168C908C900A1EB080151453CBF8A4678
:10500000064601690029F2D140690028F0D12069E3
:105010008642C0F0C2807068C00808EB0A09C00070
:10502000484518BF00F0AEFC06EB080B5E4580F06B
:10503000B480F768B569B7420CD0B068216988427E
:1050400023D3C168B14204BFB968B1421DD1C76062
:10505000B8601CE006F11400076837B906F11000CB
:105060000768A7B101E00846076807F114010A685C
:10507000002A02BF07F110010A68002AF3D1216952
:10508000884202D30021016001E000F07BFC002D8A
:1050900035D0F06904EB80004FF498710844016842
:1050A0008E4209D10760380011D1F2696068012190
:1050B00091408843606022E02069854205D32869D9
:1050C000B04214BF6F612F6101E000F05BFCB7B12B
:1050D0002069874211D3BD61306930B121698842AE
:1050E00026BF3861876100F04DFC706938B12169D5
:1050F000884202D37861876101E000F043FCBAF195
:10510000100F09D249F00300706006EB09004168F6
:1051100041F0010141603FE048F0030070604AF057
:105120000100CBF804004BF80AA0D4F808804FEA3D
:10513000D805202D28BF00F025FCB8F1000F27D09E
:10514000D4F81490009504EBC50000F128052F4613
:10515000B8F1100F38BF00F015FC2068009920FA54
:1051600001F2D10705D4009A012191400843206043
:1051700006E0A868216988422CBF074600F002FCBF
:10518000C5F80890C7F80C90C9F80870C9F80C5019
:10519000C4F808A0C4F814B004E000F0F3FB002049
:1051A000BDE8F28F06F10800BDE8F28F2DE9F04F5F
:1051B00083B00546AFF30080F52DDFF8C04780F0DF
:1051C00002810B2D31BF102705F10B00C708FF002E
:1051D0002068FE08F04010F0030F42D0C04300F0FA
:1051E0000100861904EBC60000F12808F700D8F882
:1051F00008506868C008C000B84218BF00F0C2FB81
:10520000D5F80890454508BF00F0BCFB4D4508BFE8
:1052100000F0B8FB6868C008C000B84218BF00F0D2
:10522000B1FBC84505D120680121B1408843206009
:105230000DE02069814508D3D9F80C00A84204D1BB
:10524000C8F80890C9F80C8001E000F09BFB47F01B
:1052500003006860E8190835416841F001014160C8
:10526000F9E0A168B94280F0C080002800F0A28077
:10527000012505FA06F149004A42B04011430840B1
:1052800041420840401E010B01F01001C840420994
:1052900002F00802D040830803F00403D840460817
:1052A00006F002065118F0405918C0F34008711872
:1052B000414420FA08F000EB010804EBC80000F1BB
:1052C00028094FEAC80AD9F808607068C008C00009
:1052D000504518BF00F056FBD6F808B04E4508BF41
:1052E00000F050FB5E4508BF00F04CFB7068C00842
:1052F000C000504518BF00F045FBD94505D12068D6
:1053000005FA08F1884320600DE02069834508D341
:10531000DBF80C00B04204D1C9F808B0CBF80C900F
:1053200001E000F02FFB47F003007060AAEB0708D4
:10533000F019019048F0010001994860019840F887
:105340000880A7684FEAD70ABAF1200F28BF00F0FB
:1053500019FB47B3CDF800A004EBCA00D4F81490B1
:1053600000F1280AD346102F38BF00F00BFB20684D
:10537000009920FA01F2D10705D4009905FA01F14C
:105380000843206007E0DAF80800216988422CBF52
:10539000834600F0F7FACAF80890CBF80C90C9F8E9
:1053A00008B0C9F80CA0C4F8088006F108050198F7
:1053B000606150E06068C0B339462046FFF7ECFDFD
:1053C000050012D047E015F1400F28BF4FF0FF371E
:1053D0000BD205F10B00C7086068FF0028B1394601
:1053E0002046FFF719FC050035D1A068B8421CD350
:1053F000C11B626910290AD3D0196061A16041F014
:1054000001034360415047F0030050600AE000216F
:10541000A160616140F0030151601044416841F0B6
:105420000101416002F1080515E0E06887420DD2F4
:10543000C01BA169E060CA19A26140F00100506080
:1054400001F1080547F00300486004E039462046B2
:10545000FFF718FA0546AFF30080284603B0BDE811
:10546000F08F00B970472DE9F047A0F10804AFF3C1
:105470000080DFF8085528698442C0F079826168AD
:1054800001F00302012A00F07382CA084FEAC20841
:10549000CA0704EB080937D4226811F0030F00F0A3
:1054A000698251420C4484429044C0F0618269692F
:1054B0008C4200F0D980D608202E70D2D4F80CA0EF
:1054C000A768544508BF00F05DFABC4208BF00F071
:1054D00059FA6068C008C000B0EBC60F18BF00F0F2
:1054E00051FA05EBC60000F128018F4205D0296969
:1054F0008F4251D3F968A1424ED1BA453DD12868B7
:105500000121B140884328604C4580F03182D9F8B0
:105510000400C10740F12C82810700F17D81A96957
:10552000894540F0B680E868AC614044E86040F0EE
:105530000101616069698C4202D100216961A96041
:10554000E969814280F01682DFF83404006808B906
:10555000FEF7ACFFA969002900F00C82E868292851
:1055600024BF2846FEF794FFE869E968884280F086
:1055700001824FF0FF30E861FCE12830824506D01F
:105580002869824508D3DAF80800A04204D1C7F898
:105590000CA0CAF80870B7E700F0F4F9B4E7E768C0
:1055A000A669A7420BD0A168814222D3C868A04255
:1055B00004BFB868A0421CD1CF60B9601BE004F101
:1055C00014010F6837B904F110010F689FB101E0B1
:1055D00011460F6807F114021368002B02BF07F190
:1055E00010021368002BF3D1814202D3002008601F
:1055F00001E000F0C7F9002E86D0E06905EB8000DD
:105600004FF49871084401688C4209D10760380052
:1056100011D1E2696868012191408843686073E7AD
:105620002869864205D33069A04214BF776137618B
:1056300001E000F0A7F9002F3FF466AF2869874228
:10564000AAD3BE61216929B1814226BF39618F6128
:1056500000F098F9606900283FF456AF2969884244
:105660009AD3786187614FE799F8040000F003004E
:1056700003287FF449AFC5F80880D9F80400400832
:105680004000C9F8040048F00100606044F8088058
:1056900070E16969894508D1A8686C614044A860D7
:1056A00040F001016160205064E1C008C0004FEA91
:1056B000D00ABAF1200F804437D2D9F80C70D9F84B
:1056C0000860B94508BF00F05DF9B14508BF00F0BA
:1056D00059F9D9F80400C008C000B0EBCA0F18BFD0
:1056E00000F050F905EBCA0000F128018E4207D006
:1056F00029698E42C0F08380F168494540F07F807F
:10570000B74206D12868012101FA0AF188432860CE
:1057100077E02830874205D0286987426FD3B86880
:1057200048456CD1F760BE606BE0D9F80C70D9F8D1
:1057300018604F450DD0D9F808002969884223D355
:10574000C168494504BFB96849451DD1C760B86003
:105750001CE009F11400076837B909F11000076867
:10576000A7B101E00846076807F114010A68002A9A
:1057700002BF07F110010A68002AF3D129698842A3
:1057800002D30021016001E000F0FCF8002E38D0C7
:10579000D9F81C0005EB80004FF4987108440168AB
:1057A00089450AD10760380012D1D9F81C206868F1
:1057B000012191408843686023E02869864205D32F
:1057C0003069484514BF7761376101E000F0DAF8CD
:1057D000BFB12869874212D3BE61D9F8101029B130
:1057E000814226BF39618F6100F0CCF8D9F81400EE
:1057F00038B12969884202D37861876101E000F0FD
:10580000C1F848F00100606044F80880686984428B
:105810000BD1C5F80880ADE040084000C9F804008D
:1058200048F00100606044F808804FEAD807202F54
:1058300022D205EBC70000F128094E46B8F1100F3F
:1058400038BF00F09FF8286820FA07F1C90704D490
:105850000121B9400843286007E0D9F80800296908
:1058600088422CBF064600F08DF8C9F80840F46065
:10587000A660C4F80C907DE05FEA182008BF002104
:1058800023D0B0F5803F28BF1F211ED2A0F5807124
:10589000090C01F008018840A0F58052120C02F0BA
:1058A00004029040A0F580431B0CC1F10E0103F0EF
:1058B0000203891AC91A984001EBD030C11D28FA99
:1058C00001F202F0010101EB400105EB81004FF410
:1058D00098721044002262612261E1616A6822FAD2
:1058E00001F3DB0706D4012303FA01F111436960D8
:1058F00004601CE000681F291DBF4908C1F119019F
:1059000008FA01F1414600E010464268D208D20090
:10591000424510D0CA0F00EB820202F11003490089
:105920001A68002AF0D129698B4211D31C60A0614A
:10593000E460A4600EE02A698168904228BF914229
:1059400006D3CC608460E060A1600020A06101E02B
:1059500000F018F8286A401E28620BD1D5F8C8015B
:1059600000E080680028FCD14FF0FF30286201E0A1
:1059700000F008F8AFF30080BDE8F087C41E0020F7
:1059800030230020012000F01BB80268531C036084
:10599000117070470749086808B100207047064831
:1059A000C008C00008600549C908C900091A01609B
:1059B000704700BF68230020BF090020B8110020F5
:1059C00080B5AFF30080024A11001820ABBEFBE7A0
:1059D000260002002DE9F04F80460FF2A47095B02A
:1059E00015461E46D0E90023CDE9132303AF00205E
:1059F0000391B8610DF1340900E02D190020ADF8D4
:105A0000020013AB4FF0FF3229460DF1020000F007
:105A1000C3FB0446012C04DA2878441EA441E44365
:105A2000E40FBDF8020025280CBFA4F1010BA3462A
:105A3000BBF1010F0EDBAA461AF8011B0398C04701
:105A40000028039000F0DA80B869401CBBF1010B1C
:105A5000B861F1D1BDF80200252804D10020F8601A
:105A60003861786105E00028C7D1B86906E340F0E5
:105A7000010015F8011F2029F9D023290DD02B2969
:105A800004D02D2906D030290AD00CE040F00200C5
:105A900080B2EEE740F00400FAE740F00800F7E7D4
:105AA00040F01000F4E72A290ED13168316051F836
:105AB000042B3160002A3A6204D5514240F00400C0
:105AC000396280B26D1C13E0002139620BE0396A43
:105AD0006FF00043994205D001EB810302EB4301D3
