:020000040800F2
:10000000880400207D1E0008191E00081B1E000821
:100010001D1E00081F1E0008211E00080000000011
:10002000000000000000000000000000231E000887
:10003000251E000800000000271E0008291E0008D9
:10004000991E00089D1E0008A11E00082D1E000814
:10005000A51E0008A91E0008AD1E0008B11E00085C
:10006000B51E0008B91E0008BD1E0008C11E00080C
:10007000C51E0008C91E0008CD1E0008D11E0008BC
:10008000D51E0008D91E0008DD1E0008E11E00086C
:10009000E51E0008E91E0008ED1E0008F11E00081C
:1000A000F51E0008F91E0008FD1E0008011F0008CB
:1000B000051F00080000000000000000091F0008E4
:1000C0000D1F00080000000000000000111F0008C4
:1000D00000000000151F0008191F000800000000A4
:1000E0001D1F0008211F0008000000000000000084
:1000F0000000000000000000000000000000000000
:10010000000000000000000000000000251F0008A3
:100110000000000000000000291F00082D1F00083B
:10012000311F0008351F0008391F00083D1F000857
:10013000411F000800000000000000000000000057
:10014000451F0008491F00084D1F0008511F0008E7
:10015000551F0008591F00085D1F0008611F000897
:10016000651F0008691F00086D1F000800000000DF
:10017000711F0008751F000800000000000000004B
:10018000791F00087D1F0008811F00082DE9F84332
:100190000446DFF878562078DFF86866C00626D572
:1001A000B06810F00C0F3AD13068800702D5A06912
:1001B000002832D0306800074EBF306868680009F8
:1001C00000F0F001206A814206D200F0DFFA002838
:1001D00023D100F0CCF905E000F0C9F9206A00F065
:1001E000D5FAD0B900F07BFAB26800F064FA207852
:1001F000C00767D500F0B7F9082808D000F0B3F9B8
:100200000C2802BFF06800F0030003282AD13068F0
:10021000800357D56068002854D101209EE1A06971
:100220000028306810D040F0010000F099F907462E
:100230003068800705D400F020FBC01B0328F7D3EB
:1002400089E100F094F9D2E74008400000F088F915
:10025000074630688007CAD500F00FFBC01B032893
:10026000F7D378E16068B0F5803F06D0B0F5A02FF5
:10027000306806D140F480203060306840F480302F
:1002800005E020F480303060306820F48020306059
:10029000606858B100F0F1FA07463068800311D465
:1002A00000F0EBFAC01B6528F7D354E100F0E5FA43
:1002B00007463068800305D500F0DFFAC01B6528CB
:1002C000F7D348E12078800719D500F04CF90428CD
:1002D00008D000F048F90C2802BFF06800F00300D5
:1002E000022822D13068400502D5E068002894D069
:1002F0007068216920F0F85040EA01607060207851
:10030000000741D56069002868682ED040F00100E0
:10031000686000F0B2FA07466868800734D400F0DD
:10032000ACFAC01B0328F7D315E1E0680028306859
:100330000DD040F4807000F013F907463068400596
:10034000D6D400F09AFAC01B0328F7D303E120F4B7
:10035000807000F005F9074630684005CFD500F001
:100360008CFAC01B0328F7D3F5E040084000686012
:1003700000F083FA07466868800705D500F07DFA2B
:10038000C01B0328F7D3E6E02078400760D5B06DA6
:10039000C0004FF000080AD4B06D40F08050B06546
:1003A0004FF00108B06D00F0805000900098DFF829
:1003B0006094D9F80000C00512D4D9F8000040F4C8
:1003C0008070C9F8000000F058FA0746D9F800001C
:1003D000C00505D400F051FAC01B0328F6D3BAE0DB
:1003E000A068012805D00528286806D140F004003F
:1003F0002860286840F0010006E0400840002860BE
:100400006FF0040128680840286041F28939A0682B
:1004100058B100F032FA07462868800711D400F07E
:100420002CFAC01B4845F7D395E000F026FA0746A2
:100430002868800705D500F020FAC01B4845F7D38F
:1004400089E0B8F1000F03D0B06D20F08050B065A6
:100450002078800621D5606A0028A8680ED040F078
:100460000100A86000F009FA0746A868800714D4C4
:1004700000F003FAC01B0328F7D36CE040084000EB
:10048000A86000F0FAF90746A868800705D500F0D3
:10049000F4F9C01B0328F7D35DE0A06A00285CD004
:1004A000B16801F00C010C293FF4B7AE02283068A6
:1004B00020F08070306037D100F0DFF907463068F7
:1004C000800105D500F0D9F9C01B0328F7D342E01D
:1004D000206B616B401E090241EA0010E16A08438B
:1004E000E16B891E0905490D40EA4150216C891EC6
:1004F000090601F07E410843A16B40EAC160F0604B
:10050000306840F080703060F06840F08070F060DB
:1005100000F0B3F90746306880011ED400F0ADF951
:10052000C01B0328F7D316E03068000103D4F0683D
:1005300080088000F060F068DFF8D8120840F060B2
:1005400000F09BF907463068800106D500F095F968
:10055000C01B0328F7D3032000E00020BDE8F2838E
:10056000306000F08AB9B06800F00C007047306865
:1005700040F0080030606FF0F00130680840216AF8
:10058000084330607068E16920F47F4040EA012050
:10059000706070472DE9F843DFF87C6204463068EC
:1005A000884600F00700404502D200F08EF865D181
:1005B0002078DFF85072800706D5B8686FF0F00138
:1005C0000840A1680843B8602078C0074ED560682D
:1005D000022802D13968890308E0032802D139686A
:1005E000890103E00028396802D1890702D445E077
:1005F000490543D5B968890840EA8100B86041F2ED
:10060000893900F03AF90546606802280AD1B868CD
:1006100000F00C00082829D000F02FF9401B4845B5
:10062000F5D321E003280AD1B86800F00C000C28AB
:100630001CD000F022F9401B4845F5D314E048B91E
:10064000B86810F00C0F11D000F017F9401B4845A6
:10065000F6D309E0B86800F00C00042806D000F0DA
:100660000CF9401B4845F5D3032022E0306800F028
:100670000700804504D200F028F801D0012018E0DE
:100680002078400705D5B868E16820F4E0600843A9
:10069000B8602078000706D5B868216920F460505A
:1006A00040EAC100B86000F01AF8BA6800F003F838
:1006B0000020BDE8F2835949C2F30312895CC840A7
:1006C000514908600F2000F0C1B83068C00848EAFE
:1006D000C0003060306800F007004045704749496D
:1006E0008B680022002013F00C0F09D08B6803F0F8
:1006F0000C030C2B02BFCB6803F00303012B13D1B7
:100700000A68120704D4464A1268C2F3032202E0C0
:100710000A68C2F30312434B53F822208B6813F08C
:100720000C0F0ED110460CE08B6803F00C03042B69
:1007300008BF3D4805D08B6803F00C03082B08BFA9
:100740003A488B6803F00C030C2B1ED1C868CB68A9
:10075000C3F302135B1C00F00300022802D003283D
:1007600002D005E0304800E03048B0FBF3F001E093
:10077000B2FBF3F0CA68C968C1F34161C2F3062253
:10078000491C50434900B0FBF1F0704770B5284E4A
:1007900082B0054630680024C00002D500F090F811
:1007A0000EE0306840F080503060306800F08050DB
:1007B0000090009800F084F8316821F08051316099
:1007C000B0F5007F04D1812D0DD3A12D0AD305E012
:1007D000812D28BF032406D2802D01D1022402E0FE
:1007E000702D00D101240C480168C90844EAC101F8
:1007F0000160006800F00700A04214BF0120002043
:1008000076BD00000010024054000020901002400D
:1008100000700040FFFFEEFE00200240441D000873
:1008200094100240541D00080024F40000127A00C5
:100830005810024080B5032000F0D7F80F2000F0D8
:1008400005F800F002F8002002BD704710B504461C
:10085000184800684FF47A71B0FBF1F000F0F9F835
:10086000002221464FF0FF3000F0CCF8002010BDF0
:1008700011480168491C016070470F4800687047C3
:1008800038B50446FFF7F9FF0546FFF7F6FF401BB2
:10089000A042FAD331BD094806E00848FFE70168E5
:1008A00041F002010160704701686FF002021140DF
:1008B00001607047540000208000002010E000E03C
:1008C000DFF8FC00006800F4C0607047DFF8F0104B
:1008D000B0F5007F086800F4C0601CD1B0F5007F5F
:1008E00022D00868DFF8DC2020F4C06040F40070FB
:1008F0000860DFF8D4000068B0FBF2F03222504309
:1009000000E0401E10B14A695205FAD4486940051A
:100910000AD503207047B0F5806F05D0086820F431
:10092000C06040F48060086000207047244801687F
:1009300041F48041016070472148224A016821F456
:100940008041016020490968B1FBF2F13222514334
:1009500000E0491E11B142699205FAD44069800550
:100960004CBF03200020704715490A68D208D20006
:1009700042F001020A60012814490A6842F00402A8
:100980000A600FBF30BF40BF20BF20BF08686FF0B4
:10099000040210400860704709490A68D208D20072
:1009A00042F002020A60012808490A6842F0040283
:1009B0000A600FBF30BF40BF20BF20BFE6E7000086
:1009C0000070004040420F005400002010ED00E095
:1009D0000901002806D5294A00F00F00104400F84C
:1009E000041C7047264A1154704726490A684FF67E
:1009F000FF0300021A4000F4E0601043224A104353
:100A00000860704738B51F4B1B68C3F30223C3F15E
:100A10000704052C28BF04241D1D072D34BF002307
:100A2000DB1E012505FA04F4641E2140994005FAF5
:100A300003F35B1E1A401143BDE83440C8E70121AF
:100A400000F01F029140114AFFE7400942F82010D0
:100A5000704710B5401EB0F1807F01D3012010BD5A
:100A60000B4C60600F214FF0FF30FFF7B1FF00200B
:100A7000A06007202060002010BD000018ED00E0FD
:100A800000E400E00CED00E00000FA0500E100E009
:100A900010E000E038B5040001D1012032BD04F1BE
:100AA0004005687818B92870204600F05DF800F01D
:100AB00053F86068216820F07060086120688168E0
:100AC00021F400418160E06821680128A0680CBF22
:100AD00040F4004040F404408860E068022803D1FC
:100AE00021684FF4006048602068416841F000715F
:100AF00041F4004141602068C16821F40041C160B7
:100B0000206961690843A16940EA01202168C86041
:100B1000E069216A0843216808602068016841F0A3
:100B2000010101600020686000F029F92063A870CD
:100B300032BD38B5040001D1012032BD04F14005B9
:100B400000F00AF8204600F010F800206860687095
:100B50002063A870287032BD242068702068016866
:100B60004908490001607047704770472DE9F04F10
:100B7000054605F1400783B000F082F85AD1DDF850
:100B800030B0BBF1000F4ED00D9C20004BD0387818
:100B900001284FD001203870FFF76FFE00F057F8A2
:100BA000002842D1212000F081F800F0ACF840B1DB
:100BB0007868042802D10020387034E000203870B2
:100BC00033E0688DFF284FF0FF0902D900F050F89C
:100BD00001E000F045F800F05EF832462146284674
:100BE00000F004F900281BD100F027F8288D401EE2
:100BF000288580B270B9688D60B100F050F8A0B956
:100C0000688DFF2802D900F033F801E000F028F8E1
:100C100000F041F8688D0028DFD100F037F830B1DE
:100C20007868042801D1012005E0032003E000F0EA
:100C30004EF800E00220BDE8FE8F686A411C696240
:100C4000296800788862688D401E6885704706466E
:100C50000096192301224FF40041284600F0A1B864
:100C60006A8D2A85002000904FF00073D2B2704741
:100C7000A5F82890002000904FF08073FF22704765
:100C800078782028884691469A4670473246214611
:100C9000284600F0C4B84146284600F022B9009624
:100CA000234600228021284600F07BB87870534606
:100CB0004020B8704A4600207860C5F824B06C85A2
:100CC000686341460E9C0196009428467047296847
:100CD000064A2020C86128684168114041602020F0
:100CE00078700020B87038707047000000E800FE8F
:100CF000204600F056B890F841007047294620463B
:100D000000F0EFB800002DE9F04182B000F022F8C9
:100D10004FF08073F2B2FFF7F2FF00F029F818B13C
:100D2000606C042813D10AE0012E0AD02168280A39
:100D3000886200F020F820B1606C042807D10120FF
:100D400006E000F00EF88021FFF7D2FF00B103208B
:100D5000BDE8F68104464FF40050009015461E464B
:100D600070472068EDB285620097434600227047C5
:100D7000DDF82080099F3A464146204636E0202093
:100D800068700020704700688169890744BF0021AE
:100D900081628169C90703D4816941F001018161E0
:100DA00070472DE9F041069E04460D4690461F46C9
:100DB000206880692840A8420CBF012000204045DF
:100DC00011D117F1010FF3D027B1FFF756FD801BAA
:100DD0008742EDD204F14000202141700021817052
:100DE0000170032000E00020BDE8F08170B50446EA
:100DF0000D4616462068806980070ED400F025F85D
:100E000008B1012070BD15F1010FF3D025B1FFF736
:100E100034FD801B8542EDD21BE0002070BD70B513
:100E200004460D4616462068806980060BD400F003
:100E30000CF808B1012070BD25B1FFF71EFD801B25
:100E40008542F0D205E0002070BD3246294620469A
:100E50000FE000F007F8202141700021817001703F
:100E6000032070BD04F14000416841F02001416061
:100E7000704770B504460D4620688069C006164666
:100E80001ED52068816989060BD415F1010FF8D0B1
:100E900025B1FFF7F2FC801B8542F2D204F140003D
:100EA000D9E71021C16120202168C8612046FFF7E1
:100EB0006AFF00F00EF8042100F004F8012070BD74
:100EC000002070BD416020214170002181700170BF
:100ED000704720680A4A41681140416004F14000AF
:100EE000704730B50068074D44682C40C1F30901D4
:100EF000214341EA0241039A19431143416030BD45
:100F000000E800FE009800FC2DE9F047044682B09E
:100F10002068DFF8245300260005B0461BD5E06B9F
:100F200058B1B0F5000F03D0B0F5400F09D010E074
:100F3000286840F48030286004E0002100F0FAF8CE
:100F400006463EB9E86FE16B20F440000843E867CD
:100F500001E00126B0462068800329D5E86C00270F
:100F6000C00009D4E86C40F08050E8640127E86CC8
:100F700000F0805000900098DFF8C092D9F800008F
:100F800040F48070C9F80000FFF777FC8246D9F87A
:100F90000000C0055ED4FFF770FCA0EB0A00032838
:100FA000F5D30326B0461FB1E86C20F08050E8640A
:100FB0002078C00705D5E86F216A800841EA8000E3
:100FC000E8672078800706D5E86F6FF00C010840CD
:100FD000616A0843E8672078800605D5E86FA16A52
:100FE00020F440600843E8672068800505D5E86F75
:100FF000616B20F440200843E8672068400505D570
:10100000E86FA16B20F440100843E86720784006A1
:1010100005D5E86FE16A20F440500843E86720688E
:10102000C00505D5E86F216B20F440300843E86720
:101030002068800446D5E86F216C20F040600843AA
:10104000E867206CB0F1006F35D1286840F480105B
:10105000286037E0002EA5D1DFF8E461306810F495
:1010600040701CBF216D88420BD03068316841F45C
:101070008031316020F44070316821F4803131607A
:101080003060C00710D5FFF7F8FB82463068800754
:101090000AD4FFF7F2FBA0EB0A0041F28931884243
:1010A000F4D34FF003087EE73068216D20F44070E0
:1010B0000843306077E7B0F1806F03D100F039F872
:1010C00000B180462068400315D5E86F616C20F0C0
:1010D00040600843E867606CB0F1006F04D1286895
:1010E00040F48010286006E0B0F1806F03D100F07A
:1010F00020F800B18046206840040ED5E86FA16C4E
:1011000020F040500843E867A06CB0F1805F04D144
:10111000022100F00FF800B180462068000405D5D8
:10112000E86FE16C20F080400843E8674046BDE886
:10113000F6870121201DFFE72DE9F0410446414FCC
:1011400020680D46F968002611F0030F0DD0F968EC
:1011500001F00301814237D1B0B3F8686168C0F390
:101160000210401C884214D02EE0012804D02BD35A
:10117000032823D01ED327E03968890724D5F968CE
:101180006FF07302114008436168491E40EA011084
:10119000F860386820F080603860FFF76EFB8046AA
:1011A0003868000112D5FFF768FBA0EB08000328A0
:1011B000F6D338E039684905E1D405E03968890398
:1011C000DDD439684903DAD4012632E0A06845B994
:1011D00039691D4A114041EA0020E16840EAC160D6
:1011E00011E0012D39690AD1184A114041EA002065
:1011F0002169891E0905490D40EA415003E0144A5E
:10120000114000F027F83861386840F0806038609D
:10121000FFF733FB05463868000106D4FFF72DFBC6
:10122000401B0328F7D3032603E03869A16908436C
:1012300038613046BDE8F0810C100240007000407B
:101240009010024000100240FF80FF07FF809FFFC8
:10125000FF80FFF941EA00206169891E090601F05B
:101260007E410843704700002DE9F04782B0FFF748
:10127000E1FA00F097F800F0D3F800F0F6F800F08B
:10128000E6F800F02EF9BB4EDFF8EC923068C005AE
:101290004FF47A7807D54FF48070B06041F2883A05
:1012A000D9F8004001E0C246002400F02BFA40B11A
:1012B00000F070F905E0FFF7EEFA00F06EF8FFF7C6
:1012C000ECFAAE4D00200A2C686209D30AF57A7157
:1012D0000FFA81FA002441F659308245A8BFC24670
:1012E00004EB0A0000F020FA641C08B100F052F987
:1012F000BAF57A7FA24F16D0BAF5FA6FDBD040F676
:10130000B8318A4513D0BAF57A6F14D041F28831DA
:101310008A4514D041F270718A4522D041F6583185
:101320008A4533D0CDE7686A0028FCD0C9E70120A0
:10133000FFF71AFBC5E70120FFF72EFBC1E700F01E
:1013400094F81F20B0602868C16801F0800161F442
:101350009061C16000F07BF8C9F8004000F048FAE5
:10136000A6E700F091F8FFF796FAFFF7DFFA686A50
:101370000028FCD0FFF7E0FA00F014F8386840F0DD
:1013800080503860386800F046F898E700F07CF844
:10139000FFF781FA00F001F8ECE701214FF48040FB
:1013A00000F00ABA10B598B001A8142100F034FA80
:1013B00006A8442100F030FA1020069001200C907D
:1013C00050200E9000200D90109006A8FEF7DEFE33
:1013D00000B1FEE70F200190002100200290039051
:1013E0000490059001A8FFF7D5F800B1FEE7644C22
:1013F000206840F080502060206800F00CF84FF426
:101400008060FFF763FA00B1FEE7206820F08050AB
:10141000206018B010BD00F0805000900098704718
:1014200080B5564857490160002141607F218160A5
:10143000F921C160002101618161C16100F0F0F911
:1014400000281CBFBDE8014000F0A4B801BD80B574
:10145000032244F64321494800F056FA00281CBFF5
:10146000BDE8014000F096B801BD80B5434800F0EA
:10147000C3FA00281CBFBDE8014000F08BB801BDD5
:101480003E4901204862704700B597B06846142174
:1014900000F0C2F905A8442100F0BEF91020059023
:1014A000002006904FF48070089001200B900020DF
:1014B0000D900C900F9005A8FEF768FE08B100F0A3
:1014C00069F8012000900021002001900290039013
:1014D00004906846FFF75EF808B100F05BF817B0BB
:1014E00000BD10B5284C86B0E06840F08050E06048
:1014F00001A9E068FFF78FFF206840F0010020603D
:10150000206800F0010000900098206840F0020080
:101510002060206800F0020000900098206840F0F1
:1015200004002060206800F00400009000984FF64E
:10153000FF70019003200290002003904FF0904034
:1015400000F0C4FA01A9114800F0C0FA01A910483E
:1015500000F0BCFA20684008400020606FF00201F3
:101560002068084020606FF0040120680840206077
:1015700006B010BD107000405028004058000020F8
:1015800058100240002800404C100240000400485F
:101590000008004880B5002000F008F8002000F0A6
:1015A0002BF84FF47A70FFF76BF9F7E770B5044644
:1015B0004D484E4E86B0016841F00201016001A91C
:1015C000006800F00200009000980FF2DC1030F884
:1015D00014500195012002900020039002200490F5
:1015E00056F8240000F072FA56F82400002229462A
:1015F00000F01DFB06B070BD0FF2AC113B4A31F894
:10160000101052F8200000F017BB10B5384C2046DF
:10161000FFF771FBA8B937482060374860600020A9
:10162000A0600120E060002020616061A061E061B5
:101630002062204600F023F82046BDE81040FFF766
:1016400029BA10BD3EB500F008F8FFF78FFA040084
:1016500018BF00F00DF820463EBD04462448C56C76
:10166000029500931346069D01950A462146704750
:1016700080B51F48FFF75DFABDE80140C5E710B52A
:101680009CB0402006904FF48050119006A8FFF7C0
:101690003BFC1A4C606940F00200606101A960697E
:1016A00000F0020000900098C020019012200290EB
:1016B000012003900220049004200590104800F0BF
:1016C00005FA206A40F400102062206A00F400103D
:1016D00000900098206840F400102060206820F4FA
:1016E000001020601CB010BD4C1002400000002013
:1016F0000400002000540040533EE04038100240F7
:101700000004004800B50FF29000007883B08DF817
:101710000400FFF77AFF0120009001AB01220021B5
:101720007020FFF78FFF0EBD30B50FF2700285B04D
:1017300038CA02A942F2107238C1904201A91ED2E1
:1017400002AD4FF47A72B0FBF2F24FF47A7303FBFE
:101750001200AA5CCA706423B0FBF3F3642404FB98
:101760001300EA5C8A700A24B0FBF4F42A5D4A7024
:101770000A2101FB1400285C8DF8040001E0002020
:1017800001900420009001AB012201217020FFF79D
:1017900059FF05B030BD0000470000003F065B4F19
:1017A000666D7D077F6F0000080000001748016824
:1017B00041F480710160704710B50C46144900284F
:1017C000086804D1800506D5FFF7B6F803E0800568
:1017D00058BFFFF7ABF80F4801686FF004021140E3
:1017E0000160012C0FBF30BF40BF20BF20BF10BD24
:1017F00006480168C908C90041F0030101600548B5
:10180000016841F00401016030BF70470070004082
:101810001470004010ED00E0002200F01BBA000040
:1018200038B5040011D094F8210020B984F82000C4
:10183000204600F029FA00F03CF8FF250028206837
:1018400005D04562042084F82100012032BD816862
:10185000DFF87C20114000F037F8626823691A43F2
:10186000A3691A43114381602168E0680861206818
:101870000169A26841EA024101616FF080022068BB
:10188000C1681140C1602068C16C89088900C164C9
:101890002068C16CE26963691A431143C16400F0B6
:1018A00001F832BD20684562012084F82100002043
:1018B0007047022084F82100CA2021684862532022
:1018C00021684862204605E0816020688168704791
:1018D000BFFF8FFF38B504462068C168490611D4A0
:1018E0004FF0FF31C160FEF7C8FF05462068C068B1
:1018F000400607D4FEF7C1FF401BB0F57A7FF5D94B
:10190000032032BD002032BD2DE9F843044689464C
:1019100094F820000128154608BF02203ED000F0B0
:1019200091F8FF2600F059F80CD5FEF7A6FF074600
:101930002068C068400705D5FEF79FFFC01B4045E3
:10194000F6D30BE000F039F807462068C168490774
:1019500009D4FEF792FFC01B4045F6D320684662CB
:1019600000F095F81AE0C0F81490206800F018F81C
:10197000294381603F48016841F48011016081681A
:1019800041F4801181602068816841F48041816068
:1019900000F00DF82068466200F018F8BDE8F28308
:1019A0008168C908C9008160206881687047206823
:1019B000816841F48061816070472068816821F40A
:1019C00080618160FEF759BF20684762012084F87A
:1019D0002100002084F820007047022084F82100B4
:1019E000CA202168486253202168486240F2E938E1
:1019F000206880684005704738B500F05BF801D179
:101A0000022032BD00F01EF800F049F8816821F490
:101A1000806181602068816821F480418160FEF7E7
:101A20002CFF05462068C168490708D4FEF725FF4A
:101A3000401BB0F57A7FF5D900F026F832BDFF21C2
:101A400041623CE0012084F82000704710B5044654
:101A500009494FF4801008602068C168490505D520
:101A600000F00CF8C1602046FFF70AFD012084F861
:101A7000210010BD0004014014040140C16801F0C0
:101A8000800161F4906170472168FF204862032063
:101A900084F82100002084F82000032070470220F1
:101AA00084F82100CA2021684862532021684862D6
:101AB00020687047044694F82000012870470120F0
:101AC00084F82100002084F8200032BD2DE9F84F71
:101AD00000F0A8F8DFF868914FF00F0A2EE0B5404B
:101AE0002C4348F82C406FEA0B051C6805EA040EED
:101AF0004C68E40348BF4BEA0E0EC3F800E05C6894
:101B000005EA040E4C68A40348BF4BEA0E0EC3F866
:101B100004E09C6805EA040E4C68E40248BF4BEA06
:101B20000E0EC3F808E0DC6805EA040C4C68A40259
:101B300048BF4BEA0C0CC3F80CC0521C0C6834FABA
:101B400002F56DD0012505FA02FC1CEA040BF4D065
:101B50004C68022C18BF122C4FEA820E0DD1D4080B
:101B600000EB84040EF01C05266A0AFA05F7BE4352
:101B70000F6907FA05F53543256254000325066809
:101B80000F79A540ED4307F003072E40A7403E43E1
:101B900006604E68012E18BF022E03D0112E18BF0A
:101BA000122E0ED18668CF682E40A7403E43866035
:101BB000466826EA0C074E68C6F3001696403E4378
:101BC0004660C6682E408D6805FA04F43443C4604C
:101BD0004C68E400B1D5D9F8004044F00104C9F8DC
:101BE00000404FEA920CD9F8005005F0010400942F
:101BF0000EF00C06009C58F82C400AFA06F5AC438F
:101C0000B0F1904F08BF002509D00E4DA84208BF83
:101C1000012504D00C4DA8420CBF022507255EE724
:101C2000BDE8F18F0022094BDFF824807047002ABD
:101C300014BF8161816270474269514041617047C0
:101C40006010024000040048000800480004014001
:101C50000800014000B500BF1300964694461039B5
:101C600028BFA0E80C50FAD85FEA417C28BF0CC01E
:101C700048BF40F8042BC90728BF20F8022B48BFF3
:101C800000F8012B00BD000010B51A4CA8B0206868
:101C900040F080502060206800F080500090009854
:101CA000FFF784FD082016900020209001201B9053
:101CB0000020189016A8FEF769FA08B1FFF76AFC31
:101CC0004FF4003001904FF40070159001A8FFF719
:101CD0001BF908B1FFF75EFCA06B40F40040A06365
:101CE00000220F210320FEF78DFE0320FEF7A7FE42
:101CF00028B010BD581002400E480F4A016841F448
:101D0000700101600D48016841F00101016000218E
:101D100081600168114001604FF48051C160016829
:101D200021F480210160002181614FF000600449AD
:101D30000860704788ED00E0FFFFF6EA00100240FF
:101D400008ED00E0000000000000000001020304B4
:101D500006070809A0860100400D0300801A06004E
:101D600000350C0040420F0080841E0000093D0039
:101D700000127A000024F40000366E010048E801E9
:101D8000006CDC0230B5016842688468014401EBF4
:101D90005203D20748BF4C44994201D10C3030BDA8
:101DA00011F9012B11F8015B002A04F8015B02D53F
:101DB000521CF9D1F0E7521EF4D5EDE710B50749F2
:101DC00079441831064C7C44163404E00A68081D36
:101DD000114488470146A142F8D110BD2C000000F3
:101DE000380000004EF68851CEF20001086840F439
:101DF00070000860BFF34F8FBFF36F8F4FF000701C
:101E0000E1EE100A704700007DFFFFFF780100003F
:101E100022000000000000207047FEE7FEE7FEE71A
:101E2000FEE7704770477047FEF722BD0148FFF795
:101E30000DBE00005800002000F00BF8002801D073
:101E4000FFF7BCFF0020C046C046FFF70DFA00F0C8
:101E500002F80120704700F001B80000074638463C
:101E600000F002F8FBE7000080B5C046C046024A19
:101E700011001820ABBEFBE7260002000148804796
:101E800001480047F91C00088D1E0008C046C046E6
:101E9000FFF7A8FFFFF7D0FFFFF7FEBFFFF7FEBF7A
:101EA000FFF7FEBFFFF7FEBFFFF7FEBFFFF7FEBF66
:101EB000FFF7FEBFFFF7FEBFFFF7FEBFFFF7FEBF56
:101EC000FFF7FEBFFFF7FEBFFFF7FEBFFFF7FEBF46
:101ED000FFF7FEBFFFF7FEBFFFF7FEBFFFF7FEBF36
:101EE000FFF7FEBFFFF7FEBFFFF7FEBFFFF7FEBF26
:101EF000FFF7FEBFFFF7FEBFFFF7FEBFFFF7FEBF16
:101F0000FFF7FEBFFFF7FEBFFFF7FEBFFFF7FEBF05
:101F1000FFF7FEBFFFF7FEBFFFF7FEBFFFF7FEBFF5
:101F2000FFF7FEBFFFF7FEBFFFF7FEBFFFF7FEBFE5
:101F3000FFF7FEBFFFF7FEBFFFF7FEBFFFF7FEBFD5
:101F4000FFF7FEBFFFF7FEBFFFF7FEBFFFF7FEBFC5
:101F5000FFF7FEBFFFF7FEBFFFF7FEBFFFF7FEBFB5
:101F6000FFF7FEBFFFF7FEBFFFF7FEBFFFF7FEBFA5
:101F7000FFF7FEBFFFF7FEBFFFF7FEBFFFF7FEBF95
:101F8000FFF7FEBF0300040048B40001E803FD00B2
:051F900001093DD30032
:0400000508001E8D44
:00000001FF
