:020000040800F2
:1000000000180020C94000083540000839400008A9
:100010003D40000841400008454000080000000045
:10002000000000000000000000000000ED4000089B
:100030004940000800000000F14000084B40000863
:10004000F5400008F9400008FD40000801410008A3
:1000500005410008094100080D4100081141000850
:1000600015410008194100081D4100082141000800
:1000700025410008294100082D41000831410008B0
:1000800035410008394100083D4100084141000860
:1000900045410008494100084D4100085141000810
:1000A00055410008594100085D41000861410008C0
:1000B00065410008694100086D4100087141000870
:1000C00075410008794100087D4100088141000820
:1000D00085410008894100088D41000891410008D0
:1000E00095410008994100089D410008A141000880
:1000F000A5410008A9410008AD410008000000002A
:10010000B1410008B5410008B9410008BD410008EF
:10011000C1410008C5410008C9410008CD4100089F
:10012000D1410008D5410008D9410008DD4100084F
:10013000E1410008E5410008E9410008ED410008FF
:10014000F1410008F5410008F9410008FD410008AF
:100150000142000805420008094200080D4200085B
:100160001142000815420008194200081D4200080B
:100170002142000825420008294200080000000032
:100180002D4200083142000835420008394200087B
:100190003D42000845420008000000000000000049
:1001A0000000000000000000414200084942000831
:1001B0004D42000851420008554200082DE9F04F19
:1001C00080460FF2A47095B015461E46D0E9002374
:1001D000CDE9132303AF00200391B8610DF1340979
:1001E00000E02D190020ADF8020013AB4FF0FF32F4
:1001F00029460DF1020000F0C3FB0446012C04DA8D
:100200002878441EA441E443E40FBDF802002528E9
:100210000CBFA4F1010BA346BBF1010F0EDBAA46F4
:100220001AF8011B0398C0470028039000F0DA80F9
:10023000B869401CBBF1010BB861F1D1BDF80200F7
:10024000252804D10020F8603861786105E0002895
:10025000C7D1B86906E340F0010015F8011F202955
:10026000F9D023290DD02B2904D02D2906D03029EF
:100270000AD00CE040F0020080B2EEE740F004004B
:10028000FAE740F00800F7E740F01000F4E72A2909
:100290000ED13168316051F8042B3160002A3A6286
:1002A00004D5514240F00400396280B26D1C13E065
:1002B000002139620BE0396A6FF00043994205D0A2
:1002C00001EB810302EB4301303939626D1C2A785E
:1002D000A2F130010A29EED329782E2903D04FF05C
:1002E000FF31F9611FE015F8011F2A2907D1316894
:1002F00031606D1C51F8042B3160FA6113E000216C
:10030000F9610BE0F9696FF00043994205D001EB08
:10031000810302EB43013039F9616D1C2A78A2F1A7
:1003200030010A29EED3B8840FF24460297800F036
:1003300037FB08B115F8010B8DF832009DF832003B
:10034000682804BF2878682803D162208DF832001D
:100350006D1C0DA8B86015F8014B252C13D0582C36
:100360004BD0632C00F0A380642C18BF692C7CD088
:100370006F2C42D0702C36D0732C0AD0752C18BF3D
:10038000782C3AD0B6E00120F86025208DF83400B2
:10039000BAE09DF832006C283068306018D050F810
:1003A000044B30607C60D7F81CA0BAF1000F04D574
:1003B000204600F001FB824607E05246002120461D
:1003C00000F016FB08B1A0EB040AC7F810A09BE0F0
:1003D00050F8042B306002A9404600F02DF90028A7
:1003E00040F192803CE23068306050F8041B30608D
:1003F00002910DA87860782155E09DF832006C28B4
:100400000DD0712818BF6A2809D13068C01D20F0AE
:1004100007023260D2E900010832326004E031683C
:10042000316051F8040B316002909DF83200682869
:1004300002D102A8008803E0622802D102A8007855
:10044000029097F82400000728D5029830B344F0B2
:100450002000782822D1F868302109F80010401CCB
:10046000411CF96009F8004018E09DF8320031465F
:1004700000F0BCF80028029002D5F8682D2109E0B0
:10048000B88C810702D5F8682B2103E0C00705D599
:10049000F868202109F80010401CF8600DA8F968E0
:1004A00008447860214602A800F0DFF92CE09DF8AE
:1004B00032006C2809D00120F8603068306050F8B4
:1004C000041B30608DF834101EE03068306001AAE3
:1004D00050F8041B3060ADF804100020ADF80600A1
:1004E00002A94FF0FF30F861404600F0A5F800285F
:1004F0000AD577E70120F86025208DF834001CB17B
:100500000220F86089F80140386AF968401A796970
:10051000401A3969441A97F82400400711D4202062
:10052000012C8DF800000CDBA24601236A4602A9CB
:10053000404600F001FA00287FF454AFBAF1010AF6
:10054000F3D1D7F80CB0BBF1000F0DF1340A0DD088
:100550001AF8011B0398C047002803903FF442AFEC
:10056000B869401CBBF1010BB861F1D1D7F814A0F8
:100570003020BAF1010F8DF800000BDB01236A4631
:1005800002A9404600F0D8F900287FF42BAFBAF159
:10059000010AF3D1D7F810B0D7F804A0BBF1000FCF
:1005A0000DD01AF8011B0398C047002803903FF4B0
:1005B00019AFB869401CBBF1010BB861F1D197F8D4
:1005C000240040077FF50EAE2020012C8DF800009E
:1005D000FFF608AE01236A4602A9404600F0ACF9D6
:1005E00000287FF4FFAE641EF4D1FBE5622815D02D
:1005F00068280CD06C2818BF742816D07A2814D11B
:100600000A680A6052F8040B0A60002170470A6801
:100610000A6052F8040B0A6000B20BE00A680A6034
:1006200052F8040B0A6040B204E00A680A6052F80B
:10063000040B0A60C11770472DE9F44F0D4694B0C2
:100640002F6A002F804648BF6FF0004700F0FCF98A
:10065000696A401801900FF22030D0E90023CDE9FB
:10066000022395F82800400702D40198412805D2BA
:1006700040200DF110090190002606E000F0EAF993
:100680005FEA0009F8D1EBE03F1B012FC0F2948034
:100690001498018802AA0DF1010000F033FA002835
:1006A000044600F19C801498008810B9641E00F183
:1006B0009680A742C0F28080286901992218914251
:1006C00068D26E624042A969401A6969461A95F873
:1006D0002800400710D42020012E8DF800000BDBED
:1006E000B24601236A462946404600F025F9002813
:1006F00075D1BAF1010AF4D1D5F810B0BBF1000FF1
:10070000CA460CD01AF8011B6868C0470028686008
:1007100065D0E869401CBBF1010BE861F2D13020E3
:100720008DF80000D5F818A0BAF1010F0ADB0123FB
:100730006A462946404600F0FFF800284FD1BAF13A
:10074000010AF4D1D5F814B0D5F808A0BBF1000F18
:100750000CD01AF8011B6868C047002868603ED0BA
:10076000E869401CBBF1010BE861F2D195F8280063
:1007700040070DD52020012E8DF8000008DB012355
:100780006A462946404600F0D7F840BB761EF6D1AF
:1007900000262E61224628690DF10101484400F02F
:1007A000BFF92869201828611498801C1490801EB5
:1007B000008800287FF468AF686A2969401AA9692F
:1007C000401A6969471A95F8280040070FD4012F8D
:1007D0000DDB3C4668682021C047686010B94FF0C7
:1007E000FF3635E0E869401C641EE861F2D12B69F0
:1007F0004A462946404600F09FF80028EFD1AC69F0
:10080000012C0ADB68683021C04700286860E6D008
:10081000E869401C641EE861F4D16B69AA68294646
:10082000404600F089F80028D9D195F82800400703
:100830000CD5012F0ADB68682021C04700286860BA
:10084000CDD0E869401C7F1EE861F4D12E616E6254
:1008500004A881451CBF484600F09EF9304601E0DF
:100860004FF0FF3015B0BDE8F08FF0B4C2686F29CB
:1008700008BF082405D041F02003782B14BF0A24B8
:10088000102418230668642918BF6929374602D145
:10089000002E48BF7F425FB9056A4DB9082C27D1A9
:1008A00090F82810090723D530211723D1751FE0B0
:1008B000B7FBF4F604FB16773037FFB25D1E3A2F14
:1008C000A4BFA1F1510C674457552B46370003D004
:1008D0008568D618B542EBD3082C09D190F82810BA
:1008E000090705D5D15C302902D05B1E3021D154D7
:1008F0001A448260C3F11801026A4161914208DA28
:10090000511A81614FF6EF72018D11400185F0BCE3
:100910007047002A0ED590F8282002F01402102A01
:1009200008D1426A0369D21A8369D21A531A012B79
:10093000A8BF8361F0BC7047F8B504460D46164663
:100940001F46002077B116F8011B6868A047686051
:1009500030B1E869401CE86100207F1EF3D1F2BD90
:100960004FF0FF30F2BD000000000000000000006A
:10097000686C747A4C000000000000000000000069
:10098000F8B504460D4616461F4600F045F93B46AD
:1009900032462946204601B0BDE8F04000F053B988
:1009A0000278C9B28A421AB11CBF10F8012FF9E7C8
:1009B00018BF00207047000000F10103810704D038
:1009C00010F8011B89B18107FAD10268B2F1013137
:1009D000914311F0803F04BF50F8042FF6E710F860
:1009E000011B11B110F8011BFBE7C01A7047000092
:1009F000C9B2830706D0521E22D310F8013B994298
:100A0000F7D11FE0083A13D302F1040241EA0121B1
:100A100041EA014150F8043B121F21BF4B40A3F1B2
:100A2000013C2CEA030C1CF0803FF3D0C9B2001F3C
:100A3000083210F8013B521E28BF91EA030FF8D884
:100A400018BF0120401E704780B500F0E5F8012076
:100A500002BD000070B5054605F10F00C408AFF3F4
:100A60000080E400A54232D2082C04D2082402E01F
:100A7000083000F091F82248026811000CD1011DE5
:100A80000A6802B31368A34238BF111DF8D310E0FF
:100A90001D68A5420DD2191D0B68002BF8D11268F4
:100AA000011D00E0191D0B6893420CD01D68A54282
:100AB000F8D361B10D682A68A2F10803A3420AD2F3
:100AC0006A680A600FE000F0E1F80028D0D1AFF3C7
:100AD0000080002070BD2B190B60121B6E685E60D9
:100AE0000B681A602C60096800291DBF4A68002A3B
:100AF000091D00210160AFF3008005F1080070BD01
:100B00009C2A002070B504460D46164600F084F875
:100B1000324629462046BDE8704000F087B8000004
:100B200062B38B0708D0521E11F8013B00F8013B5D
:100B300000F024808B07F6D1830740F0208000BFAF
:100B4000103A07D330B4B1E83810103AA0E83810A2
:100B5000F9D230BC530724BFB1E80810A0E8081050
:100B600044BF51F8043B40F8043BD20724BF31F89E
:100B7000022B20F8022B44BF0B7803707047083A11
:100B800007D3B1E80810083A40F8043B40F804CB1A
:100B9000F7D25307E4E7000000B9704738B5A0F179
:100BA00008042068082833D310F0070F30D1AFF3C2
:100BB00000801848416809B18C4203D261604460EA
:100BC00017E019464B680BB1A342FAD30B68CD1856
:100BD000AC421BD3A54204D12268D2180A600C464D
:100BE00007E04A681AB1236823449A420ED3626030
:100BF0004C60616851B12268A3188B4206D1002372
:100C0000036008688018206048686060AFF3008067
:100C100031BD00009C2A002080B5DFF80C0000F0F8
:100C20004BF8806902BD00008C29002030B430B937
:100C30000FF24800D0E90045C2E900451BE0017011
:100C4000012030BC704730B431B90FF23800D0E920
:100C50000045C3E900450EE01AB930BC6FF0010051
:100C6000704708B10A7802800978481E804130BC7C
:100C7000C043C00F7047002030BC70470000000028
:100C800000000000000000000000000007490868A4
:100C900008B1002070470648C008C0000860054938
:100CA000C908C900091A0160704700BFA42A0020C2
:100CB0000718002000280020704700002DE9F843A5
:100CC0000446DFF84C572078DFF83C67C00626D58D
:100CD000B06810F00C0F3AD13068800702D5A069D7
:100CE000002832D0306800074EBF306868680009BD
:100CF00000F0F001206A814206D200F04CFB00288F
:100D000023D100F0CAF905E000F0C7F9206A00F02D
:100D100042FBD0B900F0D3FAB26800F0BCFA2078F8
:100D2000C00767D500F0CBF9082808D000F0C7F954
:100D30000C2802BFF06800F0030003282AD13068B5
:100D4000800357D56068002854D10120A0E1A06934
:100D50000028306810D040F0010000F09BF90746F1
:100D60003068800705D400F06DFBC01B0328F7D363
:100D70008BE100F092F9D2E74008400000F08AF9D8
:100D8000074630688007CAD500F05CFBC01B03280B
:100D9000F7D37AE16068B0F5803F06D0B0F5A02FB8
:100DA000306806D140F480203060306840F48030F4
:100DB00005E020F480303060306820F4802030601E
:100DC000606858B100F03EFB07463068800311D4DC
:100DD00000F038FBC01B6528F7D356E100F032FB6A
:100DE00007463068800305D500F02CFBC01B652842
:100DF000F7D34AE12078800719D500F060F904287C
:100E000008D000F05CF90C2802BFF06800F0030085
:100E1000022822D13068400502D5E068002894D02D
:100E20007068216920F0FE4040EA0160706020781F
:100E3000000741D56069002868682ED040F00100A5
:100E4000686000F0FFFA07466868800734D400F055
:100E5000F9FAC01B0328F7D317E1E06800283068CF
:100E60000DD040F4807000F015F907463068400559
:100E7000D6D400F0E7FAC01B0328F7D305E120F42D
:100E8000807000F007F9074630684005CFD500F0C4
:100E9000D9FAC01B0328F7D3F7E040084000686088
:100EA00000F0D0FA07466868800705D500F0CAFA56
:100EB000C01B0328F7D3E8E0207840075FD5B06D6A
:100EC000C0004FF000080AD4B06D40F08050B0650B
:100ED0004FF00108B06D00F0805000900098DFF8EE
:100EE0003495D9F80000C00512D4D9F8000040F4B8
:100EF0008070C9F8000000F0A5FA0746D9F8000094
:100F0000C00505D400F09EFAC01B0328F6D3BCE050
:100F1000A068012805D00528286806D140F0040003
:100F20002860286840F0010005E040084000286083
:100F3000286820F00400286041F28939A06858B17F
:100F400000F080FA07462868800711D400F07AFA8A
:100F5000C01B4845F7D398E000F074FA07462868AC
:100F6000800705D500F06EFAC01B4845F7D38CE02A
:100F7000B8F1000F03D0B06D20F08050B06520783C
:100F8000800621D5606A0028A8680ED040F00100D4
:100F9000A86000F057FA0746A868800714D400F04C
:100FA00051FAC01B0328F7D36FE040084000A86047
:100FB00000F048FA0746A868800705D500F042FA15
:100FC000C01B0328F7D360E0A06A00285FD0B16897
:100FD00001F00C010C293FF4B8AE0228306820F073
:100FE0008070306037D100F02DFA074630688001FC
:100FF00005D500F027FAC01B0328F7D345E0206B86
:10100000616B401E090241EA0010E16A0843E16B8E
:10101000891E0905490D40EA4150216C891E0906C7
:1010200001F07E410843A16B40EAC160F060306886
:1010300040F080703060F06840F08070F06000F048
:1010400001FA07463068800121D400F0FBF9C01B8B
:101050000328F7D319E03068000106D43068800017
:1010600003D4F06880088000F060F068DFF8A8130F
:101070000840F06000F0E6F907463068800106D5C8
:1010800000F0E0F9C01B0328F7D3032000E00020A4
:10109000BDE8F283306000F0D5B9306840F0080058
:1010A00030603068216A20F0F000084330607068DA
:1010B000E16920F47F4040EA012070607047B06829
:1010C00000F00C0070472DE9F047DFF8506304464C
:1010D00030688846002500F00F00404502D200F03D
:1010E000E4F855D12068DFF82073C10740F19B80F8
:1010F0006168DFF82C93032940D13968890147D50D
:10110000FA68002102F00302012A0FD139680907A9
:1011100005D4DFF810130968C1F3032102E0396830
:10112000C1F30311DFF8002352F82110FA68FB68BD
:10113000C3F303135B1C02F00302022A04D0032A48
:1011400004D1DFF8E81201E0DFF8E412FA68B1FB3D
:10115000F3F1C2F306225143FA68C2F34162521C12
:101160005200B1FBF2F1494520D3800701D5A068B8
:10117000A8B1B86810F0F00F18D110E0022902D120
:101180003868800303E00029386802D1800702D460
:1011900060E040055ED500F092F8484506D3B86897
:1011A00020F0F00040F08000B8608025B8686168E9
:1011B000800841EA8000B86041F2893A00F042F9C3
:1011C0008146606803280AD1B86800F00C000C283A
:1011D00029D000F037F900F05AF8F5D321E00228C1
:1011E0000AD1B86800F00C0008281CD000F02AF9D9
:1011F00000F04DF8F5D314E048B9B86810F00C0FC2
:1012000011D000F01FF900F042F8F6D309E0B868F9
:1012100000F00C00042806D000F014F900F037F8B4
:10122000F5D3032031E02078800705D5B868A168A0
:1012300020F0F000084304E0802D03D1B86820F0CE
:10124000F000B860306800F00F00804504D200F074
:101250002CF801D0012018E02078400705D5B868A7
:10126000E16820F4E0600843B8602078000706D504
:10127000B868216920F4605040EAC100B86000F00D
:101280001EF8BA6800F007F80020BDE8F087A0EB70
:101290000900504570476749C2F30312895CC84092
:1012A0005A490860012000F0D3B83068000948EAC4
:1012B00000103060306800F00F0040457047524920
:1012C0008B680022002013F00C0F09D08B6803F00C
:1012D0000C030C2B02BFCB6803F00303012B13D1CB
:1012E0000A68120704D44F4A1268C2F3032202E0CC
:1012F0000A68C2F303124C4B53F822208B6813F098
:101300000C0F0ED110460CE08B6803F00C03042B7D
:1013100008BF474805D08B6803F00C03082B08BFB3
:1013200042488B6803F00C030C2B1ED1C868CB68B5
:10133000C3F303135B1C00F00300022802D0032850
:1013400002D005E03A4800E03848B0FBF3F001E095
:10135000B2FBF3F0CA68C968C1F34161C2F3062267
:10136000491C50434900B0FBF1F070472748006822
:1013700070472648304A006812683049C2F302229A
:1013800006E022482C4A006812682C49C2F3C222A7
:10139000895CC840704770B5294E82B005463068F8
:1013A0000024C00002D500F067F80EE0306840F07D
:1013B00080503060306800F080500090009800F05D
:1013C0005BF8316821F080513160B0F5007F04D1C5
:1013D000812D09D3A12D06D301E0802D01D3022454
:1013E00002E0702D00D101240C480168090944EA8B
:1013F00001110160006800F00F00A04201D001203F
:1014000076BD002076BD000000100240402900207B
:101410009010024000700040FFFFEEFE00200240EE
:1014200001B4C40494100240E03E000800127A00A7
:101430000024F400D03E000808100240E4400008F8
:101440005810024001480068704700BF982A0020E9
:1014500010B50446074800684FF47A71B0FBF1F00C
:1014600000F0B8F8002221464FF0FF3000F086F877
:10147000002010BD40290020DFF8B800006800F40B
:10148000C060B0F5806F08D0DFF8AC000068C00520
:1014900002D54FF4007070470020704710B532221B
:1014A000DFF89830DFF89040DFF8881050B908680E
:1014B00000F01EF820F48070206017D100F01EF8B4
:1014C0000DD413E0B0F5007F08680AD100F010F8E1
:1014D00040F48070206009D100F010F806D5032098
:1014E00010BD20F4C06040F480600860002010BD92
:1014F00000F4C060B0F5806F20687047086820F481
:10150000C06040F4007008601868DFF83430B0FB49
:10151000F3F0504300E0401E10B14A695205FAD47E
:10152000486940057047DFF81C00016841F400710C
:10153000016070470070004080700040402900202A
:1015400040420F00047000400901002806D52B4AD4
:1015500000F00F00104400F8041C7047284A115492
:10156000704728490A684FF6FF0300021A4000F44A
:10157000E0601043244A10430860704738B5214B9F
:101580001B68C3F30223C3F10704052C28BF0424FE
:101590001D1D072D34BF0023DB1E012505FA04F4B1
:1015A000641E2140994005FA03F35B1E1A40114363
:1015B000BDE83440C8E7012100F01F029140134A02
:1015C00004E0012100F01F029140114A400942F855
:1015D0002010704710B5401EB0F1807F01D301206C
:1015E00010BD0C4C60600F214FF0FF30FFF7ACFFD7
:1015F0000020A06007202060002010BD18ED00E052
:1016000000E400E00CED00E00000FA0500E100E07D
:1016100080E100E010E000E010B5044600F0F3FACD
:10162000FF2809D1002000F0EEFA032804DADFF8E1
:10163000F0150C5400F094FC0221204600F063F8F1
:101640002046BDE81040012163E00021DFF8D025ED
:10165000535C834204D0491CC9B20329F8DB7047AC
:1016600000205054FF2918BF00F0F0BC704780B52F
:101670008022402100F09FFCBDE802400A2000F0DB
:10168000BEBC80B54022402100F095FCBDE8014081
:1016900000F0CABC80B500F0B6FAFF2808BF00F021
:1016A000C3FCBDE8014000F0ACBC10B5044601200D
:1016B00000F0A5FC00F054FC2046BDE810400021DD
:1016C00000F07DBC38B500F00EF845EA000204E0F9
:1016D00038B500F008F820EA05022046BDE8384099
:1016E000422100F068BC0D460446422100F067BC70
:1016F00010B50C46082100F062FC204010BD0A46DF
:10170000442100F058BC38B500F013F800F0FD009B
:1017100004E038B500F00DF800F0FE0045EA0002E4
:101720004121204600F047FCBDE83240012000F096
:1017300066BC0D460446412100F041BC38B50D465B
:1017400000F062F940F00100B5F5803F2CBF40F099
:10175000080200F0F7024021E3E7000070B5002620
:10176000172A04460D4600F2D880DFE802F0121E68
:1017700044628AAD0C0C161AD6362CD6251E4D5551
:10178000707D939BB3BC00F00EF900F0C9F8002304
:101790001FE000F008F9002211E000F004F9002237
:1017A0001EE000F000F9002210E000F0FCF8012239
:1017B00000F0B7F800230CE000F0F5F8012200F08B
:1017C000B0F800230FE000F0EEF8012200F0A9F8D5
:1017D000012300F0AAF8002308E000F0E4F8012259
:1017E00000F09FF8012300F0A0F801232A466821A9
:1017F00000F09DF892E000F0C9F800F091F80023A5
:1018000000F093F801230EE000F0C0F800F088F833
:1018100000F08AF8012306E000F0B8F800F080F844
:1018200000F082F800232A46682100F080F80122A7
:1018300065E000F0ABF800F073F8002300F075F8F5
:1018400001232A46682100F072F8012236E000F0F8
:101850009DF800F065F800F067F801232A4668213A
:1018600000F065F8012229E000F090F800F058F847
:1018700000F05AF800232A46682100F058F80122A7
:101880001CE000F083F800F04BF8002300F04DF866
:1018900001230EE000F07AF800F042F800F044F87E
:1018A000012306E000F072F800F03AF800F03CF88E
:1018B00000232A46682100F03AF8002229462046F3
:1018C00000F03BF800221FE000F060F800F028F87C
:1018D000002304E000F05AF800F022F8012300F0A1
:1018E00024F8012306E000F051F800F019F800F0A8
:1018F0001BF800232A46682100F019F80022294627
:10190000204600F01AF801222946204600F01EF871
:101910002946204600F044F800E01646304670BDE7
:1019200000222946204604E001232A46642120465D
:1019300078E113460A46602174E180B513460A46F1
:101940004C2100F06FF9BDE80240EFE680B5134688
:101950000A46502100F066F9BDE80240E6E61AB1F9
:101960000A4601236C2102E00A460123702159E155
:1019700070B50D460446102100F021FB06461121EA
:1019800000F001F906EB002612211DE010B500F071
:101990001DF92046BDE81040012193E6012197E69C
:1019A0000A46012301E00A46002348213AE170B5C6
:1019B0000D4604460C2100F002FB06460D2100F006
:1019C000E2F806EB00260E2100F0DDF806EB004001
:1019D000284070BD70B504460D0A0E0CC8B218B18F
:1019E000CAB2542100F015F8E8B218B1EAB2552194
:1019F00000F00FF8F0B230B1F2B22046BDE870400E
:101A0000562100F0D8BA70BD0446402100F0D7BA84
:101A1000A421204600F0CFBA10B500F0B2F840F093
:101A200001022046BDE81040B0E00EB430B5C4B2AB
:101A3000402100F0A8F8410704D440F004024021FE
:101A4000FFF7E7FF9DF825009DF82610400000F005
:101A50000E0001F0400108439DF8271001F08001BD
:101A600041EA00028021FFF7D4FF9DF828009DF88D
:101A7000291000F07FF88121FFF7CBFFBDF810504F
:101A80002A0A8221FFF7C5FFEAB28321FFF7C1FFCF
:101A9000BDF812502A0A8421FFF7BBFFEAB2852164
:101AA000FFF7B7FFBDF814502A0A8621FFF7B1FFF0
:101AB000EAB28721FFF7ADFFBDF816502A0A882148
:101AC000FFF7A7FFEAB28921FFF7A3FFBDF818507F
:101AD0002A0A8A21FFF79DFFEAB28B21FFF799FFBF
:101AE000BDF81A20D2B29021FFF793FFBDF81C2059
:101AF000D2B29121FFF78DFFBDF81E20D2B2922104
:101B0000FFF787FFBDF82020D2B29321FFF781FFB6
:101B1000BDF82220D2B29421FFF77BFFBDF80C0064
:101B2000020A8C21FFF775FFBDF80C20D2B28D217F
:101B3000FFF76FFFBDF80E502A0A8E21FFF769FFED
:101B4000EAB28F21FFF765FF9DF82A209621FFF763
:101B500060FF9DF82B009DF82C1000F00BF89721EA
:101B6000FFF757FF9DF824209821FFF752FF30BC64
:101B70005DF810FB00F0800001F07F0141EA0002F7
:101B80007047C4B28021204600F019BA802100F0CD
:101B900012BA10B582B00C4603236A461421C0B2B3
:101BA00000F028FA9DF801109DF80000090241EAB2
:101BB00000409DF802100843206013BD10B500F0EE
:101BC00005F82046BDE8104002217BE5044600F000
:101BD000C8B9022193E502218AE5022178E50321B3
:101BE000C0B200F0ECB90421FAE710B5FFF7EEFF40
:101BF0002046BDE81040042164E504217FE504216E
:101C000076E5042164E50021054A535C834201D155
:101C100008467047491CC9B20329F6DBFF2070470C
:101C2000902A00202DE9F843804615460F46994634
:101C30002C0A2E0CE8B270B1404600F0C0F95FEA01
:101C4000090114BF45EA000220EA0502D2B2394672
:101C5000404600F0B0F9E0B280B17D1CE9B24046E8
:101C600000F0ADF95FEA090114BF44EA000220EA7E
:101C70000402D2B2E9B2404600F09DF9F0B290B150
:101C8000BF1CF9B2404600F09AF9F9B2B9F1000F61
:101C900014BF46EA000220EA06024046BDE8F843C7
:101CA000D2B200F088B9BDE8F183000070B586B00B
:101CB000044600F07CF9DFF854042100016806D1E5
:101CC00041F002010160006800F0020005E041F00F
:101CD00080010160006800F08000009001A9009878
:101CE0000FF25040DFF8286430F8145001950120BD
:101CF000029003900320049056F8240000F024FA88
:101D000056F824000122294600F06CFB06B070BD95
:101D10000FF22041DFF8F83331F8101053F82000AB
:101D2000002200F05FBB0FF20C41DFF8E43331F822
:101D3000101053F82000012200F054BB0FF2F431D0
:101D4000DFF8CC2331F8101052F8200000F04FBB20
:101D500030B587B000F029F915BB00F03CF800F071
:101D600034F84FF4005001900220039003200490B7
:101D7000DFF8A00300682CB90021029101A900F04E
:101D8000E3F90DE0DFF89013029101A900F0DCF90E
:101D900000220F212820FFF7F1FB2820FFF70BFC82
:101DA00007B030BD80B578B900F015F84FF4005198
:101DB00000F00BF8DFF85C03006800F08BFABDE878
:101DC00002402820FFF7FDBB01BD006800F00400C1
:101DD000009000987047DFF83403016841F0040177
:101DE000016070470FF25431DFF8282331F81010EA
:101DF00052F8200000F0F0BA30B5ADB0054600F062
:101E0000D6F8DFF81843206A40F080502062206A3C
:101E100000F04FF82868DFF80813884241D180208D
:101E200006904FF480401C9006A800F0F9FA606913
:101E300040F08000606101A900F035F8606940F071
:101E40008000606100F02FF8302001901220029095
:101E500001200390049004200590B24800F074F92A
:101E6000206A40F4800020620022206A00F4800092
:101E7000009000210098206840F4800020602068D5
:101E800020F4800020602120FFF778FB2120FFF75D
:101E900092FB002200212220FFF770FB2220FFF797
:101EA0008AFB2DB030BD606900F080000090009882
:101EB000704700F0805000900098FFF734BB10B5D9
:101EC00000F024F8B8B99648206097486060002078
:101ED000A0600120E060002020616061E06120627C
:101EE000204600F0E7FD2046FFF786FF2046BDE8CC
:101EF000104000F08FBD10BD10B500F007F820B104
:101F00002046BDE8104000F0D5BD10BD874C2046EE
:101F100000F031BF3EB500F00EF808B100F017F840
:101F200000203EBD3EB500F006F8040018BF00F0EA
:101F30000EF820463EBD04467C48C56C02950093D1
:101F40001346069D01950A46214600F066BE80B5FF
:101F500001F0B3F9754800F0ADFDBDE80140AEE712
:101F6000ADE700B587B000F022F86848016841F09D
:101F70000101016001A9006800F0010000900098D3
:101F800001200190002003900490634802904FF0DC
:101F9000904000F0D9F80F220F210620FFF7EEFA4B
:101FA0000620FFF708FB07B000BD05460C4601A858
:101FB000142101F01FBA1FB500F00EF887E01FB51D
:101FC000002200F009F800F028FE08B1FFF7BFFF7B
:101FD0009DF80C0004B010BD8DF80C200123534C6B
:101FE000E26C02920122019203AA00920A46014683
:101FF0002046704780B500931346012283E001F02C
:10200000FCB910B54A4C01224FF40071204600F093
:10201000E9F9012001F0F1F92046BDE81040002265
:102020004FF4007100F0DEB900B5384887B00168A0
:1020300041F04001016001A9006800F030F8022081
:102040000490002000F027F807B000BD10B52F4C19
:1020500086B0206840F04000206001A9206800F0B0
:102060001EF800200490022000F015F80620FFF76B
:10207000A8FA206840F0010020600121206800F0EB
:102080000100009000984FF0904000F023F9FFF716
:1020900033FF06B010BD0390254800F055B800F09E
:1020A0004000009000984FF40070019001200290D1
:1020B000704704E714B504461C48C26C83B0012382
:1020C00002920122019203AA00920A46214600F0E0
:1020D0001AFD08B1FFF73BFF1FBD00B583B000221A
:1020E0008DF8042001AB01220092FFF713FF9DF849
:1020F00004000EBD80B5009313460122FFF70AFFCE
:1021000002BD01F07AB9FFF70DFF02BD4C1002408D
:10211000C8280020D82800200000111038100240E4
:1021200000580040001C00482F2480C0F0280020E8
:1021300000180048008000200040008000200100BE
:1021400004000800020010002DE9F84F00F03FF9EC
:10215000DFF8A4924FF00F0A2EE0B5402C4348F868
:102160002C406FEA0B051C6805EA040E4C68E4037A
:1021700048BF4BEA0E0EC3F800E05C6805EA040EA7
:102180004C68A40348BF4BEA0E0EC3F804E09C68F9
:1021900005EA040E4C68E40248BF4BEA0E0EC3F891
:1021A00008E0DC6805EA040C4C68A40248BF4BEA6E
:1021B0000C0CC3F80CC0521C0C6834FA02F500F089
:1021C0008780012505FA02FC1CEA040BF3D04C6859
:1021D000022C18BF122C4FEA820E0DD1D40800EB4E
:1021E00084040EF01C05266A0AFA05F7BE430F693F
:1021F00007FA05F5354325625400032506680F7973
:10220000A540ED4307F003072E40A7403E4306607C
:102210004E68012E18BF022E03D0112E18BF122EA9
:102220000ED18668CF682E40A7403E438660466840
:1022300026EA0C074E68C6F3001696403E434660F9
:10224000C6682E408D6805FA04F43443C4604C68B7
:10225000E400B0D5D9F8004044F00104C9F80040CA
:102260004FEA920CD9F8005005F0010400940EF0EA
:102270000C06009C58F82C400AFA06F5AC43B0F165
:10228000904F08BF002522D05C4DA84208BF012511
:102290001DD05B4DA84208BF022518D0594DA84259
:1022A00008BF032513D0584DA84208BF04250ED0FF
:1022B000564DA84208BF052509D0554DA84208BF74
:1022C000062504D0534DA8420CBF0725082544E736
:1022D000BDE8F18F2DE9F04700F079F84FF00F09D4
:1022E00017E005FA0EF5AC4212D158F8274024EA5F
:1022F0000C0448F82740F6431F6837401F605F68AA
:1023000037405F609F6837409F60DF683E40DE6017
:10231000521C31FA02F658D0012606FA02F717EAE3
:102320000106F5D00324550004FA05FC04684CEAC4
:1023300004040460D50800EB85044FEA820E256A88
:102340000EF01C0A09FA0AFA25EA0A0525626FEA64
:102350000C0584682C4084600EF00C0E446824EA5E
:102360000707476009FA0EFCC7682F40C760970847
:1023700058F82740B0F1904F0CEA040408BF00253C
:10238000AFD01E4DA84208BF0125AAD01C4DA842BF
:1023900008BF0225A5D01B4DA84208BF0325A0D029
:1023A000194DA84208BF04259BD0184DA84208BF6C
:1023B000052596D0164DA84208BF062591D0154D8B
:1023C000A8420CBF072508258BE7BDE8F08700224F
:1023D000114BDFF8488070470069084018BF0120A2
:1023E000C0B270470AB1816170478162704742692B
:1023F00051404161704700006010024000040048F5
:1024000000080048000C0048001000480014004874
:1024100000180048001C004800040140080001406A
:102420002DE9F84F04464FF000092068DFF800540A
:10243000DFF800640005C84623D5E06E68B12028A7
:1024400019D0402804D0602818BF802809D015E092
:10245000E86840F48030E86006E0002100F0DFF931
:1024600081465FEA09000BD17069E16E20F0E0005F
:102470000843706105E000F0CCF9F1E74FF0010985
:10248000C8462068C00427D5206FD0B1B0F5807F42
:102490001CD0B0F5007F06D0B0F5407F18BFB0F576
:1024A000806F04D015E0E86840F48030E8605FEAAF
:1024B000090010D17069216F20F4E0600843706159
:1024C0000AE0002100F0ABF98146F0E700F0A1F945
:1024D000FAE74FF00109C8462068800304F1840739
:1024E00030D5A86DC0004FF0000A0AD4A86D40F0A6
:1024F0008050A8654FF0010AA86D00F08050009050
:102500000098DFF83403DFF83013006840F480707F
:102510000860FEF797FF8346DFF81C030068C005DC
:1025200000F18A80FEF78EFFA0EB0B000328F3D3A7
:102530004FF00309C846BAF1000F03D0A86D20F090
:102540008050A8652078C00705D53068E16B800809
:1025500041EA800030602078800705D53068216C22
:1025600020F00C00084330602078400705D5306823
:10257000616C20F03000084330602078000705D5FA
:102580003068A16C20F0C000084330602078C0069D
:1025900005D53068E16C20F4407008433060207845
:1025A000800605D53068216D20F440600843306016
:1025B0002068800505D53068616E20F4402008430E
:1025C00030602068400505D53068A16E20F44010C9
:1025D000084330602078400605D53068616D20F4EE
:1025E0004050084330602078000605D53068A16D62
:1025F00020F44040084330602068C00505D53068AD
:10260000E16D20F44030084330602068C00205D5F9
:102610007069216E800841EA800070612068800442
:1026200042D53068616F00F0EFF8606FB0F1006F75
:1026300031D100F0F7F837E05FEA09007FF47AAFB4
:10264000B06810F440701CBF796988420BD0B06844
:10265000B16841F48031B16020F44070B16821F478
:102660008031B160B060C0070ED5FEF7EBFE834647
:10267000B068800708D4FEF7E5FEA0EB0B0041F23E
:1026800089318842F4D353E7B068796920F4407007
:102690000843B0604FE7B0F1806F05D100F0BEF89D
:1026A0005FEA000918BFC846206800031DD53068DE
:1026B000A16F00F0A9F8A06FB0F1006F70690CBFB6
:1026C00040F4804020F480407061A06FB0F1006F52
:1026D00002D100F0A7F808E0B0F1806F05D100F05A
:1026E0009DF85FEA000918BFC8462068400313D56B
:1026F0003068E16F00F088F8E06FB0F1006F02D150
:1027000000F090F808E0B0F1806F05D100F086F895
:102710005FEA000918BFC8462068400412D5306837
:10272000D4F8801020F0405008433060D4F8800086
:10273000B0F1805F06D1022100F071F85FEA000974
:1027400018BFC8462068C00305D57069396820F0F5
:102750000400084370612068800205D570697968BB
:1027600020F01800084370612068400225D52868D1
:1027700020F080502860FEF765FE834628688000C0
:1027800008D5FEF75FFEA0EB0B000328F6D34FF051
:10279000030911E05FEA09000BD17069B96820F400
:1027A000403008437061022104F1200000F09EF8DF
:1027B00081465FEA090000D0C8462068000211D5B2
:1027C0007069F96820F4805008437061F868B0F5CA
:1027D000805F07D1012104F1200000F087F801009B
:1027E00018BF80462068C0010BD57069396920F494
:1027F0004010084370613869B0F5001F01D100F046
:1028000011F84046BDE8F28F20F040600843306088
:102810007047002104F1200000F068B80121201D5C
:1028200000F00CB8E86840F48010E86070470000E1
:102830000010024088100240007000402DE9F04175
:1028400000F0D6F806D0F96801F00301814227D1E3
:1028500060B925E0012804D022D303281AD015D36B
:102860001EE0396889071BD500F0A2F8386820F00F
:10287000806000F0A3F880463868000112D5FEF7AA
:10288000E1FDA0EB08000328F6D328E039684905EC
:10289000EAD405E039688903E6D439684903E3D40A
:1028A000012622E06068A168401E1DB93A6900F067
:1028B00077F803E0012D3A6900F083F841EA00104F
:1028C0003861386840F0806000F078F80546386874
:1028D000000106D4FEF7B6FD401B0328F7D30326FC
:1028E00003E03869A1690843386156E02DE9F041F9
:1028F00000F07EF806D0F96801F00301814227D18B
:1029000060B925E0012804D022D303281AD015D3BA
:102910001EE0396889071BD500F04AF8386820F0B6
:10292000805000F04BF880463868800012D5FEF7E2
:1029300089FDA0EB08000328F6D328E03968490593
:10294000EAD405E039688903E6D439684903E3D459
:10295000012622E06068A168401E1DB97A6900F076
:102960001FF803E0012D7A6900F02BF841EA00100E
:102970007861386840F0805000F020F805463868EB
:10298000800006D4FEF75EFD401B0328F7D3032624
:1029900003E07869A169084378613046BDE8F081B9
:1029A000184B1A4042EA0121E26841EAC2617047CD
:1029B000F968890840EA8100F86070473860FEF7DE
:1029C00041BD0AD1104B1A4042EA01212269921EF0
:1029D0001205520D41EA425170470C4B1A4042EA2F
:1029E00001216269921E120602F07E421143704775
:1029F0000446074F20680D46F968002611F0030FC2
:102A0000704700000F80FF070F809FFF0F80FFF9C6
:102A10000010024038B5040001D1012032BD04F19C
:102A20004005687818B92870204600F0CFFA00F009
:102A300054F86068216820F070600861206881683F
:102A400021F400418160E06821680128A0680CBF82
:102A500040F4004040F404408860E068022803D15C
:102A600021684FF4006048602068416841F00071BF
:102A700041F4004141602068C16821F40041C16017
:102A8000206961690843A16940EA01202168C860A2
:102A9000E069216A0843216808602068016841F004
:102AA0000101016000206860202068700020206320
:102AB000A87032BD38B5040001D1012032BD04F147
:102AC000400500F00AF8204600F0A6FC00206860EF
:102AD00068702063A870287032BD24206870206858
:102AE000016849084900016070474FF41050009098
:102AF0004FF00073D2B270474FF4105000904FF077
:102B00008073FF2270472DE9F04F054605F140071D
:102B100083B000F0F5F85AD1DDF830B0BBF1000F0A
:102B20004ED00D9C20004BD0387801284FD001208A
:102B30003870FEF787FC00F057F8002842D12120BA
:102B400000F0F4F800F01FF940B17868042802D1D1
:102B50000020387034E00020387033E0688DFF28A2
:102B60004FF0FF0902D900F050F801E000F045F8FD
:102B700000F0D1F832462146284600F099F90028A5
:102B80001BD100F027F8288D401E288580B270B92F
:102B9000688D60B100F0C3F8A0B9688DFF2802D934
:102BA00000F033F801E000F028F800F0B4F8688D88
:102BB0000028DFD100F0AAF830B17868042801D1EC
:102BC000012005E0032003E000F0C1F800E002204E
:102BD000BDE8FE8F686A411C6962296800788862D6
:102BE000688D401E688570470646009619230122AD
:102BF0004FF40041284600F036B96A8D2A8500203E
:102C000000904FF00073D2B27047A5F828900020D2
:102C100000904FF08073FF2270472DE9F04F05467A
:102C200005F1400783B000F06BF866D1DDF830B0F5
:102C3000BBF1000F5AD00D9C200057D038780128E6
:102C40005BD001203870FEF7FDFBFFF7CDFF0028B9
:102C50004ED1222000F06AF800F0BCF840B178684C
:102C6000042802D10020387040E0002038703FE096
:102C7000688DFF284FF0FF0904D9A5F82890FFF7C9
:102C80003BFF03E06A8D2A85FFF72FFF00F043F832
:102C9000009623460022042100F045F8002827D1A1
:102CA000686A411C69622968496A0170288D401E62
:102CB000288580B2698D491E698570B9688D60B1BB
:102CC00000F02DF8A0B9688DFF2802D9FFF79DFF0D
:102CD00001E0FFF792FF00F01EF8688D0028D7D1C1
:102CE00000F014F830B17868042801D1012005E023
:102CF000032003E000F02BF800E00220BDE8FE8F87
:102D000078782028884691469A4670473246214670
:102D1000284600F0E6B84146284600F044B900963F
:102D2000234600228021284600F09DB87870534643
:102D30004020B8704A4600207860C5F824B06C8501
:102D4000686341460E9C01960094284670472968A6
:102D5000064A2020C861286841681140416020204F
:102D600078700020B87038707047000000E800FEEE
:102D7000204600F078B890F8410070472946204678
:102D800000F011B900002DE9F04182B000F048F8E0
:102D90004FF08073F2B2FFF7F2FF00F04FF818B176
:102DA000606C042813D10AE0012E0AD02168280A99
:102DB000886200F046F820B1606C042807D1012039
:102DC00006E000F034F88021FFF7D2FF00B10320C5
:102DD000BDE8F6812DE9F04182B000F021F8002332
:102DE000F2B2FFF7CCFF00F029F818B1606C0428AC
:102DF00013D10AE0012E0AD02168280A886200F067
:102E000020F820B1606C042807D1012006E000F012
:102E10000EF84021FFF7ACFF00B10320BDE8F681BA
:102E200004464FF40050009015461E467047206837
:102E3000EDB285620097434600227047DDF820809E
:102E4000099F3A464146204632E000688169890779
:102E500044BF002181628169C90703D4816941F0BF
:102E60000101816170472DE9F041069E04460D463F
:102E700090461F46206880692840A8420CBF012068
:102E80000020404511D117F1010FF3D027B1FEF713
:102E9000D9FA801B8742EDD204F140002021417015
:102EA000002181700170032000E00020BDE8F08166
:102EB00070B504460D4616462068806980070ED41A
:102EC00000F025F808B1012070BD15F1010FF3D015
:102ED00025B1FEF7B7FA801B8542EDD21BE000203A
:102EE00070BD70B504460D461646206880698006A0
:102EF0000BD400F00CF808B1012070BD25B1FEF72D
:102F0000A1FA801B8542F0D205E0002070BD324658
:102F1000294620460FE000F007F8202141700021EB
:102F200081700170032070BD04F14000416841F0E0
:102F300020014160704770B504460D4620688069E5
:102F4000C00616461ED52068816989060BD415F186
:102F5000010FF8D025B1FEF775FA801B8542F2D239
:102F600004F14000D9E71021C16120202168C86127
:102F70002046FFF76AFF00F00EF8042100F004F885
:102F8000012070BD002070BD4160202141700021F2
:102F900081700170704720680A4A416811404160A1
:102FA00004F14000704730B50068074D44682C407C
:102FB000C1F30901214341EA0241039A1943114334
:102FC000416030BD00E800FE009800FC7047000042
:102FD00010B5C148C14C86B000F024F800F022F8CA
:102FE000C16841F48021C16001A9C06800F480205B
:102FF000009000984FF48060019002200290012020
:1030000003900220049000F008F84FF40060019053
:1030100001A900F002F806B010BD07200590204677
:10302000FFF792B8016841F002010160016801F008
:10303000020100910099704780B500214FF40060B3
:1030400000F01DFABDE8044000214FF4805000F06C
:1030500016BAA3490860BFF34F8FA248A24A01687D
:1030600001F4E06111430160BFF34F8F00BFFDE742
:1030700038B59E489A4C016841F080510160006863
:1030800000F080500090009800F008FA0220FEF74F
:103090000DFE00210020FEF75BFE0020FEF7A2FEE1
:1030A00001280FD100F002FA0020206005E0022084
:1030B000FEF744FE642000F0A0F90020FEF792FE27
:1030C0000128F4D00020FEF76DFE894821680160D8
:1030D000016811B900F0EAF907E00168096881F3B5
:1030E00008880068001D0068804700F08BF8002009
:1030F000FEF7DCFD0320FEF7D9FD0120FEF7D6FD2B
:103100007C487D4901604FF4E131416000218160DC
:10311000C16001610C21416100218161C16100F048
:10312000D1F90FF290200FF280230FF264220FF2F8
:10313000502100900FF22C2000F0B4FCFEF721F992
:103140000446FEF716F90546FEF710F96B49B4FB85
:10315000F1F3B5FBF1F2B0FBF1F10FF26420684C32
:1031600000F0A0FC00F05AF901214FF4C05000F02B
:103170007CF900214FF4805000F081F9022000F02A
:103180003CF901214FF4805000F079F901214FF40E
:10319000006000F074F92168702088476168702031
:1031A000884751280ED1FFF747FF0FF2641000F057
:1031B00079FC0320FEF7ACFD0220FEF7B4FD514878
:1031C000FFF747FF504CFFF737FF21687020884713
:1031D00061687020884711280CD10FF2541000F05C
:1031E00061FC0020FEF794FD0220FEF79CFD47489D
:1031F000FFF72FFF0FF2581000F054FC0120FEF7EC
:1032000087FDFEE710B598B06846142100F0F2F88B
:1032100006A8442100F0EEF8344C206840F08050BD
:103220002060206800F08050059005980020FEF78F
:1032300035F9206820F08050206010200690012091
:103240000C9000200D900220109001201190602021
:103250000E90012012903C2013900220169007201F
:1032600014900220159006A8FDF728FD00B1FEE796
:103270000F200090042103200190802002904FF441
:10328000806000F00FF800B1FEE70F2000900521EC
:10329000032001900020029000F004F800B1FEE746
:1032A00018B010BD039004906846FDF70CBF80B5C0
:1032B0000220FEF72DFD72B6FEE70220FEF728BDC4
:1032C00001B54FF6FF73012269460A4800F039F94B
:1032D000009802BD000000004C10024000040048AD
:1032E000C82800400CED00E00400FA055810024028
:1032F0008C2A0020042A00200048004040420F0091
:103300002828002000300408002800200060000861
:103310004A756D7020746F204D4231333135204D28
:10332000656E754C61756E636865720A0000000019
:103330004A756D7020746F204D4231333134204D09
:10334000656E754C61756E636865720A00000000F9
:103350004572726F7220556E6B6E6F776E204C43A4
:10336000440A00000A0A25733A2025732028427572
:10337000696C64202573206174202573290A00007C
:1033800053544D33324C345239492D4556414C003B
:1033900053542044656D6F204C6F616465722056F4
:1033A000312E302E3000000053657020313820322D
:1033B0003031370030323A31373A323200000000D3
:1033C0004350552072756E6E696E672061742025BA
:1033D000644D487A2C205065726970686572616C22
:1033E000732061742025644D487A2F25644D487AF6
:1033F0000A000000002200F067BB38B50446FEF763
:1034000021F814F1010F054618BF641CFEF71AF8E5
:10341000401BA042FAD331BD7047000070B51B4D70
:1034200028680024E8B91A491A4E49698420884757
:103430000A20FFF7E2FF716884208847C0B27B282A
:1034400018BF79280BD12E603168080007D084207E
:1034500088472A681049D2688420904703E00124F5
:1034600001E0FEF77DFD204670BD80B5074B1B686F
:103470001B690A46014684209847002002BD034B81
:103480001B685B690A46014684201847942A00207D
:103490007C28002050280020FFFF0300024801681C
:1034A00041F48071016070470070004080B50320D6
:1034B000FEF757F80120FDF7CBFF00F002F80020DF
:1034C00002BD704738B5040009D004F18005687862
:1034D00008B900F00FF800F020F8012801D1012010
:1034E00032BDA06A08B100F029F800F00EF821F012
:1034F0002A0103E028702046FFF76ABD816000F0D2
:1035000016F8BDE8324000F04DBA2068416821F459
:10351000904141602068816870472420687020686D
:103520000168490849000160204600F05DB8206844
:10353000016841F00101016020467047204600F01B
:10354000CEB92DE9F047044604F1800782B07878BF
:103550002028884615469A4640D1B8F1000F14BF7E
:10356000002D01203BD03878012837D00120387059
:1035700004F154060020786021207870FDF762FF86
:1035800035808146758004E0216808857088401E7A
:1035900070804B467088CDF800A0002812D0002221
:1035A000802100F01EF890B9A068B0F5805F04BFDC
:1035B0002069002806BF38F8020BC0F3080018F88D
:1035C000010BE1E70022402100F00BF808B10320D5
:1035D00005E0202078700020387000E00220BDE86F
:1035E000F687204600F009BA2DE9F8430446DFF8D3
:1035F00070242068DFF86C8401681140A2681143D0
:103600002269114362691143E26911430160102785
:103610004168E26821F440511143416000260025D1
:10362000A269DFF8441488421CBF236A1A438368E6
:1036300008EA03031A4382600FF25048C26A636AC1
:10364000120943EA0212C262DFF82034DFF82024B4
:10365000984221D1126802F00302032A4CD8DFE815
:1036600002F0023A294A0127E069B0F5004F4FF60F
:10367000F07940F0E98067B1012F00F0BB80022FA4
:1036800000F0BB80042F00F0BC80082F00F0C38046
:10369000CDE0FDF76EFEB6E0DFF8D83398420BD1EF
:1036A000126812F00C0264D0042A14D0082A01D047
:1036B0000C2A0EE002271FE0DFF8BC3398420CD141
:1036C000126812F0300254D0102A04D0202AF1D00F
:1036D000302A10D010E004270EE0DFF8A033984223
:1036E00027D1126812F0C00243D0402AF3D0802ABA
:1036F000E0D0C02A00D108278842B5D137B1022FC7
:1037000039D0042F3AD0082F3BD0CDE0FDF731FE61
:10371000616A38F81110B0FBF1F0002800F0C580A4
:10372000626802EB4201884202D3110381422BD22C
:10373000BAE0DFF84C3398420CD1126812F44072B0
:1037400017D0B2F5807FC6D0B2F5007FB2D0B2F507
:10375000407FBEE78842CFD1126812F4406208D0A1
:10376000B2F5806FB7D0B2F5006FA3D0B2F5406F5D
:10377000AFE70027C0E7DFF80C03C9E7FDF79FFDBF
:10378000C6E74FF40040C3E737B1022F07D0042F3C
:1037900008D0082F19D026E0FDF7EBFD04E0DFF894
:1037A000E40202E0FDF78BFD6268616A38F81110EF
:1037B000B0FBF1F65008002110EB062051EB16612A
:1037C000002300F09BF906460EE0616A38F81110FC
:1037D0004FF40040B0FBF1F080B2510801EB002043
:1037E000B0FBF2F600E00125A6F54070DFF8981274
:1037F000884255E0FDF7C5FD05E06068DFF88412FA
:103800000CE0FDF75CFD00F063F84A0802EB4000B5
:10381000B0FBF1F609E060684FF4004100F052F8A7
:10382000420802EB4101B1FBF0F6B6B200E001251F
:10383000A6F11000484537D209EA0600C6F3420156
:1038400008432168C86030E047B1012F09D0022F3A
:103850000AD0042F0CD0082F13D01DE0FDF789FDEE
:1038600008E0FDF78EFD05E06068DFF818120BE058
:10387000FDF725FD00F02CF800EB5100B0FBF1F650
:1038800008E060684FF4004100F01CF801EB5001C3
:10389000B1FBF0F6B6B200E00125A6F110004845F4
:1038A00002D22068C66000E0012504F16200012117
:1038B0004180018004F170000021016041602846D0
:1038C000BDE8F283626A38F81220B1FBF2F170476A
:1038D000626A38F812206168B0FBF2F0704790F825
:1038E0002810C90706D501684A68C36A22F4003265
:1038F0001A434A6090F82810890706D501684A687B
:10390000036B22F480321A434A6090F8281049076A
:1039100006D501684A68436B22F480221A434A6044
:1039200090F82810090706D501684A68836B22F4CD
:1039300000421A434A6090F82810C90606D501686B
:103940008A68C36B22F480521A438A6090F8281068
:10395000890606D501688A68036C22F400521A436E
:103960008A6090F82810490610D501684A68436CAF
:1039700022F480121A434A60426CB2F5801F05D1CE
:103980004A68836C22F4C0021A434A6090F82810F7
:10399000090606D501684A68C06C22F4002210436B
:1039A00048607047F8B5044604F18005002068605F
:1039B0006FF07E47FDF746FD064620680068000769
:1039C00007D50097334600224FF40011FFF709FE98
:1039D00058B920680068400709D50097334600228F
:1039E0004FF48001FFF7FDFD08B10320F2BD202058
:1039F0006870A87000202870F2BD2DE9F041069E85
:103A000004460D4690461F462068C0692840A842DB
:103A10000CBF01200020404518D116F1010FF3D052
:103A200026B1FDF70FFDC01B8642EDD2206801686C
:103A300021F4D071016000F00CF804F18000202125
:103A40004170817000210170032000E00020BDE87A
:103A5000F081206881684908490081607047000052
:103A6000F369FFCFFFF4FF110080004000380140F0
:103A7000881002400044004000480040004C0040D4
:103A8000005000400024F40000FD0F00010002007F
:103A90000400060008000A000C001000200040008E
:103AA000800000010EB400B582B003A90091024667
:103AB0006B460121034878440A30FCF77FFB06BCC3
:103AC0005DF810FBE105000000B500BF130096464D
:103AD0009446103928BFA0E80C50FAD85FEA417C20
:103AE00028BF0CC048BF40F8042BC90728BF20F8E6
:103AF000022B48BF00F8012B00BD00001B4213D170
:103B0000094236D12AB18446B0FBF2F002FB10C262
:103B1000704700F06BB8FCD30022002370470B0005
:103B20000200002100207047904271EB030CF6D395
:103B300070B5B1FA81F4B3FA83F52C1BA340C4F13C
:103B4000200532FA05F63343A2405FF00046E64016
:103B500002E05B085FEA3202841A71EB030524BFBE
:103B6000204629467641F4D302000B0030000021A4
:103B700070BD012ACFD970B5140C20D0B1FA81F4F0
:103B8000B2FA82F5C4F120046419B4F12006D6D348
:103B9000B2405FF00044F440002502E052085FEAC2
:103BA0003303C61A71EB020E24BF304671466441DE
:103BB0006D41F3D302000B002000290070BD0C46BC
:103BC000B1FBF2F102FB11452D0445EA1045B5FBAE
:103BD000F2F402FB145580B240EA0545B5FBF2F061
:103BE00002FB105240EA044070BD00007047000024
:103BF00080B5C820FEF785FABDE80140BCE07047FB
:103C000038B5044600208DF80000032500F0B4F814
:103C1000A821E0B2FEF761FA00F0A8F8512801D01F
:103C20006D1EF5D19DF8000032BD97E080B50021F2
:103C30008DF80010C0B20221FEF74FFA00F096F89E
:103C400000F00F0000F092F80628A4BF00208DF8C5
:103C500000004E489DF800104170002181709DF8D1
:103C6000000002BD2DE9F04782B0804600208DF8AB
:103C700000008946454EB078737800210027002463
:103C800000259842924653D2092837D8DFE800F041
:103C9000050A0F14191E23282D3204210327062498
:103CA00005252BE00A2109270C240B2526E01021ED
:103CB0000F271224112521E0162115271824172576
:103CC0001CE01C211B271E241D2517E02221212773
:103CD0002424232512E0282127272A2429250DE042
:103CE0002E212D2730242F2508E034213327362498
:103CF000352503E03A2139273C243B2500F01DF807
:103D00008DF80000394600F015F800F01AF8A9F80F
:103D10000000214600F011F88DF80000294600F05F
:103D200009F800F00EF8AAF80000B078401CB07056
:103D3000BDE8F3879DF80000B0805FFA88F0FEF7D9
:103D4000CCB98DF80000B0889DF80010090201F48C
:103D500070610843B0807047012200E00022A42176
:103D6000C0B2FEF7A7B90020704770478DF8000079
:103D70009DF800007047000010B5044C207818B979
:103D8000FEF797F90120207010BD0000FC290020EB
:103D90006DE0704710B5044600F069F8E0B2BDE888
:103DA0001040A821FEF799B910B504460022D02191
:103DB00000F055F82046BDE8104047E080B50021EE
:103DC0008DF80010C0B20221FEF787F900F04AF822
:103DD00000F00F0000F046F8032824BF00208DF803
:103DE000000027489DF800104170002181709DF867
:103DF000000002BDF8B5224E777815460C46B27821
:103E00000021BA421FD21AB1012A08BF092100E0DD
:103E1000032104236A46C0B2FEF76CF99DF8001036
:103E20009DF80120090201F47061114321809DF881
:103E300002109DF80300090201F470610843288014
:103E4000B078401CB070F1BD012200E00022A42136
:103E5000C0B2FEF72FB9002070477047D121C0B221
:103E6000FEF728B98DF800009DF80000704710B5E6
:103E7000034C207818B9FEF71CF90120207010BD02
:103E8000F82900200E480F4A016841F470010160D2
:103E90000D48016841F00101016000218160016865
:103EA000114001604FF48051C160016821F480210C
:103EB0000160002181614FF0006004490860704793
:103EC00088ED00E0FFFFF6EA0010024008ED00E098
:103ED00000000000000000000102030406070809BA
:103EE000A0860100400D0300801A060000350C007A
:103EF00040420F0080841E0000093D0000127A003D
:103F00000024F40000366E010048E801006CDC0279
:103F1000F0B4016844688368014401EB5402E4078B
:103F200048BF4B44914202D1F0BC0C30704711F8AD
:103F3000015B15F0030604BF11F8014BE61C2C09C8
:103F40000F2C07D111F8014B0F3403E011F8017B5E
:103F500003F8017B761EF9D1002CE3D0AD0811F8EF
:103F6000016B05F00305032D08BF11F8015B06EB9B
:103F700005256D42A41C1D44D4D015F8016B03F82F
:103F8000016B641EF9D1CDE719E050F8041BCB0793
:103F900044BFA9F101035918121F0023042A41F854
:103FA000043BF9D25FEA827C0B4604D54FF0000C4B
:103FB000A1F800C09B1CD10744BF0021197050F824
:103FC000042B002AE1D1704710B507497944183114
:103FD000064C7C44163404E00A68081D11448847E6
:103FE0000146A142F8D110BD2C000000480000009D
:103FF0004EF68851CEF20001086840F47000086067
:10400000BFF34F8FBFF36F8F4FF00070E1EE100AD8
:104010007047000075FFFFFF00010000F829002035
:1040200000000000EDFEFFFF30020000A6010000CE
:1040300000280020FFF73BB9FFF739B9FFF737B980
:10404000FFF735B9FFF733B9704700F001B800004A
:1040500002480168491C0160704700BF982A00208F
:1040600000F00BF8002801D0FFF7AEFF0020AFF3FF
:104070000080FEF7FDFF00F002F80120704700F01D
:1040800001B800000746384600F002F8FBE70000E0
:1040900080B5AFF30080024A11001820ABBEFBE7E9
:1040A0002600020038B504460D46284600F006F802
:1040B000A84218BF0024204632BD00000149FFF786
:1040C000FFB800BF4429002001488047014800474D
:1040D000853E0008D9400008AFF30080FFF788FF55
:1040E000FFF7BEFF0000000001020304FFF7FEBF60
:1040F000FFF7FEBFFFF7FEBFFFF7FEBFFFF7FEBFF4
:10410000FFF7FEBFFFF7FEBFFFF7FEBFFFF7FEBFE3
:10411000FFF7FEBFFFF7FEBFFFF7FEBFFFF7FEBFD3
:10412000FFF7FEBFFFF7FEBFFFF7FEBFFFF7FEBFC3
:10413000FFF7FEBFFFF7FEBFFFF7FEBFFFF7FEBFB3
:10414000FFF7FEBFFFF7FEBFFFF7FEBFFFF7FEBFA3
:10415000FFF7FEBFFFF7FEBFFFF7FEBFFFF7FEBF93
:10416000FFF7FEBFFFF7FEBFFFF7FEBFFFF7FEBF83
:10417000FFF7FEBFFFF7FEBFFFF7FEBFFFF7FEBF73
:10418000FFF7FEBFFFF7FEBFFFF7FEBFFFF7FEBF63
:10419000FFF7FEBFFFF7FEBFFFF7FEBFFFF7FEBF53
:1041A000FFF7FEBFFFF7FEBFFFF7FEBFFFF7FEBF43
:1041B000FFF7FEBFFFF7FEBFFFF7FEBFFFF7FEBF33
:1041C000FFF7FEBFFFF7FEBFFFF7FEBFFFF7FEBF23
:1041D000FFF7FEBFFFF7FEBFFFF7FEBFFFF7FEBF13
:1041E000FFF7FEBFFFF7FEBFFFF7FEBFFFF7FEBF03
:1041F000FFF7FEBFFFF7FEBFFFF7FEBFFFF7FEBFF3
:10420000FFF7FEBFFFF7FEBFFFF7FEBFFFF7FEBFE2
:10421000FFF7FEBFFFF7FEBFFFF7FEBFFFF7FEBFD2
:10422000FFF7FEBFFFF7FEBFFFF7FEBFFFF7FEBFC2
:10423000FFF7FEBFFFF7FEBFFFF7FEBFFFF7FEBFB2
:10424000FFF7FEBFFFF7FEBFFFF7FEBFFFF7FEBFA2
:10425000FFF7FEBFFFF7FEBF1003913D0008950476
:1042600012930412A90412BD0412F5041003493E6E
:1042700000085B04125704124D041007F13B0008BC
:10428000013C0008FF08122B08122D0412650412CD
:10429000592C126B04126704125D041003191600E6
:1042A00008AB04126F04133D1714110410035F19B7
:1042B00000087104128D04129D0412AF0443D51935
:1042C0002C924B3012830412950413191A641104B2
:1042D00013931B90110412D30412D70412DB04129F
:1042E000EB0412FB0412FF041003031C0008DF0898
:1042F00012E704900400040048001C04E0050800D4
:1043000048FFFF000004F13B0113B80B50100A09ED
:104310003D0002040101A82A0020F80492A804101C
:0B43200003812900206804F2820001E4
:04000005080040D9D6
:00000001FF
