:020000040800F2
:10000000B8090020A5900008459000084790000816
:10001000499000084B9000084D9000080000000037
:100020000000000000000000000000004F900008E9
:1000300051900008000000005390000855900008FF
:10004000C1900008C5900008C9900008CD90000834
:10005000D1900008D5900008D9900008DD900008E4
:10006000E1900008E5900008E9900008ED90000894
:10007000F1900008F5900008F9900008FD90000844
:100080000191000805910008099100080D910008F0
:100090001191000815910008199100081D910008A0
:1000A0002191000825910008299100082D91000850
:1000B0003191000835910008399100083D91000800
:1000C0004191000845910008499100084D910008B0
:1000D0005191000855910008599100085D91000860
:1000E0005990000861910008659100086991000825
:1000F0006D910008719100087591000879910008D0
:100100007D9100088191000885910008899100087F
:100110008D9100089191000895910008999100082F
:100120009D910008A1910008A5910008A9910008DF
:10013000AD910008B1910008B5910008B99100088F
:10014000BD910008C1910008C5910008C99100083F
:10015000CD910008D1910008D5910008D9910008EF
:10016000DD910008E1910008E5910008E99100089F
:10017000ED910008F1910008F591000800000000E1
:10018000F9910008FD91000801920008059200080D
:10019000099200080D9200081192000815920008BB
:1001A000199200081D92000821920008000000002A
:1001B000000000000000000000000000000000003F
:1001C000000000000000000000000000000000002F
:1001D000000000000000000000000000000000001F
:1001E000000000000000000000000000000000000F
:1001F00000000000000000000000038000038000F9
:10020000038000038000038000038000038000035C
:1002100080000380000100000100000000000000D9
:1002200000038000038000000000000000000000C8
:1002300000000000000000000000000000000000BE
:1002400000000000000E70000E70000E7000042010
:100250000004200004200004200000000000000032
:10026000000000000000000000000000000000008E
:10027000000000000000000000000000000000007E
:1002800000000000000000000000066000066000A2
:100290000660000660000660003FF8003FF80006B8
:1002A00060000CC0003FF8003FF8000CC0000CC01C
:1002B000000CC0000CC0000CC000000000000000DA
:1002C000000000000000000000000000000000012D
:1002D000800001800007B0000FF000187000187057
:1002E000001C00000F800007E00000F00018300044
:1002F0001C30001C70001FE0001BC00001800001CA
:10030000800001800001800000000000000000006B
:10031000000000000000000000000780000FC00087
:100320001CE0001860001860001CE0000FF80007D7
:10033000E0001FF000073800061800061800073814
:100340000003F00001E000000000000000000000D9
:10035000000000000000000000000000000000009D
:10036000000000000000000003F00007F0000C6037
:10037000000C00000C00000600000700000F9C00AD
:100380001DFC0018F0001870000FFC0007DC0000D6
:10039000000000000000000000000000000000005D
:1003A00000000000000000000000000000038000CA
:1003B0000380000380000100000100000100000133
:1003C000000000000000000000000000000000002D
:1003D000000000000000000000000000000000001D
:1003E000000000000000000000000000000000000D
:1003F000000000180000380000700000F00000E06D
:100400000000E00001C00001C00001C00001C00008
:1004100001C00001C00000E00000E000007000002A
:10042000700000380000180000000000000000000C
:10043000000000000000000000001800001C000088
:100440000E00000E000007000007000003800003FC
:100450008000038000038000038000038000070009
:10046000000700000F00000E00001C000018000034
:10047000000000000000000000000000000000007C
:1004800000000180000180000180001DB8001FF8FD
:100490000007E00003C00003C00006600006600023
:1004A000000000000000000000000000000000004C
:1004B000000000000000000000000000000000003C
:1004C000000000000000000000000000000000002C
:1004D0000180000180000180000180000180003F58
:1004E000FC003FFC000180000180000180000180D1
:1004F000000180000000000000000000000000007B
:1005000000000000000000000000000000000000EB
:1005100000000000000000000000000000000000DB
:1005200000000000000000000000000000000000CB
:1005300000000000000000E00000C00001C0000159
:1005400080000180000300000300000000000000A4
:10055000000000000000000000000000000000009B
:100560000000000000000000000000000000001F6C
:10057000F8001FF80000000000000000000000006C
:10058000000000000000000000000000000000006B
:10059000000000000000000000000000000000005B
:1005A000000000000000000000000000000000004B
:1005B000000000000000000000000000000000003B
:1005C00000000000000003C00003C00003C00000E2
:1005D000000000000000000000000000000000001B
:1005E0000000000000180000180000380000300073
:1005F00000700000600000600000C00000C000014A
:1006000080000180000300000300000600000600D7
:10061000000E00000C00001C000018000018000074
:1006200000000000000000000000000000000000CA
:10063000000003C00007E0000C30000C3000181868
:1006400000181800181800181800181800181800BA
:100650001818000C30000C300007E00003C0000048
:10066000000000000000000000000000000000008A
:100670000000000000000000000000800007800073
:100680001F80001D800001800001800001800001AA
:100690008000018000018000018000018000018055
:1006A000001FF8001FF8000000000000000000001C
:1006B000000000000000000000000000000000003A
:1006C000000007C0001FF00038300030180030185C
:1006D0000000180000300000600001C0000380002E
:1006E0000600000C00001800003FF8003FF8000072
:1006F00000000000000000000000000000000000FA
:100700000000000000000000000003C0000FE00037
:100710000C700000300000300000600003C00003D7
:10072000E0000070000018000018000018001838E1
:10073000001FF0000FC000000000000000000000DB
:1007400000000000000000000000000000000000A9
:10075000000000E00001E00001E00003600006602E
:10076000000660000C60000C600018600030600043
:100770003FF8003FF80000600003F80003F80000B5
:100780000000000000000000000000000000000069
:10079000000000000000000000001FF0001FF0003B
:1007A0001800001800001800001BC0001FF0001CFB
:1007B0003000001800001800001800001800303049
:1007C000003FF0000FC0000000000000000000002B
:1007D0000000000000000000000000000000000019
:1007E000000000F80003F8000700000E00000C00F5
:1007F000001800001BC0001FF0001C30001818007B
:100800001818001818000C38000FF00003E0000062
:1008100000000000000000000000000000000000D8
:10082000000000000000000000001FF8001FF8009A
:100830001818001838000030000030000070000068
:10084000600000600000E00000C00000C00001C0C7
:100850000001800001800000000000000000000096
:100860000000000000000000000000000000000088
:10087000000007E0000FF0001C38001818001818DE
:10088000000C300007E00007E0000C3000181800F2
:100890001818001818001C38000FF00007E00000BE
:1008A0000000000000000000000000000000000048
:1008B0000000000000000000000007C0000FF00072
:1008C0001C30001818001818001818000C38000FF9
:1008D000F80003D80000180000300000700000E0AD
:1008E000001FC0001F00000000000000000000000A
:1008F00000000000000000000000000000000000F8
:10090000000000000000000000000000000003C024
:100910000003C00003C00000000000000000000051
:1009200000000000000003C00003C00003C000007E
:1009300000000000000000000000000000000000B7
:1009400000000000000000000000000000000000A7
:1009500000000000000000F00000F00000F00000C7
:10096000000000000000000000000000E00001C0E6
:100970000001800001800003000002000000000070
:100980000000000000000000000000000000000067
:100990000000000000000000001C00003C0000F00F
:1009A0000003C0000F00003C0000F000003C00000D
:1009B0000F000003C00000F000003C00001C00001D
:1009C0000000000000000000000000000000000027
:1009D0000000000000000000000000000000000017
:1009E0000000000000000000007FFC007FFC000011
:1009F00000000000007FFC007FFC00000000000001
:100A000000000000000000000000000000000000E6
:100A100000000000000000000000000000000000D6
:100A200000000000000000007000007800001E00C0
:100A30000007800001E000007800001E0000780040
:100A400001E0000780001E00007800007000000038
:100A50000000000000000000000000000000000096
:100A60000000000000000000000000000007C000BF
:100A70000FE00018700018300018300000700000FF
:100A8000E00003C00003800003000000000000003D
:100A90000007000007000000000000000000000048
:100AA0000000000000000000000000000000000046
:100AB000000003E00007F0000E38000C1800187862
:100AC0000018F80019D80019980019980019980012
:100AD00018F8001878001800000C00000E18000725
:100AE000F80003E00000000000000000000000002B
:100AF000000000000000000000000000001F800057
:100B00001FC00001C0000360000360000630000643
:100B100030000C30000FF8001FF800180C00300CEB
:100B200000FC7F00FC7F00000000000000000000CF
:100B300000000000000000000000000000000000B5
:100B400000000000007FE0007FF000183800181857
:100B5000001818001838001FF0001FF800181C00BB
:100B6000180C00180C00180C007FF8007FF0000033
:100B70000000000000000000000000000000000075
:100B80000000000000000000000000000003EC0076
:100B90000FFC001C1C00180C00300C003000003052
:100BA0000000300000300000300000180C001C1C59
:100BB000000FF80003F0000000000000000000003B
:100BC0000000000000000000000000000000000025
:100BD00000000000007FC0007FF0001838001818E7
:100BE00000180C00180C00180C00180C00180C0051
:100BF000180C001818001838007FF0007FE0000083
:100C000000000000000000000000000000000000E4
:100C1000000000000000000000000000007FF8005D
:100C20007FF8001818001818001998001980001F84
:100C300080001F80001980001998001818001818EB
:100C4000007FF8007FF800000000000000000000B6
:100C50000000000000000000000000000000000094
:100C600000000000003FFC003FFC000C0C000C0CDE
:100C7000000CCC000CC0000FC0000FC0000CC00066
:100C80000CC0000C00000C00003FC0003FC0000082
:100C90000000000000000000000000000000000054
:100CA0000000000000000000000000000003EC0055
:100CB0000FFC001C1C00180C00300C003000003031
:100CC000000030FE0030FE00300C00380C001C1C10
:100CD000000FFC0003F00000000000000000000016
:100CE0000000000000000000000000000000000004
:100CF00000000000007E7E007E7E0018180018189C
:100D0000001818001818001FF8001FF80018180025
:100D10001818001818001818007E7E007E7E00004B
:100D200000000000000000000000000000000000C3
:100D3000000000000000000000000000001FF8009C
:100D40001FF8000180000180000180000180000187
:100D5000800001800001800001800001800001808E
:100D6000001FF8001FF80000000000000000000055
:100D70000000000000000000000000000000000073
:100D8000000000000007FE0007FE000030000030F9
:100D90000000300000300000300030300030300003
:100DA0003030003030003060003FE0000F80000045
:100DB0000000000000000000000000000000000033
:100DC000000000000000000000000000007F3E0066
:100DD0007F3E0018300018600018C0001980001B0A
:100DE00080001FC0001CE000187000183000183888
:100DF000007F1F007F1F00000000000000000000B7
:100E000000000000000000000000000000000000E2
:100E100000000000007F80007F80000C00000C00BC
:100E2000000C00000C00000C00000C00000C0C007A
:100E30000C0C000C0C000C0C007FFC007FFC000074
:100E400000000000000000000000000000000000A2
:100E500000000000000000000000000000F00F0093
:100E6000F81F00381C003C3C003C3C00366C00364F
:100E70006C0033CC0033CC00318C00300C00300CD3
:100E800000FE7F00FE7F0000000000000000000068
:100E90000000000000000000000000000000000052
:100EA000000000000078FE0078FE001C18001E18EC
:100EB000001F18001B18001B980019D80018D80034
:100EC00018F8001878001838007F18007F18000004
:100ED0000000000000000000000000000000000012
:100EE0000000000000000000000000000003C0003F
:100EF0000FF0001C3800181800381C00300C0030AF
:100F00000C00300C00300C00381C001818001C3885
:100F1000000FF00003C0000000000000000000000F
:100F200000000000000000000000000000000000C1
:100F300000000000003FF0003FF8000C1C000C0C0B
:100F4000000C0C000C0C000C18000FF8000FE00057
:100F50000C00000C00000C00003FC0003FC000006F
:100F60000000000000000000000000000000000081
:100F70000000000000000000000000000003C000AE
:100F80000FF0001C3800181800381C00300C00301E
:100F90000C00300C00300C00381C001818001C38F5
:100FA000000FF00007C00007CC000FFC000C380059
:100FB0000000000000000000000000000000000031
:100FC00000000000007FE0007FF0001838001818D3
:100FD000001818001838001FF0001FC00018E000AB
:100FE0001870001830001838007F1E007F0E0000B7
:100FF00000000000000000000000000000000000F1
:101000000000000000000000000000000007D80001
:101010000FF8001C38001818001818001E00000FE8
:10102000C00003F0000078001818001818001C38E1
:10103000001FF0001BE000000000000000000000A6
:1010400000000000000000000000000000000000A0
:1010500000000000003FFC003FFC00318C00318CA0
:1010600000318C00318C0001800001800001800083
:101070000180000180000180000FF0000FF00000EF
:101080000000000000000000000000000000000060
:10109000000000000000000000000000007E7E0054
:1010A0007E7E00181800181800181800181800186C
:1010B00018001818001818001818001818000C301C
:1010C000000FF00003C0000000000000000000005E
:1010D0000000000000000000000000000000000010
:1010E00000000000007F7F007F7F00180C000C18BC
:1010F000000C18000C1800063000063000036000D9
:1011000003600003600001C00001C0000080000017
:1011100000000000000000000000000000000000CF
:1011200000000000000000000000000000FE3F8002
:10113000FE3F8030060030060030860019CC0019D2
:10114000CC001B6C001B6C001E7C000E38000E389F
:10115000000C18000C180000000000000000000047
:10116000000000000000000000000000000000007F
:1011700000000000007E7E007E7E001818000C300B
:101180000006600003C00001800001800003C00071
:101190000660000C30001818007E7E007E7E000085
:1011A000000000000000000000000000000000003F
:1011B000000000000000000000000000007C7E0035
:1011C0007C7E001818000C300006600006600003EA
:1011D000C0000180000180000180000180000180CA
:1011E000000FF0000FF00000000000000000000001
:1011F00000000000000000000000000000000000EF
:1012000000000000001FF8001FF800181800183038
:101210000018600018C000018000030000061800DC
:101220000C18001818003018003FF8003FF80000B4
:1012300000000000000000000000000000000000AE
:101240000000000000000000000001F00001F000BC
:101250000180000180000180000180000180000108
:101260008000018000018000018000018000018079
:101270000001800001800001800001F00001F00009
:10128000000000000000000000000000180000182E
:1012900000001C00000C00000E000006000006000C
:1012A0000003000003000001800001800000C00076
:1012B00000C000006000006000007000003000000E
:1012C00038000018000018000000000000000000B6
:1012D000000000000000000000000F80000F8000F0
:1012E0000180000180000180000180000180000178
:1012F00080000180000180000180000180000180E9
:10130000000180000180000180000F80000F80003C
:1013100000000000000000000000000000000000CD
:10132000800001C00003E0000770000630000C18C8
:1013300000180C0010040000000000000000000075
:10134000000000000000000000000000000000009D
:10135000000000000000000000000000000000008D
:10136000000000000000000000000000000000007D
:10137000000000000000000000000000000000006D
:10138000000000000000000000000000000000005D
:10139000000000000000000000000000000000004D
:1013A000000000000000FFFF00FFFF00000000033E
:1013B000000003800000E00000600000000000006A
:1013C000000000000000000000000000000000001D
:1013D000000000000000000000000000000000000D
:1013E00000000000000000000000000000000000FD
:1013F00000000000000000000000000000000000ED
:101400000000000000000FC0001FE00000300000DE
:10141000300007F0001FF00038300030300030702E
:10142000001FFC000FBC00000000000000000000D6
:1014300000000000000000000000000000000000AC
:1014400000007800007800001800001800001BE081
:10145000001FF8001C1800180C00180C00180C00D5
:10146000180C00180C001C18007FF8007BE000002E
:10147000000000000000000000000000000000006C
:10148000000000000000000000000000000000005C
:1014900000000000000003EC000FFC001C1C0038E2
:1014A0000C00300C00300000300000380C001C1C18
:1014B000000FF80003F00000000000000000000032
:1014C000000000000000000000000000000000001C
:1014D000000000780000780000180000180007D80D
:1014E000001FF800183800301800301800301800BD
:1014F0003018003018001838001FFE0007DE00000A
:1015000000000000000000000000000000000000DB
:1015100000000000000000000000000000000000CB
:1015200000000000000007E0001FF800181800305D
:101530000C003FFC003FFC00300000300000180CA5
:10154000001FFC0007F00000000000000000000089
:10155000000000000000000000000000000000008B
:10156000000001FC0003FC000600000600003FF83C
:10157000003FF8000600000600000600000600001C
:101580000600000600000600003FF0003FF00000EB
:10159000000000000000000000000000000000004B
:1015A000000000000000000000000000000000003B
:1015B00000000000000007DE001FFE0018380030A9
:1015C0001800301800301800301800301800183893
:1015D000001FF80007D800001800001800003800AD
:1015E0000FF0000FC000000000000000000000002D
:1015F00000007800007800001800001800001BE0D0
:10160000001FF0001C3800181800181800181800E7
:101610001818001818001818007E7E007E7E000042
:1016200000000000000000000000000000000000BA
:1016300000000000000000000000018000018000A8
:101640000000000000001F80001F800001800001DA
:101650008000018000018000018000018000018085
:10166000003FFC003FFC0000000000000000000004
:10167000000000000000000000000000000000006A
:10168000000000C00000C0000000000000001FF0CB
:10169000001FF0000030000030000030000030007B
:1016A000003000003000003000003000003000004A
:1016B00030000030000070001FE0001F80000000BC
:1016C000000000000000000000003C00003C0000A2
:1016D0000C00000C00000CF8000CF8000CC0000D11
:1016E00080000F80000F00000F80000DC0000CE094
:1016F000003C7C003C7C000000000000000000007A
:1017000000000000000000000000000000000000D9
:1017100000001F80001F8000018000018000018008
:101720000001800001800001800001800001800034
:101730000180000180000180003FFC003FFC0000B0
:101740000000000000000000000000000000000099
:101750000000000000000000000000000000000089
:10176000000000000000F77800FFFC0039CC0031D9
:101770008C00318C00318C00318C00318C00318C2C
:1017800000FDEF00FDEF0000000000000000000081
:101790000000000000000000000000000000000049
:1017A00000000000000000000000000000007BE0DE
:1017B000007FF0001C3800181800181800181800D6
:1017C0001818001818001818007E7E007E7E000091
:1017D0000000000000000000000000000000000009
:1017E00000000000000000000000000000000000F9
:1017F00000000000000003C0000FF0001C3800389B
:101800001C00300C00300C00300C00381C001C3860
:10181000000FF00003C00000000000000000000006
:1018200000000000000000000000000000000000B8
:1018300000000000000000000000000000007BE04D
:10184000007FF8001C1800180C00180C00180C0081
:10185000180C00180C001C18001FF8001BE00018E2
:1018600000001800001800007F00007F000000004A
:101870000000000000000000000000000000000068
:1018800000000000000007DE001FFE0018380030D6
:1018900018003018003018003018003018001838C0
:1018A000001FF80007D800001800001800001800FA
:1018B00000FE0000FE00000000000000000000002C
:1018C00000000000000000000000000000003E7862
:1018D000003EFC0007CC00070000060000060000E8
:1018E0000600000600000600003FF0003FF0000088
:1018F00000000000000000000000000000000000E8
:1019000000000000000000000000000000000000D7
:1019100000000000000007F8000FF8001818001879
:1019200018001F80000FF00000F800181800183889
:10193000001FF0001FE00000000000000000000099
:101940000000000000000000000000000000000097
:1019500000000C00000C00000C00000C00003FF028
:10196000003FF0000C00000C00000C00000C000018
:101970000C00000C00000C1C0007FC0003F0000031
:101980000000000000000000000000000000000057
:101990000000000000000000000000000000000047
:1019A000000000000000787800787800181800180F
:1019B00018001818001818001818001818001838FF
:1019C000000FFE0007DE0000000000000000000025
:1019D0000000000000000000000000000000000007
:1019E00000000000000000000000000000007C3E3D
:1019F000007C3E001818001818000C30000C300055
:101A000006600006600007E00003C00003C000009D
:101A100000000000000000000000000000000000C6
:101A200000000000000000000000000000000000B6
:101A3000000000000000783C00783C0031180033C2
:101A400098003398001AB0001EF0001EF0001C60D1
:101A5000000C60000C6000000000000000000000AE
:101A60000000000000000000000000000000000076
:101A700000000000000000000000000000003E7CAC
:101A8000003E7C000C300006600003C000018000B6
:101A900003C0000660000C30003E7C003E7C00006D
:101AA0000000000000000000000000000000000036
:101AB0000000000000000000000000000000000026
:101AC0000000000000007E1F007E1F00180C000CAC
:101AD00018000C180006300006300003600003E018
:101AE0000001C00000C00001800001800003000070
:101AF0003FC0003FC00000000000000000000000E8
:101B000000000000000000000000000000001FF8BE
:101B1000001FF80018300018600000C000018000AD
:101B20000300000618000C18001FF8001FF8000042
:101B300000000000000000000000000000000000A5
:101B40000000000000000000000000E00001E000D4
:101B500001800001800001800001800001800001FF
:101B600080000380000700000380000180000180E6
:101B70000001800001800001800001E00000E00021
:101B80000000000000000000000000000000000055
:101B900000000180000180000180000180000180C0
:101BA00000018000018000018000018000018000B0
:101BB000018000018000018000018000018000019F
:101BC0008000018000018000000000000000000093
:101BD0000000000000000000000007000007800077
:101BE000018000018000018000018000018000016F
:101BF000800001C00000E00001C000018000018001
:101C000000018000018000018000078000070000C3
:101C100000000000000000000000000000000000C4
:101C200000000000000000000000000000000000B4
:101C3000000000000E00001F18003BB80031F0004B
:101C400000E00000000000000000000000000000B4
:101C50000000000000000000000000000000000084
:101C60000000000000000000000000000000000074
:101C7000001010101010000010000000006C484808
:101C80000000000000000000001414287C287C28BC
:101C900050500000001038404038487010100000CC
:101CA000002050200C7008140800000000000018EC
:101CB00020205448340000000010101010000000D4
:101CC0000000000000080810101010101008080094
:101CD00000202010101010101020200000107C1088
:101CE00028280000000000000000101010FE101056
:101CF000100000000000000000000018103020005C
:101D000000000000007C0000000000000000000057
:101D1000000000303000000000040408081010200B
:101D2000204000000038444444444444380000004B
:101D300000301010101010107C0000000038440417
:101D4000081020447C0000000038440418040444B7
:101D500038000000000C141424447E040E0000001F
:101D6000003C20203804044438000000001C2040BF
:101D70007844444438000000007C440408080810FB
:101D80001000000000384444384444443800000047
:101D900000384444443C0408700000000000003057
:101DA000300000303000000000000018180000185B
:101DB0003020000000000C10608060100C0000005B
:101DC000000000007C007C00000000000000C0203B
:101DD00018041820C0000000000018240408100097
:101DE000300000003844444C54544C404438000007
:101DF0000030102828287C44EE00000000F84444FD
:101E000078444444F8000000003C444040404044D2
:101E10003800000000F0484444444448F00000000A
:101E200000FC445070504044FC000000007E22281A
:101E30003828202070000000003C4440404E4444BC
:101E40003800000000EE44447C444444EE000000AE
:101E5000007C1010101010107C000000003C0808DE
:101E6000084848483000000000EE4448507048449C
:101E7000E600000000702020202024247C000000C8
:101E800000EE6C6C54544444EE00000000EE6464B8
:101E90005454544CEC00000000384444444444443E
:101EA000380000000078242424382020700000002E
:101EB0000038444444444444381C000000F844447E
:101EC00044784844E200000000344C403804046484
:101ED0005800000000FE9210101010103800000092
:101EE00000EE4444444444443800000000EE4444BE
:101EF000282828101000000000EE44445454545484
:101F00002800000000C6442810102844C600000025
:101F100000EE44282810101038000000007C44080F
:101F2000101020447C0000000038202020202020B9
:101F30002020380000402020201010080808000051
:101F40000038080808080808080838000010102899
:101F5000440000000000000000000000000000003D
:101F6000000000FE0010080000000000000000005B
:101F700000000038443C44443E00000000C040588B
:101F800064444444F80000000000003C44404044E5
:101F900038000000000C04344C4444443E0000006F
:101FA00000000038447C40403C000000001C207CC5
:101FB000202020207C000000000000364C444444D7
:101FC0003C04380000C0405864444444EE00000023
:101FD00000100070101010107C000000001000783D
:101FE000080808080808700000C0405C48705048A5
:101FF000DC00000000301010101010107C000000F9
:10200000000000E854545454FE000000000000D8C2
:1020100064444444EE00000000000038444444445A
:1020200038000000000000D8644444447840E000D8
:10203000000000364C4444443C040E000000006C98
:10204000302020207C0000000000003C4438044484
:10205000780000000000207C202020221C000000CE
:10206000000000CC4444444C36000000000000EE68
:102070004444282810000000000000EE445454544A
:1020800028000000000000CC48303048CC000000A0
:10209000000000EE44242818101078000000007C96
:1020A000481020447C000000000810101010201080
:1020B0001010080000101010101010101010000068
:1020C0000020101010100810101020000000000058
:1020D0000024580000000000000000000000000084
:1020E00020202020002000005050000000000000B0
:1020F0002850F850F850A0002030603010602000C8
:102100002020186010100000003820605078000077
:10211000202020000000000010202020202010009F
:10212000402020202020400020702050000000008F
:10213000002020F8202000000000000010202000D7
:1021400000000070000000000000000000200000FF
:10215000102020204040800020505050502000008F
:102160006020202020F80000205020204070000037
:1021700020501020106000001030507810380000FF
:1021800070406010502000003040605050600000EF
:1021900070501020202000002050205050200000BF
:1021A000305050301060000000002000002000007F
:1021B0000000100010200000001020C020100000BF
:1021C0000070007000000000004020182040000057
:1021D0002050102000200000304848584840380067
:1021E0006020507088D80000F048704848F0000027
:1021F0007050404040300000F048484848F000002F
:10220000F848604048F80000F848604040E00000AE
:102210007040405850300000E848784848E80000D6
:102220007020202020700000381010505020000036
:10223000D850607050D80000E040404048F800009E
:10224000D8D8D8A888D80000D868685858E80000BE
:102250003048484848300000F048487040E00000EE
:102260003048484848301800F048487048E80000B6
:102270007050201050700000F8A82020207000003E
:10228000D848484848300000D888485050300000AE
:10229000D888A8A8A8500000D850202050D8000006
:1022A000D88850202070000078481020487800001E
:1022B00030202020202030008040402020201000AE
:1022C000602020202020600020205000000000001E
:1022D00000000000000000F82010000000000000D6
:1022E0000000301070780000C040704848F00000D6
:1022F000000070404070000018083848483800005E
:10230000000070704030000010207020207000002D
:102310000000384848380830C040704848E800009D
:10232000200060202070000020007010101010703D
:10233000C040587050D8000060202020207000005D
:102340000000D0A8A8A800000000F04848C800007D
:1023500000003048483000000000F048487040E07D
:102360000000384848380818000078202070000025
:1023700000003020106000000040F04048300000B5
:102380000000D848483800000000C848303000003D
:102390000000D8A8A85000000000483030480000D5
:1023A0000000D850502020600000785028780000AD
:1023B000102020602020100020202020202020003D
:1023C0004020203020204000000000285000000065
:1023D00003E011F8013B00F8013B13465A1E002BA5
:1023E000F7D17047130003D00A46194601F0D8BA56
:1023F0007047F0B54FF400740444002200230C250C
:10240000DFF8100B05FB03F6064437686FB1D4F80C
:1024100000C0674502BF7768D4F808C0674502BFAF
:102420003689E788BE4201D103E001225B1C0C2BF8
:10243000E8D30C2B04D16AB902290BD01220F0BDCD
:1024400031B905FB03F108444089B0F5807F01D123
:102450001020F0BD0020F0BDF0B54FF4007318441B
:102460000368D0F808C0DFF8AC5A00220C2404FB43
:1024700002F62E4437689F4204BF7768674502BF63
:102480003689C788BE4202D0521C0C2AEFD30C2AD0
:1024900013D1002204FB02F6AE5916B1521C0C2ACD
:1024A000F8D30C2A0FD004FB02F62E443360836865
:1024B0007360C08830810020708104FB02F02844E2
:1024C000438929B10BB10020F0BD4FF4807100E0C9
:1024D000591C4181501CF0BD10B5401E0C2815D26E
:1024E0000C214843DFF82C1A0A185389B3F5807F72
:1024F00001D01C0002D10023538103E05B1E5381F5
:102500009BB20BB900220A50002010BD022010BD62
:1025100010B50021DFF8FC290C234B43D45884422A
:1025200004BF0024D450491C0C29F5D310BD2DE95B
:10253000F843814609F201260024F078D0B14FF427
:10254000067009EB0007D7F8148000F016F808B100
:1025500001240FE0F070B8683968A8EB00008842E9
:1025600008D2B57804E03868804400F006F86D1EA3
:10257000022DF8D22046BDE8F2833078012342468E
:10258000494601F05FBA70B504460D46D4F82C02F6
:102590000026854211D02046FFF7C9FF06000CD166
:1025A00094F8010201232A46214601F045FA10B1B0
:1025B0004FF0FF350126C4F82C52304670BD70B57F
:1025C0000446FFF7B4FF050042D14FF4F27026181D
:1025D000307F032804BF94F80502012831D101F0AF
:1025E000C0F901F0C7F95220207060706120A0701E
:1025F0004120E07001F0C4F94FF4037020444168B9
:10260000317141680904090E71714168090CB17199
:102610004168090EF1710168317201680904090EFF
:1026200071720168090CB1720168090EF1720169D9
:102630004A1C02622146707F01F004FA002084F8EF
:1026400005020022707F002101F00AFA00B1012585
:10265000284670BD4FF405720244891E13689B1E04
:1026600099422FBF002090F80202526900FB01201E
:1026700070472DE9F8430D46022D044652D34FF41E
:1026800000702618706985424CD2307801284FF0CE
:10269000FF3804D046D303282DD01DD342E0306A42
:1026A00005EB550700F038FC00283DD1C7F30800C2
:1026B0007F1C14F80090306A00F02EFC002833D103
:1026C000C7F30800205C49EA0021E80754BFC1F3C2
:1026D0000B084FEA111827E0306A00EB152100F0D3
:1026E0001DFC08BB6800C0F3080020444178007856
:1026F00040EA012818E0306A00EBD51100F00EFC2A
:1027000090B9A800C0F3080020448278C178120470
:1027100042EA01614278007841EA0221084320F050
:10272000704801E04FF001084046BDE8F2832DE912
:10273000F0410C46022C8046154667D34FF40070DA
:1027400008EB00067069844260D23078012804D01A
:102750005CD303283ED02CD358E0306A04EB5407F6
:1027600000F057F8010052D1C7F308007F1C08EBB6
:10277000000114F001041DBF087800F00F0040EACA
:1027800005102846087001203071306A00F041F8C9
:1027900001003CD1C7F3080141440CB12A0906E00D
:1027A0000A782B0A02F0F00203F00F031A430A70B2
:1027B00029E0306A00EB14214046FFF7E4FE0100F7
:1027C00025D16100C1F3080141440D702D042A0E8A
:1027D0004A7018E0306A00EBD4114046FFF7D3FE90
:1027E000010014D1A100C1F308014144CA781206C6
:1027F00002F0704215432A04120E4A700D702A0C22
:102800008A702A0ECA700121317100E00220BDE8F1
:10281000F08100EB57214046B5E62DE9F0418846AE
:10282000B8F1020F04460ED34FF4047025186868FF
:10283000804508D2002741462046FFF71AFF0600D0
:102840001FD0012E01D102271BE016F1010F01D18B
:10285000012716E0002241462046FFF768FF0700E7
:102860000FD1286810F1010F07D0401C286094F8A0
:10287000050240F0010084F80502B0466868804512
:10288000D9D33846BDE8F0812DE9F04180460D00EE
:102890004FF4037008EB000606D1346814B1B06839
:1028A00084420FD301240DE04046FFF7E2FE0228E8
:1028B00038BF01203ED310F1010F3BD0B1688842F0
:1028C00038D32C462746B0687F1C874202D30227A4
:1028D000022C27D339464046FFF7CBFED8B96FF01C
:1028E000704239464046FFF722FF28B92DB13A46DB
:1028F00029464046FFF71BFFB0B97068376010F1FA
:10290000010F16D0401E706098F8050240F00100DB
:1029100088F805020DE010F1010F18BF012809D059
:10292000A742D0D1002005E001280CBF4FF0FF37AF
:1029300001273846BDE8F0814FF400721044490A7F
:10294000426A006890F80202121DB1FBF0F001E04B
:10295000401A0832116809B9002070478842F7D23E
:10296000516808187047F8B50C464FF400714518C7
:10297000AE68EC80012E2BD02868084441698E4255
:1029800026D21EB90178032901D1466A26B90189E8
:102990008C421DD2406A19E08078070100E0E41BF8
:1029A0002868BC4231460FD3FFF763FE064616F196
:1029B000010F01D10120F2BD022E09D32868D0F801
:1029C00014028642EBD303E0FFF744FEEE6008B941
:1029D0000220F2BD00EB141028616101286801F4A7
:1029E000F071084468610020F2BDF8B50F464FF45D
:1029F00000714418E088451C28041CBF2069002889
:102A000020D015F00F0F5FD1401C20612068E168D5
:102A100000F2022219B9D088854255D312E012780B
:102A2000521E12EA151F4FD1FFF723FE0646022E53
:102A300013D316F1010F3BD02068D0F814128E4248
:102A40003DD30FB90420F2BDE168FFF71DFF06007A
:102A500001D10720F2BD012E01D10220F2BD16F1F5
:102A6000010F25D02068FFF762FD08BB20684FF4F6
:102A7000007200F0AEF820683146FFF7EBFD2168E8
:102A8000C1F82C02002706E02068D0F82C12491C5F
:102A9000C0F82C127F1C206800F202210A789742AD
:102AA00008D2012088702068FFF741FD0028EBD094
:102AB0000120F2BDD0F82C12C91BC0F82C12E66020
:102AC000314600F047FD206169012068E58001F48E
:102AD000F071084460610020F2BD90F80002CA7EE7
:102AE0008B7E032843EA022205D1487D097D41EA15
:102AF000002042EA00421046704781760A04090C21
:102B00000175120E090AC2764175704770B50D46FF
:102B100004464FF40071042066183169E9B100F0F1
:102B200055F8010019D171690A780AB9042016E034
:102B3000C97A01F03F01E52A1CBF2E2A0F2908D0CF
:102B40006FF02002114008290CBF01210021A94289
:102B500007D000F08CF90100DFD0010001D0002186
:102B6000316170BDF8B504460021FFF7FCFE00F0AE
:102B7000EEFE14D1002700F028F805000FD170698F
:102B80000078E5281CBF0028002702D17F1C012FF8
:102B900008D001212046FFF728FF0500EBD0042DC7
:102BA00008BF072528000ED100F00FF805000AD154
:102BB000706900F00DF8B16970690B22FFF708FC2D
:102BC000316800F0CAFE2846F2BD31693068DAE4A7
:102BD00020220021FFF706BC30B54FF404731844DF
:102BE00001F10902036843B340680023C45C5B1C25
:102BF000202C09D0052C08BFE524092B04BF2E2565
:102C000002F8015B02F8014B0B2BEFD3C37A0B7276
:102C1000847FC37F240444EA0363447F43EA04239C
:102C2000047F23430B60047E437E44EA03238B80AE
:102C3000C37D807D40EA0320C8800020107030BD35
:102C40002DE9F8430C46256800E06D1C29782F29F2
:102C500018BF5C29F9D0D0F818620B222021304629
:102C6000FFF7C0FB00200022804608210FF2C40CB1
:102C70000FF2D00E04E0082940D108200B213A467B
:102C800015F808309700212B08F10108FFB203DB8B
:102C90002F2B18BF5C2B06D14544212B2560B4BFD8
:102CA0000423002329E02E2BE5D0884226D2802B56
:102CB00004DB734442F0030213F8803CE14601E078
:102CC00009F1010999F80070002F18BF9F42F7D150
:102CD000A7B9A3F141071A2F03D242F00202D2B2E0
:102CE00008E0A3F161071A2F04D242F00102203B51
:102CF000D2B2DBB23354401CC2E708B9062015E05B
:102D00003078E52804BF05203070082908BF3A460E
:102D100002F00300012808BF43F0100302F00C008A
:102D2000042808BF43F00803F3720020BDE8F283D3
:102D300000000000222A2B2C3A3B3C3D3E3F5B5DCD
:102D40007C7F0000808182838485868788898A8B46
:102D50008C8D8E8F90919293949596979899AD9B28
:102D60008C9DAE9FA021A2A3A4A5A6A7A8A9AAABAB
:102D7000ACADAEAFB0B1B2B3B4B5B6B7B8B9BABB1B
:102D8000BCBDBEBFC0C1C2C3C4C5C6C7C8C9CACB0B
:102D9000CCCDCECFD0D1D2D3D4D5D6D7D8D9DADBFB
:102DA000DCDDDEDFC0C1C2C3C4C5C6C7C8C9CACB6B
:102DB000CCCDCECFD0D1D2D3D4D5D6F7D8D9DADBBB
:102DC000DCDDDE9FF2B5044608782F2812BF5C28B0
:102DD000481C00904FF4007025180020A86000984F
:102DE0000078202808D200F0AAFD00216961F2BD18
:102DF0002868FFF772FEA86069462046FFF720FFAB
:102E0000010033D100F09BFD01001ED12969286823
:102E1000FFF7B9FB010018D169690A780AB90420E3
:102E200013E0CA7A12070CD4AB690B2200261746AE
:102E30007A1E2FB111F8016B13F8017BF61BF6D047
:102E40001EB100F014F80100E0D0A969C97A0200AF
:102E500001F0040104D0042808BF002906D104E0D1
:102E600021B96969C87AC006C2D40520F2BD002123
:102E70002046BAE510B502684FF0FF31BAB11346EB
:102E800000E05B1C1C78212C01D33A2CF9D13A2CA0
:102E90000CD112F8014B303C0A2C08D29A4208BFE0
:102EA000002C04D15A1C0021026000E000210846D9
:102EB00010BD38B504464FF4FF7025180020A871E6
:102EC0004FF0FF30C4F82C0200F028F808B10320BE
:102ED00032BD6878297800F083F901D0022032BD34
:102EE00004F13600DFF82415437882781B0243EAA8
:102EF000024203781A438A4208D0437F827F007FD0
:102F00001B0243EA02421043884201D1002032BD35
:102F1000012032BDCC1E002000EB57212046FFF7D8
:102F200032BB2DE9F04F074685B0002038601446CB
:102F30000846FFF79FFF0546002D48BF0B2006D42B
:102F4000DFF8CC9409EB850046680EB90C2044E10B
:102F50003E604FF4F2703718387F48B1787F00F048
:102F600053FDC10704D4002C01D040070DD433E138
:102F7000002038777D77787F00F04FFDC10748BF8C
:102F8000032003D41CB1400701D50A2025E100210C
:102F90003046FFF78EFF0446012C4FF000082BD17E
:102FA000002006EB00114FF4DF7211440A7952B190
:102FB0008B7ACA7A1B0443EA02624B7A097A42EAA4
:102FC0000322114300E000214DF82010401C04288A
:102FD000E7D3C2465DF82A80B8F1000F04D041461D
:102FE0003046FFF766FF00E00220040004D00AF13B
:102FF000010ABAF1040FEDD3032C08BF0120C5D09C
:10300000002C01BF307BF17A41EA0020B0F5007F4F
:1030100019D1F07DB17D51EA002206F1210109D1DB
:103020004A798879120442EA00600A7940EA02206B
:10303000CA7802434FF403703518EA60307CF877A1
:10304000012818BF022871D14243737BBB77180057
:103050006CD05C1E234269D1B07C747C06F2062AD7
:1030600044EA002C0F241CEA040FAAF802C05DD128
:10307000307DF47C54EA00240AD14C78887824040A
:1030800044EA00600C7840EA042096F820400443AB
:10309000F07B96F80EE05EEA002047D002EB000ECF
:1030A0000EEB1C1E744541D3A4EB0E04B4FBF3F3EA
:1030B000002B3BD0012440F6F67B5B4528BF022461
:1030C0004FF6F67B5B4528BF03249B1CAB60C5F81D
:1030D000108040446861032C0EEB0800E8610FD1BA
:1030E000BCF1000F22D14A7B887B120442EA0060C7
:1030F0000A7B40EA0220CA7A1043AA6892000EE0D6
:10310000BCF1000F12D068691018AA68022C0FBF1A
:10311000520002EB420302F0010202EB5302A861EB
:1031200002F2FF12E868B0EB522F01D20D2054E0FA
:103130004FF0FF3068602860802086F80502032C7D
:1031400001BF087CC97B41EA0020012839D108F180
:1031500001013046FFF717FA002832D186F8050240
:10316000B97EF87E00F03CF82BD1B178F07800F011
:1031700057F9717840EA012031780843A54988421F
:103180001FD1B978F87800F04BF9797840EA01203E
:1031900039780843A049884213D1B979F87900F009
:1031A0003FF9797940EA0120397908436860B97AB2
:1031B000F87A00F035F9797A40EA0120397A084343
:1031C00028603C77B9F80000401CA9F80000AAF874
:1031D00000003046FFF79CF9002005B0BDE8F08FF5
:1031E00041EA00204AF655218842704780B5002800
:1031F0001FBF4FF400714018016800290DD04FF433
:10320000007211440A7842B1CA888088824204D18F
:10321000487800F0F9FBC00701D5092002BD002065
:1032200002BD73B582B0144600916846FFF722FED6
:10323000002848BF0B201FD4754901EB80056E683C
:103240002EB13046FFF764F9002086F8000202989C
:1032500008B9686009E00299002081F8000202982C
:103260006860029808B1012C01D0002004E000221F
:1032700003A902A8FFF755FE04B070BD2DE9F24383
:10328000ADF50C7D08B90920BBE04FF4007144187E
:103290000020206002F01F0505F0FE0200F053FB45
:1032A000070068D10DF503788C99C8F818D000F0A4
:1032B0005EFB0700D8F814600AD10EB9062707E0B4
:1032C00015F0FE0118BF012103A8FFF792F8074689
:1032D0001C2005426CD0380062D0042F10D1002091
:1032E0004E490C2242438A5812B1401C0C28F8D394
:1032F0000C2808BF122703D003A8FFF733FC0746AA
:10330000D8F81460380045F0080533D1280737D5C0
:1033100000F0B4FB01460004B173000EF073080C1A
:103320003074080E707431460020F0723077707778
:10333000B077F0778398FFF7D0FB814600213046C5
:10334000FFF7DBFB83990120B9F1000F81F804023C
:1033500012D08398D0F82C824946FFF75EFA070016
:1033600008D18398A9F10101C0F80C124146FFF77A
:103370000AF90746380043D1280748BF45F0200521
:103380008398D0F82C02E06115F0FE01266218BF88
:10339000012103A8FFF760F8A062B0B902272FE06F
:1033A000F07A112108420ED16807AFD5082727E02F
:1033B0003800DFD1F07AC10648BF042720D4A9071E
:1033C000DAD5C007D8D507271AE0A5710020E0712B
:1033D0003146839D2846FFF780FB2061B17FF07F57
:1033E00000F01EF8717F40EA0120317F256008431C
:1033F000E0600020A060A0616062B5F80602A080D5
:1034000038460DF50D7DBDE8F083000046415400BF
:10341000042000205252614172724161CC1E002092
:10342000090441EA006070472DE9F84F81461F46C4
:1034300000203860924688464846FFF7D7FE0100D4
:1034400001D100F0A3F840F08280A079C00758BFF6
:1034500007207CD5E068A168401A504517D88246FD
:1034600015E0A66100F07FF855468A4588BF0D46F5
:1034700009EB00012A464046FEF7AAFFA06828187B
:10348000A060A844386828183860AAEB050ABAF189
:10349000000F5BD0A168C805E4D100F06FF88DB9CA
:1034A00009B9206908E0626A1AB14846FFF744FA90
:1034B00002E06169FFF7DDF8022806D310F1010F81
:1034C00041D0606100F045F808B902203CE02E18B8
:1034D0005FEA5A2B21D0206800F201200BEB050295
:1034E00041780078914238BFA1EB050B5B4632462C
:1034F000414600F0A1FA30BBA07940060AD5A06988
:10350000801B584506D24FF40072494608EB402014
:10351000FEF75EFF4FEA4B25B0E7A269B242A0D0AA
:10352000A079400605D5206800F017F858B900F0DA
:1035300020F80123206890F801023246494600F045
:103540007BFA00288DD00120E07100E00020BDE86A
:10355000F28F61692068FFF77DB890F801020123BE
:10356000494600F06FBAA068C0F30800C0F50071CA
:103570007047A07900F0BF00A0717047206890F8F4
:1035800002325B1E03EA5125EDB270474FF4007022
:1035900009EB0004E0790100704738B50546FFF7F4
:1035A00025FE010047D14FF400716C18A1798A06FD
:1035B00041D548060BD52068A26990F80102012385
:1035C00000F0E6F908B1012032BDFFF7D2FFE16952
:1035D0002068FEF7D8FF01002DD1256AE87A40F077
:1035E0002000E872E0682877E0680004000E687741
:1035F000E068000CA877E068000EE87728462169AB
:10360000FFF77BFA00F03AFAA8750104090EE97594
:10361000010C000E687629760020A874E874A07961
:10362000216800F0DF00A07100F097F92068BDE884
:103630003240FEF7C4BF32BD10B50446FFF7ADFF00
:1036400001000ED12046FFF7D1FD010009D14FF452
:1036500000700444A06AFEF73FFF010004BF002190
:10366000216010BD2DE9F84F81460F46FFF7BEFDE2
:103670005FEA00083ED14FF4007009EB0005E879DD
:10368000010040F0E580686A002867D017F1010F5B
:1036900031D18146286959F8047B022608B30446D3
:1036A0004FF0000AB61C834601462868FEF7E1FF8A
:1036B00002280AF1010AC0F0A58010F1010F76D0AE
:1036C0000BF101018842EED0B74205D3C9F800A042
:1036D000C9F8044009F108092968D1F81412884290
:1036E000DDD3686A0660B74232BF4FF01108002090
:1036F000C9F80000ABE0E868B84298BF0746002F61
:10370000AF60F7D07F1E39464846FFF715F968616C
:1037100001462868FEF79EFF040073D0286800F277
:1037200001204178491E01EA57210C19A968C905F1
:103730001CBFAA69944210D0A979490608D500781F
:10374000FFF70DFF002875D1A87900F0BF00A87120
:1037500000F080F800286DD1AC6178E0E868B842EC
:1037600003D2A979890758BF0746A9680024002F0A
:10377000AC604BD0286890F80222560271B1491E05
:103780007B1EB1FBF6F2B3FBF6F3934206D3701E39
:1037900021EA00006969A8603F1A0BE0296941B974
:1037A000FFF772F8014601292CD011F1010F41D029
:1037B0002961696191B929E0FEF75BFF014611F1CA
:1037C000010F37D002291DD32868D0F81402814296
:1037D00018D2A86869613018A860BF1BBE4208D221
:1037E000AA7928689207E7D5FFF74EF80100E6D1DD
:1037F0003746A8683818A860F80507D02868FEF78B
:1038000029FF08B9022016E000EB5724A868C0057C
:103810001CBFAA69944211D0A879400607D5286830
:10382000FFF79BFE30B9A87900F0BF00A87100F047
:1038300011F810B10120E8710AE0AC61A868E968EC
:10384000814204D2E860A87940F02000A871404687
:10385000BDE8F28F0123286890F80102224649460C
:1038600000F0EAB872B5040085B008BF09203CD06A
:10387000002205A96846FFF754FB06004FF40070CC
:1038800004EB00052CD10098286001A8A86120460F
:103890000599FFF797FA06001ED1696931B1C87A18
:1038A000C0061BD50098FFF718F9A8600021009802
:1038B000B0F80602A8802046FFF755F806000BD1A5
:1038C000A86808B9E8610FE000212046FEF7C4FDB2
:1038D000E86148B9122605E0042E01D1052601E071
:1038E000300001D000202860304606B070BD70B5B1
:1038F00084B004460D46FFF779FC01001DD115B9CF
:1039000000F01DF819E04FF4047026180021C6F8E5
:1039100008D02046FFF7FAF8042802D100203060D2
:1039200001E0010009D129462046FFF755F9FFF7CC
:103930009EFA042804BF0020306004B070BD00214E
:103940002046FFF710B88CA983A8FFF7EABA050054
:103950004FF4007004EB00067047012081F8040268
:1039600070474FF4007200212046FEF73BBD03A8CC
:10397000FFF728BA5520B0760123AA20F0767047C9
:103980007220307070704120B0706120F07070470C
:10399000294600F057B80268531C03601170704745
:1039A00062F30F2262F31F42401810F0030308D0A5
:1039B000C91A1FD3DB0748BF00F8012D28BF20F824
:1039C000022D130030B414461546103928BF20E9E3
:1039D0003C00FAD8490728BF20E90C0048BF40F84E
:1039E000042D890028BF20F8022D48BF00F8012DC2
:1039F00030BC7047C91818BF00F8012DCB0728BF8D
:103A000000F8012D7047000001461B4A501802EBD8
:103A100081014968007A49680847174A0146002031
:103A2000535C43B901205054501802EB810149689E
:103A3000007A09680847704738B500F009F8A468AB
:103A4000A04732BD38B500F003F8E468A04732BDA6
:103A50000446094D281905EB84046468007A704710
:103A600010B50346044CE01804EB83035B68007A4E
:103A70001B69BDE810401847F81F00200020704760
:103A80004FF4E07210440268914203D343681A4431
:103A9000914202D380680028F5D17047DFF85C07B7
:103AA000016891B94FF4803181604FF480514160D9
:103AB0004FF0FF31C16001610421DFF8442741610B
:103AC000C2F8BC11DFF83C1701600120704701F11A
:103AD000080313F0070305D001F10803C3F108033D
:103AE00003F007031944D21A8161C26042F0010356
:103AF0004B60114428234B60DFF800170969C1614E
:103B000070472DE9F84F064601F1080010F0070054
:103B100008BF884607D001F10800C0F1080000F096
:103B2000070001EB000802F1080010F0070006D0C2
:103B300002F10800C0F1080000F007000244154639
:103B4000A5EB0800A0EB030908EB030B43F003000F
:103B5000C8F80400AB4528BF01F00CFA2879C0076B
:103B600058BF01F007FAB9F1100F38BF01F002FA9F
:103B7000B069854209D1F0684844F060C6F818B0D1
:103B800040F00100CBF8040070E1706985420BD170
:103B9000B0684844B060C6F814B040F00101CBF8FA
:103BA00004104BF8000061E1686800F0030101298E
:103BB00040F0AF80C008C0000190C00820283BD270
:103BC000D5F808A0EF680090BD4208BF01F0D2F917
:103BD000554508BF01F0CEF968680099C008C000DB
:103BE000B0EBC10F18BF01F0C5F9009806EBC0009B
:103BF00000F128018A4508D031698A45C0F08480E7
:103C0000DAF80C10A94240F07F80574506D1009A9F
:103C10003068012191408843306077E02830874246
:103C200005D0306987426FD3B868A8426CD1CAF812
:103C30000C70C7F808A069E0EF68D5F818A0AF428B
:103C40000CD0A8683169884223D3C168A94204BF57
:103C5000B968A9421DD1C760B8601CE005F1140025
:103C6000076837B905F110000768A7B101E00846F9
:103C7000076807F114010A68002A02BF07F1100162
:103C80000A68002AF3D13169884202D30021016019
:103C900001E001F06FF9BAF1000F37D0E86906EBE7
:103CA00080004FF49871084401688D4208D1076084
:103CB000A7B9EA697068012191408843706025E0E6
:103CC0003069824508D3DAF81000A84214BFCAF858
:103CD0001470CAF8107001E001F04CF9B7B1306906
:103CE000874211D3C7F818A0296929B1814226BF9C
:103CF00039618F6101F03EF9686938B131698842F4
:103D000002D37861876101E001F034F9019805443C
:103D1000814468684008400068604FEAD90549F06E
:103D20000100CBF804004BF80990202D23D206EBBC
:103D3000C50000F12807BA46B9F1100F38BF01F0ED
:103D400019F9306820FA05F1C90704D40121A94006
:103D50000843306006E0B868316988422CBF82466B
:103D600001F008F9C7F808B0CAF80CB0CBF808A001
:103D7000CBF80C707AE05FEA192108BF002023D04D
:103D8000B1F5803F28BF1F201ED2A1F58070000C26
:103D900000F008008140A1F58052120C02F00402EC
:103DA0009140A1F580431B0CC0F10E0003F002030B
:103DB000801AC01A994000EBD130C11D29FA01F2D6
:103DC00002F0010101EB400006EB80014FF4987214
:103DD0001144CBF81C000022CBF81420CBF81020A3
:103DE000726822FA00F3DB0707D4012303FA00F01C
:103DF00010437060C1F800B01DE009681F281DBFA6
:103E00004008C0F1190009FA00F0484600E01146E8
:103E10004A68D208D2004A4514D0C20F01EB820290
:103E200002F1100340001A68002AF0D13069834281
:103E30001AD3C3F800B0CBF81810CBF80CB0CBF8FD
:103E400008B013E032698868914228BF90420BD3D2
:103E5000C0F80CB0C1F808B0CBF80800CBF80C10D3
:103E60000020CBF8180001E001F084F808F1080008
:103E7000BDE8E68F2DE9FA4D0546DFF880030068BE
:103E800082B008B9FFF70AFEDFF870030299806874
:103E900041182F31401E21EA00000299814280F032
:103EA000A9814FF4D8716E18B16839B132688018A1
:103EB000824280F09F818142C0F09C8101F05EF8D7
:103EC00000281EBF0446D0F8008014F1010F00F056
:103ED00091813068716840448142306038BF01464A
:103EE0007160A86980BB286908B1844200D22C6146
:103EF0000020F0613461C6F8148005F12801BF4844
:103F0000006868624FF0FF3028620020C960896055
:103F100001F108024A610A61801C10312028F5D3A2
:103F2000B748854203D1A8F1280221462AE055F876
:103F3000040CC00805EBC000A0F1080104EB080068
:103F4000401AA0F128021DE04FF4E070291808463D
:103F500000E08068D0B1026843681A449442F8D106
:103F6000027B120712D4AA6903689A420ED34768EB
:103F70003B449A420AD208EB07014160E868A9690C
:103F800008EB00022846FFF7A2FD1DE128698442E4
:103F9000084638BF2C6104EB080100E0806880B15E
:103FA00002688A42FAD1017B09070AD40460416899
:103FB000414441602146029B284604B0BDE8F04DD3
:103FC0009FE5AF6939462846FFF75AFD4FF0000BD1
:103FD0000168406808440190273810F007010199F2
:103FE0000EBF0020C0F1080000F0070008442F3881
:103FF00007F11001884234BF00970090009804F147
:10400000080100F1180A11F00701A8F1280005D0F5
:1040100004F10801C1F1080101F00701401A21442F
:10402000A961E86040F001024A6008442822426029
:1040300072480069E8610098083010F0070018BF66
:1040400000F098FF00991B2048604FF4E07129446C
:10405000B1E80C5000980830A0E80C503461C6F864
:104060001480C6F81CB000980830B061019801E0D7
:104070000AF1040A0721CAF804100BF1010B0AF136
:1040800008018142F4D3BBF1020FB8BF00F072FF08
:104090000098B84200F09880C01B3918C4084A68DC
:1040A000520852004A6040F0010179603850202CDB
:1040B00020D205EBC40101F12806B046102838BF14
:1040C00000F058FF286820FA04F1C90704D4012140
:1040D000A1400843286006E0B068296988422CBFE7
:1040E000804600F047FFB760C8F80C70C7F808803A
:1040F000FE6069E0010A23D0B1F5803F28BF1F218F
:104100001ED2A1F58072120C02F008029140A1F5B6
:1041100080531B0C03F004039940A1F58044240C48
:10412000C2F10E0204F00204D21A121BA14002EBEB
:10413000D131CA1D20FA02F303F0010202EB410162
:1041400005EB81024FF498731A44F96100237B61F7
:104150003B616B6823FA01F4E40705D40120884031
:104160001843686017601CE012681F291DBF4908CA
:10417000C1F1190100FA01F1014600E01A46536845
:10418000DB08DB00834210D0CB0F02EB830303F18B
:10419000100449002368002BF0D12869844211D310
:1041A0002760BA61FF60BF600EE0296990688A42AB
:1041B00028BF884206D3C7609760B860FA600020C5
:1041C000B86101E000F0D6FEE8680299814211D2A0
:1041D000401AE860A969029A0A44AA6140F0010005
:1041E0005060029840F00300486004B001F10800FC
:1041F000BDE8F08D002004B0BDE8F08DE01F002088
:10420000F41C00206859883C2DE9F84F044600262C
:1042100089465FEA1920C9F1000B08BF002123D0AD
:10422000B0F5803F28BF1F211ED2A0F58071090C78
:1042300001F008018840A0F58052120C02F004023F
:104240009040A0F580431B0CC1F10E0103F0020366
:10425000891AC91A984001EBD030C11D29FA01F220
:1042600002F0010101EB400104EB8100D0F83001C4
:1042700018B31F290FBF4A464A08C2F1190209FAAA
:1042800002F2002300E052004568ED08ED00A5EBC6
:1042900009055D4503D25FEA050B06460BD045696B
:1042A000D70F00EB8700002D00691CBF85422B460D
:1042B0000028E8D11846B8BBC6BB012088404000A2
:1042C000414208436168084000F05D814142084076
:1042D000401E010B01F01001C840420902F0080223
:1042E000D040830803F00403D840450805F00205D8
:1042F0005118E8405918C0F3400729443944F840A0
:10430000401804EB8000D0F830010DE00846416809
:10431000C908C900A1EB090159453CBF8B460646B7
:1043200001690029F2D140690028F0D1002E00F087
:104330002A81A068A0EB0900834580F024812069D0
:104340008642C0F01E817068C00809EB0B08C000EF
:10435000404518BF00F00EFE06EB0905AE4280F0A6
:104360001081F768D6F818A0B7420CD0B068216960
:10437000884223D3C168B14204BFB968B1421DD19C
:10438000C760B8601CE006F11400076837B906F191
:1043900010000768A7B101E00846076807F114019B
:1043A0000A68002A02BF07F110010A68002AF3D147
:1043B0002169884202D30021016001E000F0DAFDAA
:1043C000BAF1000F39D0F06904EB80004FF4987116
:1043D000084401688E4209D10760380014D1F2699F
:1043E0006068012191408843606026E02069824531
:1043F00008D3DAF81000B04214BFCAF81470CAF833
:10440000107001E000F0B6FDBFB12069874212D301
:10441000C7F818A0306930B12169884226BF3861D9
:10442000876100F0A7FD706938B12169884202D325
:104430007861876101E000F09DFDBBF1100F09D2AA
:1044400048F00300706006EB0800416841F001018C
:10445000416095E049F0030070604BF00100686036
:104460004FEADB0045F80BB020281DD204EBC00159
:1044700001F12807216821FA00F2D207BB4605D4D2
:10448000012202FA00F00843206006E0B8682169C2
:1044900088422CBF834600F06DFDBD60CBF80C5008
:1044A000C5F808B0EF606BE05FEA1B2023D0B0F5E1
:1044B000803F28BF1F201ED2A0F58071090C01F09B
:1044C00008018840A0F58052120C02F004029040CE
:1044D000A0F580431B0CC1F10E0103F00203891A01
:1044E000C91A984001EBD030C11D2BFA01F202F03D
:1044F000010101EB400004EB80014FF4987211447C
:10450000E86100226A612A61626822FA00F3DB072F
:1045100006D4012303FA00F0104360600D601CE034
:1045200009681F281DBF4008C0F119000BFA00F0F0
:10453000584600E011464A68D208D2005A4510D0C9
:10454000C20F01EB820202F1100340001A68002A38
:10455000F0D12069834211D31D60A961ED60AD6087
:104560000EE022698868914228BF904206D3C56058
:104570008D60A860E9600020A86101E000F0FAFC0D
:1045800008E100F0F7FC02E12DE9F84F0446884607
:10459000606841420840401E010B01F01001C84014
:1045A000420902F00802D040830803F00403D84017
:1045B000450805F002055118E8405918C0F34006B7
:1045C00029447118F040401804EB8000D0F8300105
:1045D0004168C908C9000646A1EB080A09E0084677
:1045E0004168C908C900A1EB080151453CBF8A4692
:1045F000064601690029F2D140690028F0D12069FE
:104600008642C0F0C2807068C00808EB0A09C0008A
:10461000484518BF00F0AEFC06EB080B5E4580F085
:10462000B480F768B569B7420CD0B0682169884298
:1046300023D3C168B14204BFB968B1421DD1C7607C
:10464000B8601CE006F11400076837B906F11000E5
:104650000768A7B101E00846076807F114010A6876
:10466000002A02BF07F110010A68002AF3D121696C
:10467000884202D30021016001E000F07BFC002DA4
:1046800035D0F06904EB80004FF49871084401685C
:104690008E4209D10760380011D1F26960680121AA
:1046A00091408843606022E02069854205D32869F3
:1046B000B04214BF6F612F6101E000F05BFCB7B145
:1046C0002069874211D3BD61306930B121698842C8
:1046D00026BF3861876100F04DFC706938B12169EF
:1046E000884202D37861876101E000F043FCBAF1AF
:1046F000100F09D249F00300706006EB0900416811
:1047000041F0010141603FE048F0030070604AF071
:104710000100CBF804004BF80AA0D4F808804FEA57
:10472000D805202D28BF00F025FCB8F1000F27D0B8
:10473000D4F81490009504EBC50000F128052F462D
:10474000B8F1100F38BF00F015FC2068009920FA6E
:1047500001F2D10705D4009A01219140084320605D
:1047600006E0A868216988422CBF074600F002FCD9
:10477000C5F80890C7F80C90C9F80870C9F80C5033
:10478000C4F808A0C4F814B004E000F0F3FB002063
:10479000BDE8F28F06F10800BDE8F28F2DE9F04F79
:1047A00083B00546C046C046F52DDFF8C04780F00F
:1047B00002810B2D31BF102705F10B00C708FF0048
:1047C0002068FE08F04010F0030F42D0C04300F014
:1047D0000100861904EBC60000F12808F700D8F89C
:1047E00008506868C008C000B84218BF00F0C2FB9B
:1047F000D5F80890454508BF00F0BCFB4D4508BF03
:1048000000F0B8FB6868C008C000B84218BF00F0EC
:10481000B1FBC84505D120680121B1408843206023
:104820000DE02069814508D3D9F80C00A84204D1D5
:10483000C8F80890C9F80C8001E000F09BFB47F035
:1048400003006860E8190835416841F001014160E2
:10485000F9E0A168B94280F0C080002800F0A28091
:10486000012505FA06F149004A42B04011430840CB
:1048700041420840401E010B01F01001C8404209AE
:1048800002F00802D040830803F00403D840460831
:1048900006F002065118F0405918C0F3400871188C
:1048A000414420FA08F000EB010804EBC80000F1D5
:1048B00028094FEAC80AD9F808607068C008C00023
:1048C000504518BF00F056FBD6F808B04E4508BF5B
:1048D00000F050FB5E4508BF00F04CFB7068C0085C
:1048E000C000504518BF00F045FBD94505D12068F0
:1048F00005FA08F1884320600DE02069834508D35C
:10490000DBF80C00B04204D1C9F808B0CBF80C9029
:1049100001E000F02FFB47F003007060AAEB0708EE
:10492000F019019048F0010001994860019840F8A1
:104930000880A7684FEAD70ABAF1200F28BF00F015
:1049400019FB47B3CDF800A004EBCA00D4F81490CB
:1049500000F1280AD346102F38BF00F00BFB206867
:10496000009920FA01F2D10705D4009905FA01F166
:104970000843206007E0DAF80800216988422CBF6C
:10498000834600F0F7FACAF80890CBF80C90C9F803
:1049900008B0C9F80CA0C4F8088006F10805019811
:1049A000606150E06068C0B339462046FFF7ECFD17
:1049B000050012D047E015F1400F28BF4FF0FF3738
:1049C0000BD205F10B00C7086068FF0028B139461B
:1049D0002046FFF719FC050035D1A068B8421CD36A
:1049E000C11B626910290AD3D0196061A16041F02E
:1049F00001034360415047F0030050600AE000218A
:104A0000A160616140F0030151601044416841F0D0
:104A10000101416002F1080515E0E06887420DD20E
:104A2000C01BA169E060CA19A26140F0010050609A
:104A300001F1080547F00300486004E039462046CC
:104A4000FFF718FA0546C046C046284603B0BDE841
:104A5000F08F00B970472DE9F047A0F10804C04677
:104A6000C046DFF8085528698442C0F07982616841
:104A700001F00302012A00F07382CA084FEAC2085B
:104A8000CA0704EB080937D4226811F0030F00F0BD
:104A9000698251420C4484429044C0F06182696949
:104AA0008C4200F0D980D608202E70D2D4F80CA009
:104AB000A768544508BF00F05DFABC4208BF00F08B
:104AC00059FA6068C008C000B0EBC60F18BF00F00C
:104AD00051FA05EBC60000F128018F4205D0296983
:104AE0008F4251D3F968A1424ED1BA453DD12868D1
:104AF0000121B140884328604C4580F03182D9F8CB
:104B00000400C10740F12C82810700F17D81A96971
:104B1000894540F0B680E868AC614044E86040F008
:104B20000101616069698C4202D100216961A9605B
:104B3000E969814280F01682DFF83404006808B920
:104B4000FEF7ACFFA969002900F00C82E86829286B
:104B500024BF2846FEF794FFE869E968884280F0A0
:104B600001824FF0FF30E861FCE12830824506D039
:104B70002869824508D3DAF80800A04204D1C7F8B2
:104B80000CA0CAF80870B7E700F0F4F9B4E7E768DA
:104B9000A669A7420BD0A168814222D3C868A0426F
:104BA00004BFB868A0421CD1CF60B9601BE004F11B
:104BB00014010F6837B904F110010F689FB101E0CB
:104BC00011460F6807F114021368002B02BF07F1AA
:104BD00010021368002BF3D1814202D30020086039
:104BE00001E000F0C7F9002E86D0E06905EB8000F7
:104BF0004FF49871084401688C4209D1076038006D
:104C000011D1E2696868012191408843686073E7C7
:104C10002869864205D33069A04214BF77613761A5
:104C200001E000F0A7F9002F3FF466AF2869874242
:104C3000AAD3BE61216929B1814226BF39618F6142
:104C400000F098F9606900283FF456AF296988425E
:104C50009AD3786187614FE799F8040000F0030068
:104C600003287FF449AFC5F80880D9F8040040084C
:104C70004000C9F8040048F00100606044F8088072
:104C800070E16969894508D1A8686C614044A860F1
:104C900040F001016160205064E1C008C0004FEAAB
:104CA000D00ABAF1200F804437D2D9F80C70D9F865
:104CB0000860B94508BF00F05DF9B14508BF00F0D4
:104CC00059F9D9F80400C008C000B0EBCA0F18BFEA
:104CD00000F050F905EBCA0000F128018E4207D020
:104CE00029698E42C0F08380F168494540F07F8099
:104CF000B74206D12868012101FA0AF188432860E9
:104D000077E02830874205D0286987426FD3B8689A
:104D100048456CD1F760BE606BE0D9F80C70D9F8EB
:104D200018604F450DD0D9F808002969884223D36F
:104D3000C168494504BFB96849451DD1C760B8601D
:104D40001CE009F11400076837B909F11000076881
:104D5000A7B101E00846076807F114010A68002AB4
:104D600002BF07F110010A68002AF3D129698842BD
:104D700002D30021016001E000F0FCF8002E38D0E1
:104D8000D9F81C0005EB80004FF4987108440168C5
:104D900089450AD10760380012D1D9F81C2068680B
:104DA000012191408843686023E02869864205D349
:104DB0003069484514BF7761376101E000F0DAF8E7
:104DC000BFB12869874212D3BE61D9F8101029B14A
:104DD000814226BF39618F6100F0CCF8D9F8140008
:104DE00038B12969884202D37861876101E000F017
:104DF000C1F848F00100606044F8088068698442A6
:104E00000BD1C5F80880ADE040084000C9F80400A7
:104E100048F00100606044F808804FEAD807202F6E
:104E200022D205EBC70000F128094E46B8F1100F59
:104E300038BF00F09FF8286820FA07F1C90704D4AA
:104E40000121B9400843286007E0D9F80800296922
:104E500088422CBF064600F08DF8C9F80840F4607F
:104E6000A660C4F80C907DE05FEA182008BF00211E
:104E700023D0B0F5803F28BF1F211ED2A0F580713E
:104E8000090C01F008018840A0F58052120C02F0D4
:104E900004029040A0F580431B0CC1F10E0103F009
:104EA0000203891AC91A984001EBD030C11D28FAB3
:104EB00001F202F0010101EB400105EB81004FF42A
:104EC00098721044002262612261E1616A6822FAEC
:104ED00001F3DB0706D4012303FA01F111436960F2
:104EE00004601CE000681F291DBF4908C1F11901B9
:104EF00008FA01F1414600E010464268D208D200AB
:104F0000424510D0CA0F00EB820202F110034900A3
:104F10001A68002AF0D129698B4211D31C60A06164
:104F2000E460A4600EE02A698168904228BF914243
:104F300006D3CC608460E060A1600020A06101E045
:104F400000F018F8286A401E28620BD1D5F8C80175
:104F500000E080680028FCD14FF0FF30286201E0BB
:104F600000F008F8C046C046BDE8F087F41C0020F9
:104F7000E01F0020012000F017B800000749086872
:104F800008B1002070470648C008C0000860054905
:104F9000C908C900091A0160704700BF102000202D
:104FA000BF090020B80D002080B5C046C046024AA7
:104FB00011001820ABBEFBE72600020070B582B0DE
:104FC0000025044600950CB9012076BD04F1580671
:104FD000706820B9204600F0E8F8B56035702068A8
:104FE0008168890003D5816821F0005181602068C3
:104FF0008168C90013D4816841F080518160DFF875
:10500000BC03DFF8BC130068B0FBF1F00A21484391
:1050100001E00098401E009000980028F9D1206817
:105020008168C90008D4716841F0100171600125E0
:10503000B16841F00101B1607168C90601D48168AD
:10504000490700F1A680716841F002017160816832
:1050500001F00301012902D10168C9073CD4DFF83E
:105060006433DFF86413DFF8642398420BD100F057
:1050700097F802D11068C0072ED4886800F091F824
:1050800020D108681BE09042986800F003000CD122
:10509000012802D11868C0071ED4886800F081F882
:1050A00008BF086804D0002004E0012803D1186874
:1050B00000F0010080B900F073F803D1106800F02F
:1050C000010000E0002038B9DFF8040301686268DD
:1050D00021F47C1111430160E169A26B606A42EA2C
:1050E0004131E2681143A2681143012841EA0041BD
:1050F00003D1A06A401E41EA4041E06ADFF8D432A1
:1051000001281FBF226B002A104301432068C26898
:105110001A401143C1602068816811F00C0F22D140
:10512000C168DFF8B4221140226D1143A26941EA3F
:105130008231626B41EA4201C160E06B0128206864
:1051400001690DD1DFF894221140226C1143626C89
:105150001143A26C1143E26C114341F0010101E0E3
:10516000490849000161206901282068016B05D1C7
:10517000226A0909521E42EA011101E009090901E6
:1051800001636FF002017068084040F00100706038
:1051900004E0706840F0100070600125284676BD7C
:1051A000906800F00300012870477047F8B5054685
:1051B00028688068400758D405F1580420780128F1
:1051C00053D001202070284600F0E4FA010049D1B4
:1051D0006168DFF8F061DFF8F031C90443BFA1680E
:1051E0006FF0060211400021A160DFF8C42461685D
:1051F000114041F4807161602A68DFF8D411B24235
:105200001EBF9A420F6817F01F0F03D1676827F47B
:10521000801767601C2717602A68B24218BF9A423D
:105220000DD00B6813F01F0F1EBF0B6803F01F0398
:10523000052B1EBF096801F01F01092909D1D1689A
:1052400000F015F800212170916841F0040191608F
:10525000F2BD616841F480116160DFF804150968EE
:1052600000F005F800212170F2BD0220F2BD890195
:1052700005D5616821F4005141F4805161607047A7
:105280002DE9F84F044688466069DFF84451DFF89D
:10529000349108284FF0010A04F1580708BF082686
:1052A0002BD0206848451CBFDFF8201188421AD156
:1052B000296811F01F0F1EBF296801F01F01052981
:1052C0001EBF296801F01F0109290CD0286800F4CD
:1052D0004040B0F5004F09D0286800F44040B0F5D8
:1052E000404F09D102E0C068C00705D5786840F09A
:1052F0002000786001205BE0042600F0C4FA8346B9
:1053000020680168314213D118F1010FF8D0B8F1CB
:10531000000F05D000F0B7FAA0EB0B008045EFD2EC
:10532000786840F0040078600020387003203FE087
:105330000168090758BF4FF0000A48451CBFDFF855
:10534000881088420DD0296811F01F0F1EBF2968F0
:1053500001F01F0105291EBF296801F01F0109295D
:1053600001D1C16802E0DFF80C140968082E08BFFB
:10537000082202D04A0401D404220260786840F472
:105380000070BAF1000F786011D02068C06810F486
:10539000406F0CD188040AD4786820F4807078605B
:1053A0007868C00403D4786840F001007860002079
:1053B000BDE8F28F0068006C70470000D800002044
:1053C00080841E00000004500002045000010450BC
:1053D0000803045007C0F0FFF9BFFFFF02F8FFFF0A
:1053E000F8B50246002002F1580300901C78012C09
:1053F00001D10220F2BD01241C701468A5686D075C
:1054000000F150814F680D681F26052F4FF0060CE4
:1054100007D20CFB07F7D4F830C000F07CF9256305
:105420001DE00A2F08D27F1F17FB0CF7D4F834C0F9
:1054300000F071F9656312E00F2F08D20A3F17FBE5
:105440000CF7D4F838C000F066F9A56307E00F3F09
:1054500017FB0CF7D4F83CC000F05DF9E5630724B6
:105460001568AE6816F00C0F64D10F688E680A2FAD
:1054700009D300F056F90D681668B7690A3D00F0C7
:105480002CF9B56107E000F04CF916680D687769F2
:1054900000F023F9756115684E69EF68D1F810E0E6
:1054A000FF087F0007F00607AEF1010EBE40BEF117
:1054B000030FDFF8CC721AD8DFE80EF002080E14E2
:1054C000D5F860C000F017F92E6633E0D5F864C057
:1054D00000F011F96E662DE0D5F868C000F00BF908
:1054E000AE6627E0D5F86CC000F005F921E02E6E1D
:1054F00000F00BF903D12E6E26F000462E661568DB
:105500006E6E00F002F903D16E6E26F000466E66F4
:105510001568AE6E00F0F9F803D1AE6E26F00046C5
:10552000AE661568EE6E00F0F0F803D1EE6E26F070
:105530000046EE661568AE6806F00306012E02D13D
:105540002E68F60736D40F680126BE40CF68B7F143
:10555000804F05D0D5F8B040B443C5F8B04017E04F
:10556000D5F8B0703E43C5F8B0600E688D68092E5E
:1055700007D300F0E3F8B769093D00F0A2F8B46181
:1055800006E000F0DBF877696D1C00F09AF87461B2
:105590000968DFF8F041112902D125682D0203E0E6
:1055A000122903D12568ED0104D404E000297BD140
:1055B00025686D0278D41268956805F00305012D01
:1055C00002D11568ED076DD4DFF8BC61DFF8A85192
:1055D000DFF8A871B2420CD100F06CF802D13F683C
:1055E000FF075FD4AF6807F00307012F2CD12F68A6
:1055F00027E0D6F808C0BA420CF0030C13D1BCF176
:10560000010F04D1D6F800C05FEACC7C4AD4D5F8AB
:1056100008C00CF0030CBCF1010F08BFD5F800C0A6
:1056200006D0844606E0BCF1010F06D1D6F800C0D2
:105630000CF0010CBCF1000F34D100F03BF803D1A9
:105640003F6807F0010700E000275FBB112916D172
:10565000B24218BFAA4227D121684C4A41F4000146
:1056600021604B490968B1FBF2F178225143009166
:10567000009900291CBF0099491EF8D114E0122995
:1056800007D1B24218BFAA420ED1216841F0807101
:1056900006E0002908BFB24206D1216841F480012A
:1056A000216001E000F05EF800211970F2BD0000F9
:1056B000FEF1FFFFD7F808C00CF0030CBCF1010F9E
:1056C000704705EB4505AC4027EA04048F6827F0D6
:1056D000004707FA05F52C43704705EB450504FA2A
:1056E00005FC27EA0C07D1F808C02CF0004C0CFA96
:1056F00005F53D43704707EA0C07D1F800C047EABB
:105700008C673E4346F0004670470F6806F0F84647
:10571000B6EB876F7047BE402CEA0606BD403543A6
:105720007047B6F1004F03D16E6946F0004603E0C2
:105730001EB96E6926F000466E617047B5F1004FE4
:1057400004D115686E6946F0004604E025B9156875
:105750006E6926F000466E610D681668704700009D
:105760000C000450586840F0200058600120704739
:10577000C06D70470C00045000020450000104503A
:1057800000F0FF03080304500000045080841E0052
:10579000D800002038B500F03FF802D10168C907F1
:1057A00010D481686FF39E1159B900F00DF80546C9
:1057B00020680168C90705D400F006F8401B0328DB
:1057C000F6D330E0002032BD816841F001018160F4
:1057D00000F059B838B500F01FF81BD10168C907AF
:1057E00018D5816801F00D01012912D1816841F0BD
:1057F0000201816003202168086000F044F805463A
:1058000020688068C00705D500F03DF8401B0328DC
:10581000F6D308E0002032BD04462068816801F01C
:1058200003010129704700F001F832BDE06D40F03E
:105830001000E065206E40F00100206601207047F6
:1058400080B5032000F03FF80F2000F005F800F0CD
:1058500002F8002002BD704710B5044611480068E8
:105860004FF47A71B0FBF1F000F061F800222146AC
:105870004FF0FF3000F034F8002010BD0A480168F6
:10588000491C0160704708480068704738B50446F5
:10589000FFF7F9FF0546FFF7F6FF401BA042FAD3DA
:1058A00031BD0000D80000200C2000200901002894
:1058B00006D5294A00F00F00104400F8041C704778
:1058C000264A1154704726490A684FF6FF03000222
:1058D0001A4000F4E0601043224A10430860704709
:1058E00038B51F4B1B68C3F30223C3F10704052C13
:1058F00028BF04241D1D072D34BF0023DB1E0125F6
:1059000005FA04F4641E2140994005FA03F35B1E76
:105910001A401143BDE83440C8E7012100F01F02DE
:105920009140114AFFE7400942F82010704710B536
:10593000401EB0F1807F01D3012010BD0B4C606090
:105940000F214FF0FF30FFF7B1FF0020A0600720CC
:105950002060002010BD000018ED00E000E400E031
:105960000CED00E00000FA0500E100E010E000E0CE
:105970002DE9F04F80460FF2A87095B015461E46EF
:10598000D0E90023CDE9132303AF00200391B861D0
:105990000DF1340900E02D190020ADF8020013AB21
:1059A0004FF0FF3229460DF1020000F0C5FB04461E
:1059B000012C04DA2878441EA441E443E40FBDF826
:1059C000020025280CBFA4F1010BA346BBF1010F77
:1059D0000EDBAA461AF8011B0398C0470028039063
:1059E00000F0DB80B869401CBBF1010BB861F1D15C
:1059F000BDF80200252804D10020F86038617861E4
:105A000005E00028C7D1B86909E340F0010015F8A6
:105A1000011F2029F9D023290DD02B2904D02D29AD
:105A200006D030290AD00CE040F0020080B2EEE748
:105A300040F00400FAE740F00800F7E740F01000FB
:105A4000F4E72A290ED13168316051F8042B316016
:105A5000002A3A6204D5514240F00400396280B213
:105A60006D1C13E0002139620BE0396A6FF00043CE
:105A7000994205D001EB810302EB430130393962D1
:105A80006D1C2A78A2F130010A29EED329782E293B
:105A900003D04FF0FF31F9611FE015F8011F2A29EB
:105AA00007D1316831606D1C51F8042B3160FA6107
:105AB00013E00021F9610BE0F9696FF000439942AE
:105AC00005D001EB810302EB43013039F9616D1C14
:105AD0002A78A2F130010A29EED3B8840FF2486087
